:020000040800F2
:10000000405B0024851F01083D1D01083F1D0108BC
:10001000411D0108431D0108451D010800000000A5
:10002000000000000000000000000000471D010863
:10003000491D0108000000004B1D01084D1D01086D
:10004000B51F0108B91F0108BD1F0108C11F010824
:10005000C51F0108C91F0108CD1F0108D11F0108D4
:10006000D51F0108D91F0108DD1F0108E11F010884
:10007000551D0108E51F01085F1D0108E91F010862
:10008000ED1F0108F11F0108691D0108F51F010896
:10009000F91F0108FD1F01080120010805200108C2
:1000A000092001080D200108112001081520010870
:1000B000731D0108192001081D20010821200108D5
:1000C00025200108292001082D20010831200108E0
:1000D00035200108392001083D2001084120010890
:1000E0004520010849200108000000004D200108BA
:1000F0005120010855200108592001085D20010800
:100100006120010865200108692001086D200108AF
:100110007120010875200108792001087D2001085F
:100120008120010885200108892001088D2001080F
:100130009120010895200108992001089D200108BF
:1001400000000000000000000000000000000000AF
:10015000A1200108A5200108A9200108AD2001085F
:10016000B1200108B5200108B9200108BD2001080F
:10017000C1200108C5200108C920010800000000B5
:10018000CD200108D1200108D5200108D92001087F
:10019000DD200108E1200108E5200108E92001082F
:1001A000ED200108F1200108F5200108F9200108DF
:1001B000FD2001080121010805210108092101088C
:1001C0000D2101081121010815210108192101083B
:1001D0001D210108212101082521010829210108EB
:1001E0002D2101083121010835210108392101089B
:1001F0003D2101084121010845210108492101084B
:100200004D210108512101085521010859210108FA
:100210005D210108612101086521010869210108AA
:100220006D210108712101087521010800000000FD
:10023000792101087D210108000000009D1D0108B1
:100240008121010885210108892101088D210108EA
:100250009121010895210108992101089D2101089A
:10026000A1210108A5210108A9210108AD2101084A
:10027000B1210108B5210108B921010800000000E1
:10028000BD210108C1210108C521010800000000AD
:1002900000000000C921010841302ED1D2C0D2D3C4
:1002A000D12020202020202020202020000000001D
:1002B000FAFF0000000000008A00000041312EC05B
:1002C000C2C0D020CFD0CED6C5D1D1C020202020D2
:1002D00000000000FAFF0000000000000A09000012
:1002E00041322EC0C2C0D020D1C5D2C8202020208B
:1002F0002020202000000000FAFF00000000000085
:100300008A11000041332EC0C2C0D020CDC0C3D05E
:10031000D3C7CAC82020202000000000FAFF000038
:10032000000000000A1A000041342EC0C2C0D020D4
:10033000D3D1D2D0CEC9D1D22020202000000000BD
:10034000FAFF0000000000008A22000041352EC2A2
:10035000D5CEC4C02020D2D3202020202020202091
:1003600000000000FAFF0000000000000A2B00005F
:1003700041362EC2DBD5CEC4C020D2D120202020D1
:100380002020202000000000FAFF000000000000F4
:100390008A33000041372ECFCECBCEC620DDCDCA6A
:1003A000CEC420202020202000000000FFFF0000FD
:1003B000000000000840000041382ECCCECCC5CD56
:1003C000D2202020202020202020202000000000FB
:1003D000FFFF0000000000000840000041392ED15E
:1003E000CACED0CED1D2DC20202020202020202038
:1003F000F0F1FFFF100E0000000000008830000048
:100400004131302ECDC0CFD0204C312020202020B3
:10041000C220202000000000F401000000000000C5
:10042000082000004131312ECDC0CFD0204C3220E9
:1004300020202020C220202000000000F401000025
:1004400000000000082000004131322ECDC0CFD086
:10045000204C332020202020C2202020000000003B
:10046000F401000000000000082000004131332E9C
:10047000D2CECA204C312020202020204120202014
:1004800000000000401F00000000000008320000D3
:100490004131342ED2CECA204C32202020202020C0
:1004A0004120202000000000401F0000000000004C
:1004B000083200004131352ED2CECA204C332020E4
:1004C000202020204120202000000000401F0000AC
:1004D00000000000083200004131362ED3C3CECBDD
:1004E00020CDC0C3D0202020202020204CFFFFFFA3
:1004F000B400000000000000882000004131372EC9
:1005000043414C494220535441544520202020204F
:10051000000000000300000000000000093C000093
:100520004131382ECFCECBCEC6C5CDC8C520202078
:100530002520202018FCFFFFD0070000000000004D
:10054000883200004131392ECFCECBCDDBC920CF50
:10055000D3D2DC20CEC1202000000000B80B000068
:1005600000000000083200004132302ED2C5CAD34C
:10057000D9C8C920CFD3D2DCCEC1202048F4FFFF98
:10058000B80B000000000000883200004132312E1C
:10059000D1D7C5D220D6C8CACBCEC2202020202099
:1005A00000000000FAFF000000000000084000000A
:1005B0004132322ED2C5CCCFC5D0C0D2D3D0C0208C
:1005C000202020209CFFFFFF6400000000000000AE
:1005D000882000004132332EC2C5D0D1C8DF20CFE1
:1005E000CE2020202020202000000000FAFF000064
:1005F00000000000083600004132342E52455345B9
:100600005256202020202020202020200000000002
:10061000FFFF000000000000084000004132352EBE
:1006200052455345525620202020202020202020B3
:1006300000000000FFFF0000000000000840000074
:100640004132362E5245534552562020202020203C
:100650002020202000000000FFFF0000000000001C
:10066000084000004132372E524553455256202053
:10067000202020202020202000000000FFFF00007C
:1006800000000000084000004132382E524553451A
:100690005256202020202020202020200000000072
:1006A000FFFF000000000000084000004132392E2A
:1006B0005245534552562020202020202020202023
:1006C00000000000FFFF00000000000008400000E4
:1006D0004133302E524553455256202020202020B1
:1006E0002020202000000000FFFF0000000000008C
:1006F000084000004133312E5245534552562020C8
:10070000202020202020202000000000FFFF0000EB
:1007100000000000084000004133322E524553458E
:1007200052562020202020202020202000000000E1
:10073000FFFF000000000000084000004133332E9E
:100740005245534552562020202020202020202092
:1007500000000000FFFF0000000000000840000053
:100760004133342E5245534552562020202020201C
:100770002020202000000000FFFF000000000000FB
:10078000084000004133352E524553455256202033
:10079000202020202020202000000000FFFF00005B
:1007A00000000000084000004133362E52455345FA
:1007B0005256202020202020202020200000000051
:1007C000FFFF000000000000084000004133372E0A
:1007D0005245534552562020202020202020202002
:1007E00000000000FFFF00000000000008400000C3
:1007F0004133382E52455345525620202020202088
:100800002020202000000000FFFF0000000000006A
:10081000084000004133392E52455345525620209E
:10082000202020202020202000000000FFFF0000CA
:10083000000000000840000042302E434C4F53455A
:1008400020544F5251202020202020200000000062
:100850003C000000020000005041000042312E4FD9
:1008600050454E20544F525145202020202020201A
:10087000000000003C0000000200000050410000A9
:1008800042322E434C205345414C2054525120209B
:1008900020202020000000003C000000020000009A
:1008A0005041000042332E434C20535441525420B7
:1008B0005452512020202020000000003C00000065
:1008C000040000005041000042342E4F5020534598
:1008D000414C2054525120202020202000000000B4
:1008E0003C000000020000005041000042352E4F45
:1008F0005020535441525420545251202020202043
:10090000000000003C000000040000005041000016
:100910002020204232392E52455345525620202065
:100920002020202000000000FFFF00000000000049
:100930000840000042372E5345414C205459504541
:1009400020202020202020200100000004000000A2
:1009500001000000513F000042382E524F44205405
:100960005950452020202020202020200000000079
:100970000100000000000000D141000042392E5A61
:100980004F4E4520434C4F5345202020202020200F
:1009900000000000B80B00000A0000005032000008
:1009A0004231302E5A4F4E45204F50454E20202088
:1009B0002020202000000000B80B00000A000000EA
:1009C000503200004231312E4F4646534554205A92
:1009D0004F4E452020202020000000006400000031
:1009E00000000000502200004231322E504153538B
:1009F000574F525744202020202020200000000084
:100A0000FAFF00000000000000400000202020420B
:100A100031332E54494D45202020202020202020F5
:100A200000000000FAFF00000000000013100000AA
:100A30002020204231342E444154452020202020C3
:100A40002020202000000000FAFF0000000000002D
:100A5000142000002020204231352E5245534552AB
:100A6000562020202020202000000000FFFF000052
:100A700000000000084000002020204231362E52A5
:100A80004553455256202020202020200000000001
:100A9000FFFF000000000000084000004231372E38
:100AA0004D552F445520202020202020202020207C
:100AB00000000000030000000100000050400000A2
:100AC0004231382E445520534F5552534520202053
:100AD0002020202000000000020000000000000094
:100AE000504000004231392E424C4F4B205A414C6D
:100AF000495020202020202000000000010000009C
:100B000000000000504000004232302E434F4D4D57
:100B1000414E442054494D455320202001000000FF
:100B20006400000001000000502200004232312E1B
:100B3000494E20545950205349472020202020203E
:100B40000000000001000000000000005040000014
:100B50004232322E494E204D41534B20202020203E
:100B600020202020000000001F00000000000000E6
:100B7000553000004232332E4F5554204D41534BD7
:100B8000202020202020202000000000FAFF00006C
:100B900000000000557000004232342E424155449E
:100BA0002052415445202020202020200000000019
:100BB0000600000003000000514900004232352EBB
:100BC0004144524553532020202020202020202023
:100BD0000100000020000000010000005010000093
:100BE0004232362E434F4D4D20545950452020203F
:100BF0002020202000000000020000000000000073
:100C0000517000004232372E4D5546462054494D12
:100C10004520202053202020030000006400000015
:100C200014000000502200002020204232382E52B2
:100C3000455345525620202020202020000000004F
:100C4000FFFF0000000000000840000020202042BC
:100C500032392E5245534552562020202020202044
:100C600000000000FFFF000000000000084000003E
:100C70002020204233302E5245534552562020200A
:100C80002020202000000000FFFF000000000000E6
:100C9000084000002020204233312E524553455257
:100CA000562020202020202000000000FFFF000010
:100CB00000000000084000004233322E4E4F204D0D
:100CC0004F56452054494D45532020200300000035
:100CD0006400000014000000502200004233332E54
:100CE0005345414C20574159202020204F4220207D
:100CF00001000000E8030000640000005032000022
:100D00002020204233342E52455345525620202075
:100D10002020202000000000FFFF00000000000055
:100D2000084000002020204233352E5245534552C2
:100D3000562020202020202000000000FFFF00007F
:100D400000000000084000002020204233362E52D0
:100D5000455345525620202020202020000000002E
:100D6000FFFF00000000000008400000202020429B
:100D700033372E5245534552562020202020202024
:100D800000000000FFFF000000000000084000001D
:100D90002020204233382E524553455256202020E1
:100DA0002020202000000000FFFF000000000000C5
:100DB000084000002020204233392E52455345522E
:100DC000562020202020202000000000FFFF0000EF
:100DD00000000000084000002020204234302E5245
:100DE000455345525620202020202020000000009E
:100DF000FFFF00000000000008400000202020420B
:100E000034312E5245534552562020202020202098
:100E100000000000FFFF000000000000084000008C
:100E20002020204234322E52455345525620202055
:100E30002020202000000000FFFF00000000000034
:100E4000084000002020204234332E5245534552A2
:100E5000562020202020202000000000FFFF00005E
:100E600000000000084000002020204234342E52B0
:100E7000455345525620202020202020000000000D
:100E8000FFFF00000000000008400000202020427A
:100E900034352E5245534552562020202020202004
:100EA00000000000FFFF00000000000008400000FC
:100EB0002020204234362E524553455256202020C1
:100EC0002020202000000000FFFF000000000000A4
:100ED000084000002020204234372E52455345520E
:100EE000562020202020202000000000FFFF0000CE
:100EF00000000000084000002020204234382E521C
:100F0000455345525620202020202020000000007C
:100F1000FFFF0000000000000840000020202042E9
:100F200034392E524553455256202020202020206F
:100F300000000000FFFF000000000000084000006B
:100F40002043302E50415353574F524420202020ED
:100F50002020202000000000FAFF00000000000018
:100F60000040000043312E45502054595045202068
:100F70002020202020202020000000001900000058
:100F8000000000006010000043322E5945415220FD
:100F90004F462050524F44202020202000000000C7
:100FA00063000000160000006010000043332E466E
:100FB0004143544F5259204E554D2020202020208F
:100FC000000000000F27000000000000603000005B
:100FD00043342E4D415820544F5251202020202080
:100FE000202020200A000000701700000A000000E6
:100FF0006034000043352E4E4F4D2043555252452C
:101000004E5420204120202001000000B0040000A8
:101010000A0000006022000043362E4B502052454B
:10102000442020202020202020202020010000001B
:10103000FAFF0000204E00006044000043372E49B4
:101040004E44594320545950452020202020202030
:1010500000000000010000000000000060400000EF
:1010600043382E494E4459432052455320542020A2
:1010700053202020000000001E0000000A00000095
:101080006010000043392E534554204445464F55C7
:101090004C542020202020200000000001000000EF
:1010A00000000000A14D00004331302E5355425640
:1010B000455253494F4E20202020202000000000A0
:1010C000FFFF000000000000084000004331312E07
:1010D00048414C4C2053544154452020202020208E
:1010E00000000000FFFF00000000000008400000BA
:1010F00020D133382ECACED020D2CECAC02055201F
:101100002020202000000000FAFF0000A00F0000B7
:101110006040000020D133392ECACED020D2CECAB2
:10112000C02056202020202000000000FAFF0000F0
:10113000A00F00006040000020D134302ECACED075
:1011400020D2CECAC020572020202020000000003E
:10115000FAFF0000A00F000060400000D134312EE3
:10116000D1CCC5D920D2CECAC020552020202020E5
:1011700000000000FAFF0000B27F000060400000A5
:10118000D134322ED1CCC5D920D2CECAC0205620DF
:101190002020202000000000FAFF0000B27F0000A5
:1011A00060400000D134332ED1CCC5D920D2CECA74
:1011B000C02057202020202000000000FAFF00005F
:1011C000B27F00006040000020D134342ECACED05F
:1011D00020CDC0CFD02052202020202000000000B1
:1011E000FAFF0000D00700006040000020D1343535
:1011F0002ECACED020CDC0CFD020532020202020FA
:1012000000000000FAFF0000D0070000604000006E
:1012100020D134362ECACED020CDC0CFD0205420FD
:101220002020202000000000FAFF0000D00700006E
:1012300060400000D134372ED1CCC5D920CDC0CFED
:10124000D02052202020202000000000FAFF0000C3
:10125000F87F000060400000D134382ED1CCC5D9D1
:1012600020CDC0CFD020532020202020000000001F
:10127000FAFF0000F87F000060400000D134392EF2
:10128000D1CCC5D920CDC0CFD020542020202020C3
:1012900000000000FAFF0000F87F0000604000003E
:1012A00020D135302ECACED020CDC0CFD020415550
:1012B0002020202000000000FAFF0000D0070000DE
:1012C00060400000D135312ED1CCC5D920CDC0CF62
:1012D000D02041552020202000000000FAFF00000F
:1012E000F87F00006040000020D135322ECACED0F9
:1012F00020D2CECAC0204252202020200000000070
:10130000FAFF0000D007000060400000D135332E06
:10131000D1CCC5D920D2CECAC02042522020202014
:1013200000000000FAFF0000F87F000060400000AD
:10133000D135342ECFCED1D22EC2D02ED1C8CD2091
:101340004DCA4320000000006400000015000000AA
:1013500060220000D135352ECFCED1D22EC2D02E74
:10136000524D53204DCA432000000000640000008D
:10137000010000006022000044302E5345542043F9
:101380004C4F53452020202020202020000000002A
:101390000200000000000000914D000044312E5377
:1013A0004554204F50454E20202020202020202032
:1013B000000000000200000000000000914D00004D
:1013C00044322E544F204F50454E202020202020C4
:1013D0002020202000000000E803000000000000A2
:1013E0001032000044332E544F20434C4F534520BD
:1013F000202020202020202000000000E803000002
:101400000000000010320000202044342E524553CA
:1014100045525620202020202020202000000000BF
:10142000FFFF0000000000000840000044352E438C
:10143000414C494220524553455420202020202031
:10144000000000000100000000000000114F00003B
:1014500044362E434F4D414E44532020202020201F
:1014600020202020000000001300000000000000E9
:10147000115000002044372E45525220524553450A
:101480005420202020202020000000000100000027
:1014900000000000115000002044382E5345542015
:1014A0004445464F554C5420202020200000000089
:1014B0000100000000000000914D000020202044A9
:1014C000392E5245534552562020202020202020DE
:1014D00000000000FFFF0000000000000802000004
:1014E0004431302E4359434C4520524553455420F6
:1014F000202020200000000001000000000000006B
:10150000115000004431312E434F4D4D2052455370
:101510004554202020202020000000000100000071
:1015200000000000115000002020204431322E52D3
:101530004553455256202020202020200000000046
:10154000FFFF0000000000000840000020202044B1
:1015500031332E5245534552562020202020202042
:1015600000000000FFFF0000000000000840000035
:101570002020204431342E524553455256202020FD
:101580002020202000000000FFFF000000000000DD
:10159000084000002020204431352E52455345524A
:1015A000562020202020202000000000FFFF000007
:1015B00000000000084000002020204431362E5258
:1015C00045534552562020202020202000000000B6
:1015D000FFFF000000000000084000002020204421
:1015E00031372E52455345525620202020202020AE
:1015F00000000000FFFF00000000000008400000A5
:101600002020204431382E52455345525620202068
:101610002020202000000000FFFF0000000000004C
:10162000084000002020204431392E5245534552B5
:10163000562020202020202000000000FFFF000076
:10164000000000000840000047302E54455354204D
:101650004D4F444520202020202020200000000065
:1016600001000000000000006010000047312E4C17
:101670004544205445535420202020202020202061
:1016800000000000FAFF00000000000025400000FC
:1016900047322E444953204F55542054455354202B
:1016A0002020202000000000FAFF000000000000C1
:1016B0002540000047332E4441432056414C5545B8
:1016C000202020202520202000000000E80300002A
:1016D000000000002032000047342E444953504C93
:1016E000205354415254202020202020000000008C
:1016F0000100000000000000200000002020204722
:10170000352E52455345525620202020202020209F
:1017100000000000FFFF0000000000000840000083
:1017200020202047362E5245534552562020202057
:101730002020202000000000FFFF0000000000002B
:101740000840000020202047372E5245534552566E
:10175000202020202020202000000000FFFF00008B
:10176000000000000840000020202047382E52458D
:101770005345525620202020202020200000000029
:10178000FFFF00000000000008400000202020476C
:10179000392E52455345525620202020202020200B
:1017A00000000000FFFF00000000000008400000F3
:1017B0002020204731302E524553455256202020BC
:1017C0002020202000000000FFFF0000000000009B
:1017D000084000002020204731312E524553455209
:1017E000562020202020202000000000FFFF0000C5
:1017F00000000000084000002020204731322E5217
:101800004553455256202020202020200000000073
:10181000FFFF0000000000000840000020202047DB
:1018200031332E524553455256202020202020206F
:1018300000000000FFFF0000000000000840000062
:101840002020204731342E52455345525620202027
:101850002020202000000000FFFF0000000000000A
:10186000084000002020204731352E524553455274
:10187000562020202020202000000000FFFF000034
:1018800000000000084000002020204731362E5282
:1018900045534552562020202020202000000000E3
:1018A000FFFF00000000000008400000202020474B
:1018B00031372E52455345525620202020202020DB
:1018C00000000000FFFF00000000000008400000D2
:1018D0002020204731382E52455345525620202093
:1018E0002020202000000000FFFF0000000000007A
:1018F000084000002020204732302E5245534552E8
:10190000562020202020202000000000FFFF0000A3
:1019100000000000084000002020204732312E52F5
:101920004553455256202020202020200000000052
:10193000FFFF0000000000000840000020202047BA
:1019400032322E524553455256202020202020204E
:1019500000000000FFFF0000000000000840000041
:101960002020204732332E52455345525620202006
:101970002020202000000000FFFF000000000000E9
:10198000084000002020204732342E524553455253
:10199000562020202020202000000000FFFF000013
:1019A00000000000084000002020204732352E5261
:1019B00045534552562020202020202000000000C2
:1019C000FFFF00000000000008400000202020472A
:1019D00032362E52455345525620202020202020BA
:1019E00000000000FFFF00000000000008400000B1
:1019F0002020204732372E52455345525620202072
:101A00002020202000000000FFFF00000000000058
:101A1000084000002020204732382E5245534552BE
:101A2000562020202020202000000000FFFF000082
:101A300000000000084000002020204732392E52CC
:101A40004553455256202020202020200000000031
:101A5000FFFF0000000000000840000043414C4927
:101A60004220535441555320202020202020202064
:101A70000000000003000000000000004000000023
:101A8000202020202052455345525620202020203F
:101A90002020202000000000FAFF000000000000CD
:101AA00040400000434C4F534520504F53203120BD
:101AB000202020202020202000000000FFFF000028
:101AC0000000000040400000434C4F534520504F61
:101AD0005320322020202020202020200000000041
:101AE000FFFF000000000000404000004F50454E46
:101AF00020504F5320312020202020202020202043
:101B000000000000FFFF0000000000004040000057
:101B10004F50454E20504F5320322020202020206F
:101B20002020202000000000FFFF00000000000037
:101B30004040000050415353574F52442031202021
:101B4000202020202020202000000000FAFF00009C
:101B5000000000004040000050415353574F524492
:101B600020322020202020202020202000000000E3
:101B7000FAFF0000000000004040000053484320EE
:101B80002020202020202020202020202020202055
:101B900000000000FAFF00000000000040400000CC
:101BA0004D55464620202020202020202020202087
:101BB0002020202000000000FAFF000000000000AC
:101BC000404000004359434C4520434E54202020C0
:101BD000202020202020202000000000FAFF00000C
:101BE000000000004040000052455345525620205E
:101BF0002020202020202020202020200000000065
:101C0000FFFF000000000000404000005245534527
:101C1000525620202020202020202020202020205C
:101C200000000000FFFF0000000000004040000036
:101C3000524553455256202020202020202020208D
:101C40002020202000000000FFFF00000000000016
:101C5000404000002020204831342E44415445208B
:101C6000202020202020202000000000FAFF00007B
:101C700000000000404000005245534552562020CD
:101C800020202020202020202020202000000000D4
:101C9000FFFF00000000000040400000535749547F
:101CA0004348204355525220202020202520202028
:101CB00000000000B80B00000000000040320000EF
:101CC000205452512020202043555220305F302094
:101CD0002520202000000000FAFF00000000000086
:101CE00040400000205452512020202043555220D3
:101CF000305F31202520202000000000FAFF000086
:101D000000000000404000002054525120202020BC
:101D100043555220305F3220252020200000000053
:101D2000FAFF000000000000404000002054525123
:101D30002020202043555220305F332025202020B2
:101D400000000000FAFF000000000000404000001A
:101D5000205452512020202043555220305F3420FF
:101D60002520202000000000FAFF000000000000F5
:101D70004040000020545251202020204355522042
:101D8000305F35202520202000000000FAFF0000F1
:101D9000000000004040000020545251202020202C
:101DA00043555220315F30202520202000000000C4
:101DB000FAFF000000000000404000002054525193
:101DC0002020202043555220315F31202520202023
:101DD00000000000FAFF000000000000404000008A
:101DE000205452512020202043555220315F322070
:101DF0002520202000000000FAFF00000000000065
:101E000040400000205452512020202043555220B1
:101E1000315F33202520202000000000FAFF000061
:101E2000000000004040000020545251202020209B
:101E300043555220315F342025202020000000002F
:101E4000FAFF000000000000404000002054525102
:101E50002020202043555220315F3520252020208E
:101E600000000000FAFF00000000000040400000F9
:101E7000205452512020202043555220325F3020E0
:101E80002520202000000000FAFF000000000000D4
:101E90004040000020545251202020204355522021
:101EA000325F31202520202000000000FAFF0000D2
:101EB000000000004040000020545251202020200B
:101EC00043555220325F32202520202000000000A0
:101ED000FAFF000000000000404000002054525172
:101EE0002020202043555220325F332025202020FF
:101EF00000000000FAFF0000000000004040000069
:101F0000205452512020202043555220325F34204B
:101F10002520202000000000FAFF00000000000043
:101F20004040000020545251202020204355522090
:101F3000325F35202520202000000000FAFF00003D
:101F4000000000004040000020545251202020207A
:101F500043555220335F3020252020200000000010
:101F6000FAFF0000000000004040000020545251E1
:101F70002020202043555220335F3120252020206F
:101F800000000000FAFF00000000000040400000D8
:101F9000205452512020202043555220335F3220BC
:101FA0002520202000000000FAFF000000000000B3
:101FB0004040000020545251202020204355522000
:101FC000335F33202520202000000000FAFF0000AE
:101FD00000000000404000002054525120202020EA
:101FE00043555220335F342025202020000000007C
:101FF000FAFF000000000000404000002054525151
:102000002020202043555220335F352025202020DA
:1020100000000000FAFF0000000000004040000047
:1020200020545251202020414E474C20305F302018
:102030002520202000000000FAFF00000000000022
:102040004040000020545251202020414E474C2057
:10205000305F31202520202000000000FAFF000022
:102060000000000040400000205452512020204138
:102070004E474C20305F32202520202000000000F9
:10208000FAFF0000000000004040000020545251C0
:10209000202020414E474C20305F33202520202037
:1020A00000000000FAFF00000000000040400000B7
:1020B00020545251202020414E474C20305F342084
:1020C0002520202000000000FAFF00000000000092
:1020D0004040000020545251202020414E474C20C7
:1020E000305F35202520202000000000FAFF00008E
:1020F00000000000404000002054525120202041A8
:102100004E474C20315F3020252020200000000069
:10211000FAFF00000000000040400000205452512F
:10212000202020414E474C20315F312025202020A7
:1021300000000000FAFF0000000000004040000026
:1021400020545251202020414E474C20315F3220F4
:102150002520202000000000FAFF00000000000001
:102160004040000020545251202020414E474C2036
:10217000315F33202520202000000000FAFF0000FE
:102180000000000040400000205452512020204117
:102190004E474C20315F34202520202000000000D5
:1021A000FAFF00000000000040400000205452519F
:1021B000202020414E474C20315F35202520202013
:1021C00000000000FAFF0000000000004040000096
:1021D00020545251202020414E474C20325F302065
:1021E0002520202000000000FAFF00000000000071
:1021F0004040000020545251202020414E474C20A6
:10220000325F31202520202000000000FAFF00006E
:102210000000000040400000205452512020204186
:102220004E474C20325F3220252020200000000045
:10223000FAFF00000000000040400000205452510E
:10224000202020414E474C20325F33202520202083
:1022500000000000FAFF0000000000004040000005
:1022600020545251202020414E474C20325F3420D0
:102270002520202000000000FAFF000000000000E0
:102280004040000020545251202020414E474C2015
:10229000325F35202520202000000000FAFF0000DA
:1022A00000000000404000002054525120202041F6
:1022B0004E474C20335F30202520202000000000B6
:1022C000FAFF00000000000040400000205452517E
:1022D000202020414E474C20335F312025202020F4
:1022E00000000000FAFF0000000000004040000075
:1022F00020545251202020414E474C20335F322041
:102300002520202000000000FAFF0000000000004F
:102310004040000020545251202020414E474C2084
:10232000335F33202520202000000000FAFF00004A
:102330000000000040400000205452512020204165
:102340004E474C20335F3420252020200000000021
:10235000FAFF0000000000004040000020545251ED
:10236000202020414E474C20335F3520252020205F
:1023700000000000FAFF00000000000040400000E4
:1023800020414E474C202020534620305F302020F3
:10239000414E474C00000000B40000000000000067
:1023A0004020000020414E474C2020205346203042
:1023B0005F312020414E474C00000000B400000077
:1023C000000000004020000020414E474C2020200B
:1023D000534620305F322020414E474C0000000021
:1023E000B4000000000000004020000020414E47E3
:1023F0004C202020534620305F332020414E474C54
:1024000000000000B40000000000000040200000B8
:1024100020414E474C202020534620305F3420205E
:10242000414E474C00000000B400000000000000D6
:102430004020000020414E474C20202053462030B1
:102440005F352020414E474C00000000B4000000E2
:10245000000000004020000020414E474C2020207A
:10246000534620315F302020414E474C0000000091
:10247000B4000000000000004020000020414E4752
:102480004C202020534620315F312020414E474CC4
:1024900000000000B4000000000000004020000028
:1024A00020414E474C202020534620315F322020CF
:1024B000414E474C00000000B40000000000000046
:1024C0004020000020414E474C2020205346203120
:1024D0005F332020414E474C00000000B400000054
:1024E000000000004020000020414E474C202020EA
:1024F000534620315F342020414E474C00000000FD
:10250000B4000000000000004020000020414E47C1
:102510004C202020534620315F352020414E474C2F
:1025200000000000B4000000000000004020000097
:1025300020414E474C202020534620325F3020203F
:10254000414E474C00000000B400000000000000B5
:102550004020000020414E474C202020534620328E
:102560005F312020414E474C00000000B4000000C5
:10257000000000004020000020414E474C20202059
:10258000534620325F322020414E474C000000006D
:10259000B4000000000000004020000020414E4731
:1025A0004C202020534620325F332020414E474CA0
:1025B00000000000B4000000000000004020000007
:1025C00020414E474C202020534620325F342020AB
:1025D000414E474C00000000B40000000000000025
:1025E0004020000020414E474C20202053462032FE
:1025F0005F352020414E474C00000000B400000031
:10260000000000004020000020414E474C202020C8
:10261000534620335F302020414E474C00000000DD
:10262000B4000000000000004020000020414E47A0
:102630004C202020534620335F312020414E474C10
:1026400000000000B4000000000000004020000076
:1026500020414E474C202020534620335F3220201B
:10266000414E474C00000000B40000000000000094
:102670004020000020414E474C202020534620336C
:102680005F332020414E474C00000000B4000000A2
:10269000000000004020000020414E474C20202038
:1026A000534620335F342020414E474C0000000049
:1026B000B4000000000000004020000020414E4710
:1026C0004C202020534620335F352020414E474C7C
:1026D00000000000B40000000000000040200000E6
:1026E000434F4D414E44532054552020202020205C
:1026F0002020202000000000FAFF00000000000061
:10270000404000004156455220564F4C5420202056
:10271000202020205620202000000000F40100008E
:10272000000000004020000054454D504552205408
:102730004D50202020202020414E47209CFFFFFFAD
:102740006400000000000000402000004156455297
:1027500020435552522025202020202020202020B8
:1027600000000000FAFF00000000000040400000F0
:10277000202043555252454E5420205520252020DC
:102780002020252000000000401F00000000000065
:1027900040320000202043555252454E54202056CE
:1027A000202520202020252000000000401F0000C0
:1027B0000000000040320000202043555252454E98
:1027C0005420205720252020202025200000000014
:1027D000401F00000000000040320000204156452C
:1027E00052204355525220202020202041202020DA
:1027F00000000000401F0000000000004032000008
:102800002020504F534954494F4E20202020202053
:102810002020202000000000FAFF0000000000003F
:10282000404000002020504F534954494F4E202033
:10283000202020202020202000000000FAFF00009F
:1028400000000000404000002046554C4C205741FD
:1028500059202020202020202020202000000000BF
:10286000FAFF000000000000404000002020465514
:102870004C4C20574159202020202020202020206F
:1028800000000000FAFF00000000000040400000CF
:10289000524556455253205459504520202020205F
:1028A00020202020000000000200000002000000A4
:1028B000402000004241442020205441534B20320C
:1028C000204B485A2020202000000000FAFF000082
:1028D00000000000404000004241442020205441BC
:1028E000534B20323030485A202020200000000076
:1028F000FAFF000000000000404000004241442078
:1029000020205441534B203530485A31202020207C
:1029100000000000FAFF000000000000404000003E
:102920004241442020205441534B203530485A32F4
:102930002020202000000000FAFF0000000000001E
:10294000404000004241442020205441534B203558
:1029500030485A332020202000000000FAFF0000F9
:10296000000000004040000042414420202054412B
:10297000534B20313020485A2020202000000000F6
:10298000FAFF0000000000004040000042414420E7
:102990005441534B205245534554202020202020A1
:1029A00000000000FAFF00000000000040400000AE
:1029B0004350552054494D452020202020202020E0
:1029C0002020202000000000FAFF0000000000008E
:1029D000404000005441534B204C49535420202088
:1029E000202020202020202000000000FAFF0000EE
:1029F00000000000404000005441534B204E554D14
:102A000042455220202020202020202000000000CD
:102A1000FAFF0000000000004040000020202020BD
:102A2000205245534552562020202020202020208F
:102A300000000000FAFF000000000000404000001D
:102A4000202020202052455345525620202020206F
:102A50002020202000000000FAFF000000000000FD
:102A6000404000002020202020524553455256204F
:102A7000202020202020202000000000FAFF00005D
:102A8000000000004040000020202020205245533C
:102A90004552562020202020202020200000000029
:102AA000FAFF0000000000004040000048313134CF
:102AB0002E535441525420494E4449432020202053
:102AC000000000001D000000080000004040000061
:102AD0004C6F6745764164647220202020202020BE
:102AE0002020202000000000FAFF0000000000006D
:102AF000404000004C6F67436D6441646472202065
:102B0000202020202020202000000000FAFF0000CC
:102B100000000000404000004C6F67506172616D22
:102B2000416464722020202020202020000000002A
:102B3000FAFF000000000000404000004C6F6753A7
:102B4000696D4164647220202020202020202020F4
:102B500000000000FAFF00000000000040400000FC
:102B60004C6F674576436F756E74202020202020BF
:102B70002020202000000000FAFF000000000000DC
:102B8000404000004C6F67436D64436F756E742066
:102B9000202020202020202000000000FAFF00003C
:102BA00000000000404000004C6F67506172616D92
:102BB000436F756E7420202020202020000000002C
:102BC000FAFF000000000000404000004C6F675317
:102BD000696D436F756E74202020202020202020F6
:102BE00000000000FAFF000000000000404000006C
:102BF000202020205365636F6E64732020202020E6
:102C000020202020000000003C0000000000000008
:102C100040100000436F6E7447726F757020202063
:102C2000202020202020202000000000FAFF0000AB
:102C300000000000404000004C6F67436F6E7472EC
:102C40006F6C576F7264202020202020000000004D
:102C5000FAFF000000000000404000004C6F675287
:102C60006573657420202020202020202020202033
:102C70000000000001000000000000000040000013
:102C8000545320496E6469636174696F6E2020201B
:102C90002020202000000000FFFF000000000000B6
:102CA00040400000312020202052455345525620FC
:102CB000202020202020202000000000FAFF00001B
:102CC00000000000404000003220202020524553E8
:102CD00045525620202020202020202000000000E7
:102CE000FAFF0000000000004040000033202020D8
:102CF00020524553455256202020202020202020BD
:102D000000000000FAFF000000000000404000004A
:102D10003420202020524553455256202020202088
:102D20002020202000000000FAFF0000000000002A
:102D30004040000035202020205245534552562067
:102D4000202020202020202000000000FAFF00008A
:102D50000000000040400000362020202052455353
:102D60004552562020202020202020200000000056
:102D7000FAFF000000000000404000003720202043
:102D8000205245534552562020202020202020202C
:102D900000000000FAFF00000000000040400000BA
:102DA00038202020205245534552562020202020F4
:102DB0002020202000000000FAFF0000000000009A
:102DC00040400000392020202052455345525620D3
:102DD000202020202020202000000000FAFF0000FA
:102DE00000000000404000003130202020524553B8
:102DF00045525620202020202020202000000000C6
:102E0000FAFF0000000000004040000031312020A7
:102E1000205245534552562020202020202020209B
:102E200000000000FAFF0000000000004040000029
:102E30003132202020524553455256202020202058
:102E40002020202000000000FAFF00000000000009
:102E50004040000031332020205245534552562037
:102E6000202020202020202000000000FAFF000069
:102E70000000000040400000313420202052455323
:102E80004552562020202020202020200000000035
:102E9000FAFF000000000000404000003135202013
:102EA000205245534552562020202020202020200B
:102EB00000000000FAFF0000000000004040000099
:102EC00031362020205245534552562020202020C4
:102ED0002020202000000000FAFF00000000000079
:102EE00040400000313720202052455345525620A3
:102EF000202020202020202000000000FAFF0000D9
:102F0000000000004040000031382020205245538E
:102F100045525620202020202020202000000000A4
:102F2000FAFF00000000000040400000313920207E
:102F3000205245534552562020202020202020207A
:102F400000000000FAFF0000000000004040000008
:102F50003230202020524553455256202020202038
:102F60002020202000000000FAFF000000000000E8
:102F70004040000032312020205245534552562017
:102F8000202020202020202000000000FAFF000048
:102F90000000000040400000323220202052455303
:102FA0004552562020202020202020200000000014
:102FB000FAFF0000000000004040000032332020F3
:102FC00020524553455256202020202020202020EA
:102FD00000000000FAFF0000000000004040000078
:102FE00032342020205245534552562020202020A4
:102FF0002020202000000000FAFF00000000000058
:103000004040000032352020205245534552562082
:10301000202020202020202000000000FAFF0000B7
:10302000000000004040000032362020205245536E
:103030004552562020202020202020200000000083
:10304000FAFF00000000000040400000323720205E
:103050002052455345525620202020202020202059
:1030600000000000FAFF00000000000040400000E7
:10307000323820202052455345525620202020200F
:103080002020202000000000FAFF000000000000C7
:1030900040400000323920202052455345525620EE
:1030A000202020202020202000000000FAFF000027
:1030B00000000000404000003330202020524553E3
:1030C00045525620202020202020202000000000F3
:1030D000FAFF0000000000004040000033312020D3
:1030E00020524553455256202020202020202020C9
:1030F00000000000FAFF0000000000004040000057
:103100003332202020524553455256202020202083
:103110002020202000000000FAFF00000000000036
:103120004040000033332020205245534552562062
:10313000202020202020202000000000FAFF000096
:10314000000000004040000033342020205245534E
:103150004552562020202020202020200000000062
:10316000FAFF00000000000040400000333520203E
:103170002052455345525620202020202020202038
:1031800000000000FAFF00000000000040400000C6
:1031900033362020205245534552562020202020EF
:1031A0002020202000000000FAFF000000000000A6
:1031B00040400000333720202052455345525620CE
:1031C000202020202020202000000000FAFF000006
:1031D00000000000404000003338202020524553BA
:1031E00045525620202020202020202000000000D2
:1031F000FAFF0000000000004040000033392020AA
:1032000020524553455256202020202020202020A7
:1032100000000000FAFF0000000000004040000035
:103220003430202020524553455256202020202063
:103230002020202000000000FAFF00000000000015
:103240004040000034312020205245534552562042
:10325000202020202020202000000000FAFF000075
:10326000000000004040000034322020205245532E
:103270004552562020202020202020200000000041
:10328000FAFF00000000000040400000343320201E
:103290002052455345525620202020202020202017
:1032A00000000000FAFF00000000000040400000A5
:1032B00034342020205245534552562020202020CF
:1032C0002020202000000000FAFF00000000000085
:1032D00040400000343520202052455345525620AE
:1032E000202020202020202000000000FAFF0000E5
:1032F000000000004040000034362020205245539A
:1033000045525620202020202020202000000000B0
:10331000FAFF000000000000404000003437202089
:103320002052455345525620202020202020202086
:1033300000000000FAFF0000000000004040000014
:10334000343820202052455345525620202020203A
:103350002020202000000000FAFF000000000000F4
:103360004040000034392020205245534552562019
:10337000202020202020202000000000FAFF000054
:10338000000000004040000035302020205245530E
:103390004552562020202020202020200000000020
:1033A000FAFF0000000000004040000035312020FE
:1033B00020524553455256202020202020202020F6
:1033C00000000000FAFF0000000000004040000084
:1033D00035322020205245534552562020202020AF
:1033E0002020202000000000FAFF00000000000064
:1033F000404000003533202020524553455256208E
:10340000202020202020202000000000FAFF0000C3
:103410000000000040400000353420202052455379
:10342000455256202020202020202020000000008F
:10343000FAFF000000000000404000003535202069
:103440002052455345525620202020202020202065
:1034500000000000FAFF00000000000040400000F3
:10346000353620202052455345525620202020201A
:103470002020202000000000FAFF000000000000D3
:1034800040400000353720202052455345525620F9
:10349000202020202020202000000000FAFF000033
:1034A00000000000404000003538202020524553E5
:1034B00045525620202020202020202000000000FF
:1034C000FAFF0000000000004040000035392020D5
:1034D00020524553455256202020202020202020D5
:1034E00000000000FAFF0000000000004040000063
:1034F000363020202052455345525620202020208F
:103500002020202000000000FAFF00000000000042
:10351000404000003630202020524553455256206E
:10352000202020202020202000000000FAFF0000A2
:1035300000000000404000002020202020205449AE
:103540004D452020202020202020202000000000A9
:10355000FFFF0000000000000B10000020202020D2
:1035600020204441544520202020202020202020BD
:1035700000000000FFFF0000210000000C20000000
:1035800045302E53544154555320202020202020D4
:103590002020202000000000FFFF000000000000AD
:1035A0008A00000045312E50524F43455353204569
:1035B000525220202020202000000000FFFF0000A9
:1035C000000000000A09000045322E564F4C5420DE
:1035D0004552524F52202020202020200000000081
:1035E000FFFF0000000000008A11000045332E4359
:1035F000555252454E542045525220202020202022
:1036000000000000FFFF0000000000000A1A000098
:1036100045342E44455649434520455252202020EA
:103620002020202000000000FAFF00000000000021
:103630008A22000045352E504F534954494F4E20A1
:10364000202020202520202018FCFFFFD00700008C
:1036500000000000883200002020202045362E5433
:103660004F52514520202020202020200A00000019
:10367000F82A00000A0000000840000045372E56D6
:103680004F4C54204C312020202020205620202038
:1036900000000000F401000000000000082000000D
:1036A00045382E564F4C54204C32202020202020CC
:1036B0005620202000000000F4010000000000005F
:1036C0000820000045392E564F4C54204C33202002
:1036D000202020205620202000000000F4010000BF
:1036E00000000000082000004531302E43555252A2
:1036F000454E54202055202041202020000000006D
:10370000401F000000000000083200004531312E4B
:1037100043555252454E542020562020412020200F
:1037200000000000401F0000000000000832000000
:103730004531322E43555252454E542020572020B9
:103740004120202000000000401F00000000000079
:10375000083200004531332E54454D50455220204B
:1037600020202020202020209CFFFFFF640000005C
:1037700000000000882000004531342E494E2053BF
:10378000544154452020202020202020000000000B
:10379000FFFF0000000000000A2B00004531352E1D
:1037A0004F555420535441544520202020202020A0
:1037B00000000000FFFF0000000000008A3300004E
:1037C0002020204531362E52455345525620202088
:1037D0002020202000000000FFFF0000000000006B
:1037E000084000002020204531372E5245534552D5
:1037F000562020202020202000000000FFFF000095
:1038000000000000084000002020204531382E52E2
:103810004553455256202020202020200000000043
:10382000FFFF0000000000000840000020202045AD
:1038300032302E5245534552562020202020202041
:1038400000000000FFFF0000000000000840000032
:103850002020204532312E524553455256202020FB
:103860002020202000000000FFFF000000000000DA
:10387000084000002020204532322E524553455248
:10388000562020202020202000000000FFFF000004
:1038900000000000084000002020204532332E5256
:1038A00045534552562020202020202000000000B3
:1038B000FFFF00000000000008400000202020451D
:1038C00032342E52455345525620202020202020AD
:1038D00000000000FFFF00000000000008400000A2
:1038E0002020204532352E52455345525620202067
:1038F0002020202000000000FFFF0000000000004A
:10390000084000002020204532362E5245534552B3
:10391000562020202020202000000000FFFF000073
:1039200000000000084000002020204532372E52C1
:103930004553455256202020202020200000000022
:10394000FFFF00000000000008400000202020458C
:1039500032382E5245534552562020202020202018
:1039600000000000FFFF0000000000000840000011
:103970002020204532392E524553455256202020D2
:103980002020202000000000FFFF000000000000B9
:10399000084000002DE9F843040001F011FD070084
:1039A000002C01D1012086E2DFF8109520684845FF
:1039B0004AD02068DFF80815884245D02068DFF833
:1039C0000415884240D02068DFF8FC1488423BD0C0
:1039D0002068DFF8F814884236D02068DFF8F01449
:1039E000884231D02068DFF8EC1488422CD020685F
:1039F000DFF8E414884227D02068DFF8E01488421A
:103A000022D02068DFF8D81488421DD02068DFF863
:103A1000D414884218D02068DFF8CC14884213D020
:103A20002068DFF8C81488420ED02068DFF8C01480
:103A3000884209D02068DFF8BC14884204D020688E
:103A4000DFF8B414884201D1012000E00020C0B2A8
:103A5000002800F0E580606A0028002084F8340027
:103A6000022084F83500206848454AD02068DFF8F5
:103A70005014884245D02068DFF84814884240D06E
:103A80002068DFF8441488423BD02068DFF83C14FB
:103A9000884236D02068DFF83814884231D0206858
:103AA000DFF8301488422CD02068DFF82C148842CC
:103AB00027D02068DFF82414884222D02068DFF85D
:103AC000201488421DD02068DFF81814884218D0CE
:103AD0002068DFF81414884213D02068DFF80C1433
:103AE00088420ED02068DFF80814884209D0206888
:103AF000DFF80014884204D02068DFF8FC13884205
:103B000006D120680068400840002168086005E090
:103B1000206800684008400021680860206800684C
:103B2000C0070BD501F04CFCC01B0628F6D32020A3
:103B30006065032084F835000120BCE1206801683D
:103B4000DFF8B8030140A0680143E0680143206941
:103B5000014360690143A0690143E0690143206AB0
:103B60000143606A042803D1E06A0143206B0143EA
:103B7000DFF88C030068000C0004B0F1005F1FD375
:103B80006068292802D360682F2811D360683F2815
:103B900002D3606843280BD36068472802D360686B
:103BA000492805D360684F2804D36068532801D2A0
:103BB000012000E00020C0B2002801D051F48011A3
:103BC000206801602068D0F814805FEAD8085FEAB6
:103BD000C808606A50EA0808606A042811D1A06A1F
:103BE00050EA0808E06A00280BD0200001F0C0FA73
:103BF000002806D040206065012084F835000120AF
:103C000059E12068C0F81480200001F037FA05005F
:103C10003F2094F85C1011F01F018840A860A2E0DA
:103C2000DFF8E0122068884222D02068DFF8D8222E
:103C300090421DD02068DFF8D422904218D020682E
:103C4000DFF8CC22904213D02068DFF8C8229042DF
:103C50000ED02068DFF8C022904209D02068DFF83B
:103C6000BC22904204D02068DFF89826904201D10F
:103C7000012000E00020C0B200286DD020688842FA
:103C800022D02068DFF8801288421DD02068DFF83B
:103C90007C12884218D02068DFF87412884213D052
:103CA0002068DFF8701288420ED02068DFF86812B2
:103CB000884209D02068DFF86412884204D0206866
:103CC000DFF84016884201D1012000E00020C0B298
:103CD0000028002084F83400022084F83500206891
:103CE000D0F800806FF31018A068402801D1102090
:103CF00006E0A068802802D14FF4804000E0002058
:103D000050EA0808E06858EAD008206958EAD00864
:103D1000606958EAD008A06958EAD008E06958EA12
:103D2000D008206A58EA10182068C0F8008021687E
:103D3000DFF8EC0141181420B1FBF0F08000E065E1
:103D4000200001F09BF90600012094F85C1011F0AE
:103D50001F018840706006E040206065032084F801
:103D600035000120A7E02068484572D02068DFF8C0
:103D7000501188426DD02068DFF84811884268D021
:103D80002068DFF84411884263D02068DFF83C11D6
:103D900088425ED02068DFF83811884259D0206808
:103DA000DFF83011884254D02068DFF82C118842A7
:103DB0004FD02068DFF8241188424AD02068DFF80D
:103DC0002011884245D02068DFF81811884240D081
:103DD0002068DFF8141188423BD02068DFF80C110E
:103DE000884236D02068DFF80811884231D0206838
:103DF000DFF8001188422CD02068DFF8FC108842E0
:103E000027D02068DFF8FC10884222D02068DFF835
:103E1000F81088421DD02068DFF8F010884218D0D2
:103E20002068DFF8EC10884213D02068DFF8E41037
:103E300088420ED02068DFF8E010884209D0206860
:103E4000DFF8D810884204D02068DFF8B814884220
:103E500001D1012000E00020C0B2002825D02000C0
:103E600001F0D3F9A068802801D10020606020799A
:103E700000F0FF00216E0860A06E616E486060680F
:103E800000280CD06068092809D2200001F013FA3C
:103E90000020E16E0860606F216F486005E000203F
:103EA000E066002020670020606700206065012038
:103EB00084F835000020BDE8F283000010000240C5
:103EC00028000240400002405800024070000240BA
:103ED00088000240A0000240B800024010040240E6
:103EE000280402404004024058040240700402408A
:103EF00088040240A0040240B80402403F8010FE43
:103F00000010005C085402581C54025830540258E7
:103F100044540258585402586C5402588054025861
:103F2000F8ABFDA72DE9F84304000D0016001F00B3
:103F30005FF00008002C01D10120E0E194F834008A
:103F4000012801D10220DAE1012084F8340094F83C
:103F50003500012840F0C981022084F83500002096
:103F60006065DFF8A493206848454AD02068DFF8F0
:103F70009C13884245D02068DFF89413884240D0D3
:103F80002068DFF8901388423BD02068DFF8881360
:103F9000884236D02068DFF88413884231D0206808
:103FA000DFF87C1388422CD02068DFF87813884231
:103FB00027D02068DFF87013884222D02068DFF80D
:103FC0006C1388421DD02068DFF86413884218D033
:103FD0002068DFF86013884213D02068DFF8581398
:103FE00088420ED02068DFF85413884209D0206838
:103FF000DFF84C13884204D02068DFF84813884269
:1040000006D120680068400840002168086005E08B
:104010002068006840084000216808603B003200CA
:104020002900200000F0EEFE206848454AD02068B4
:10403000DFF8D812884245D02068DFF8D4128842D1
:1040400040D02068DFF8CC1288423BD02068DFF8EF
:10405000C812884236D02068DFF8C012884231D0BA
:104060002068DFF8BC1288422CD02068DFF8B41238
:10407000884227D02068DFF8B012884222D020681A
:10408000DFF8A81288421DD02068DFF8A412884209
:1040900018D02068DFF89C12884213D02068DFF81F
:1040A000981288420ED02068DFF89012884209D01A
:1040B0002068DFF88C12884204D02068DFF8841270
:1040C000884201D1012000E00020C0B2002811D0B8
:1040D0002068006830F01E0050F01600216808606B
:1040E000206C002817D02068006850F00800216874
:1040F000086010E02068006830F00E0050F00A0000
:1041000021680860206C002805D02068006850F005
:104110000400216808602068484571D02068DFF8F5
:10412000EC1188426CD02068DFF8E411884267D037
:104130002068DFF8E011884262D02068DFF8D811EB
:1041400088425DD02068DFF8D411884258D02068BA
:10415000DFF8CC11884253D02068DFF8C8118842BC
:104160004ED02068DFF8C011884249D02068DFF8BF
:10417000BC11884244D02068DFF8B41188423FD097
:104180002068DFF8B01188423AD02068DFF8A81123
:10419000884235D02068DFF8A411884230D02068EA
:1041A000DFF89C1188422BD02068DFF898118842F4
:1041B00026D02068DFF89011884221D02068DFF8EF
:1041C0008C1188421CD02068DFF88411884217D0F7
:1041D0002068DFF88011884212D02068DFF878115B
:1041E00088420DD02068DFF87411884208D020681A
:1041F000DFF86C11884203D020684249884201D11F
:10420000012000E00020C0B2002812D0206E00681B
:10421000C00305D5206E006850F48070216E0860E0
:10422000E06E002805D0E06E006850F48070E16E0A
:104230000860206848454AD02068DFF8D0108842DE
:1042400045D02068DFF8C810884240D02068DFF8E9
:10425000C41088423BD02068DFF8BC10884236D0BA
:104260002068DFF8B810884231D02068DFF8B0103D
:1042700088422CD02068DFF8AC10884227D0206814
:10428000DFF8A410884222D02068DFF8A01088420E
:104290001DD02068DFF89810884218D02068DFF819
:1042A0009410884213D02068DFF88C1088420ED01A
:1042B0002068DFF88810884209D02068DFF8801075
:1042C000884204D02068DFF87C10884206D120683C
:1042D000006850F00100216808600EE02068006866
:1042E00050F001002168086007E0002084F83400E5
:1042F0004FF400606065012080464046C0B2BDE8D2
:10430000F28300009454025810000240280002403A
:104310004000024058000240700002408800024005
:10432000A0000240B80002401004024028040240ED
:1043300040040240580402407004024088040240D5
:10434000A0040240B8040240085402581C54025809
:104350003054025844540258585402586C5402586D
:10436000805402582DE9F84F040000200090DFF837
:10437000500A00684FF41651B0FBF1F6A76DD4F85F
:104380005880D7F80090D8F800A0DFF838BA206835
:1043900058454AD02068DFF8301A884245D0206856
:1043A000DFF8281A884240D02068DFF8241A8842B3
:1043B0003BD02068DFF81C1A884236D02068DFF82E
:1043C000181A884231D02068DFF8101A88422CD0A1
:1043D0002068DFF80C1A884227D02068DFF8041A1A
:1043E000884222D02068DFF8001A88421DD0206859
:1043F000DFF8F819884218D02068DFF8F4198842ED
:1044000013D02068DFF8EC1988420ED02068DFF85E
:10441000E819884209D02068DFF8E019884204D002
:104420002068DFF8DC19884201D1012000E000207B
:10443000C0B2002800F02483082194F85C0010F03A
:104440001F0011FA00F019EA000F68D020685845E3
:104450004AD02068DFF87029904245D02068DFF804
:104460006C29904240D02068DFF8642990423BD00C
:104470002068DFF86029904236D02068DFF858299C
:10448000904231D02068DFF8542990422CD0206827
:10449000DFF84C29904227D02068DFF84829904265
:1044A00022D02068DFF8402990421DD02068DFF834
:1044B0003C29904218D02068DFF83429904213D06C
:1044C0002068DFF8302990420ED02068DFF82829D4
:1044D000904209D02068DFF82429904204D0206857
:1044E000DFF81C29904204D12068006810F0040015
:1044F00003E02068006810F0080000280FD0206852
:10450000006830F004002268106094F85C0010F03D
:104510001F008140B960606D50F00100606594F843
:104520005C0010F01F004946C140C80762D52068F2
:1045300058454AD02068DFF89018884245D0206856
:10454000DFF88818884240D02068DFF88418884255
:104550003BD02068DFF87C18884236D02068DFF82E
:104560007818884231D02068DFF8701888422CD043
:104570002068DFF86C18884227D02068DFF86418BC
:10458000884222D02068DFF8601888421DD0206859
:10459000DFF85818884218D02068DFF8541888428D
:1045A00013D02068DFF84C1888420ED02068DFF85E
:1045B0004818884209D02068DFF84018884204D0A3
:1045C0002068DFF83C18884204D12068406910F068
:1045D000800002E020680068002000280AD0012046
:1045E00094F85C1011F01F018840B860606D50F0C5
:1045F00002006065042194F85C0010F01F0011FABD
:1046000000F019EA000F61D0206858454AD02068B0
:10461000DFF8B427904245D02068DFF8B0279042F9
:1046200040D02068DFF8A82790423BD02068DFF810
:10463000A427904236D02068DFF89C27904231D0E2
:104640002068DFF8982790422CD02068DFF8902768
:10465000904227D02068DFF88C27904222D0206833
:10466000DFF8842790421DD02068DFF88027904231
:1046700018D02068DFF87827904213D02068DFF840
:10468000742790420ED02068DFF86C27904209D042
:104690002068DFF86827904204D02068DFF86027A0
:1046A000904204D12068006810F0020002E0206807
:1046B00000680020002809D094F85C0010F01F006A
:1046C0008140B960606D50F004006065102194F87D
:1046D0005C0010F01F0011FA00F019EA000F00F062
:1046E0008580206858454AD02068DFF8DC26904253
:1046F00045D02068DFF8D426904240D02068DFF80B
:10470000D02690423BD02068DFF8C826904236D0B1
:104710002068DFF8C426904231D02068DFF8BC263C
:1047200090422CD02068DFF8B826904227D020682D
:10473000DFF8B026904222D02068DFF8AC26904205
:104740001DD02068DFF8A426904218D02068DFF83A
:10475000A026904213D02068DFF8982690420ED011
:104760002068DFF89426904209D02068DFF88C2674
:10477000904204D02068DFF88826904204D1206857
:10478000006810F0080003E02068006810F00400E2
:1047900000282BD094F85C0010F01F008140B96015
:1047A00020680068400311D520680068000306D423
:1047B000206C00281AD02000216C884716E0A06CDD
:1047C000002813D02000A16C88470FE02068006803
:1047D000C00505D42068006830F008002168086032
:1047E000206C002802D02000216C8847202194F8FA
:1047F0005C0010F01F0011FA00F019EA000F00F041
:10480000BB80206858454AD02068DFF8BC2590421C
:1048100045D02068DFF8B425904240D02068DFF80A
:10482000B02590423BD02068DFF8A825904236D0D2
:104830002068DFF8A425904231D02068DFF89C255D
:1048400090422CD02068DFF89825904227D020682D
:10485000DFF89025904222D02068DFF88C25904226
:104860001DD02068DFF88425904218D02068DFF83A
:104870008025904213D02068DFF8782590420ED032
:104880002068DFF87425904209D02068DFF86C2595
:10489000904204D02068DFF86825904204D1206857
:1048A000006810F0100003E02068006810F00200BB
:1048B000002861D094F85C0010F01F008140B960BE
:1048C00094F8350004282BD12068006830F01600D9
:1048D000216808602068406930F0800021684861E4
:1048E000206C002802D1A06C002805D02068006848
:1048F00030F00800216808603F2094F85C1011F047
:104900001F018840B860002084F83400012084F83A
:104910003500206D002802D02000216D88474DE22F
:1049200020680068400311D520680068000306D4A1
:10493000606C002820D02000616C88471CE0E06B90
:10494000002819D02000E16B884715E02068006836
:10495000C0050BD42068006830F0100021680860A2
:10496000002084F83400012084F83500E06B002832
:1049700002D02000E16B8847606D002800F01E82A5
:10498000606DC00774D5042084F835002068584550
:104990004AD02068DFF83014884245D02068DFF81C
:1049A0002C14884240D02068DFF8241488423BD081
:1049B0002068DFF82014884236D02068DFF8181409
:1049C000884231D02068DFF8141488422CD0206847
:1049D000DFF80C14884227D02068DFF808148842DA
:1049E00022D02068DFF8001488421DD02068DFF84C
:1049F000FC13884218D02068DFF8F413884213D0E3
:104A00002068DFF8F01388420ED02068DFF8E81342
:104A1000884209D02068DFF8E413884204D0206877
:104A2000DFF8DC13884206D12068006840084000A7
:104A30002168086005E0206800684008400021689F
:104A400008600098401C0090864203D320680068EC
:104A5000C007F6D4002084F8340020680068C0073E
:104A600003D5032084F8350002E0012084F83500E6
:104A7000E06C002800F0A2812000E16C88479DE1F5
:104A80002068DFF8CC16884222D02068DFF8C416F0
:104A900088421DD02068DFF8C016884218D02068F0
:104AA000DFF8B816884213D02068DFF8B4168842C1
:104AB0000ED02068DFF8AC16884209D02068DFF8F5
:104AC000A816884204D02068DFF8A016884201D1D9
:104AD000012000E00020C0B2002800F06F812068B3
:104AE00000680500042094F85C1011F01F0110FA12
:104AF00001F11AEA010F72D0690770D594F85C10C1
:104B000011F01F018840C8F80400280411D5E803FB
:104B100007D4A06C002800F051812000A16C8847C8
:104B20004CE1206C002800F049812000216C88476E
:104B300044E1A8064BD4206858453BD02068A249E0
:104B4000884237D02068A149884233D02068A049E4
:104B500088422FD020689F4988422BD020689E49E8
:104B6000884227D020689D49884223D020689C49EC
:104B700088421FD020689B4988421BD020689A49F0
:104B8000884217D020689949884213D020689849F4
:104B900088420FD02068974988420BD020689649F8
:104BA000884207D020689549884203D020689449FC
:104BB000884206D12068006830F00800216808604B
:104BC00005E02068006830F0040021680860206C6F
:104BD000002800F0F3802000216C8847EEE00220DE
:104BE00094F85C1011F01F0110FA01F11AEA010F9C
:104BF00077D0A90775D594F85C1011F01F01884093
:104C0000C8F80400280411D5E80307D4606C002814
:104C100000F0D4802000616C8847CFE0E06B002872
:104C200000F0CC802000E16B8847C7E0A80651D493
:104C3000206858453BD020686349884237D02068B7
:104C40006249884233D02068614988422FD0206869
:104C5000604988422BD020685F49884227D020686D
:104C60005E49884223D020685D4988421FD0206871
:104C70005C4988421BD020685B49884217D0206875
:104C80005A49884213D02068594988420FD0206879
:104C9000584988420BD020685749884207D020687D
:104CA0005649884203D020685549884206D1206879
:104CB000006830F014002168086005E02068006892
:104CC00030F00A0021680860002084F834000120D8
:104CD00084F83500E06B002870D02000E16B884735
:104CE0006CE0082094F85C1011F01F0188401AEA6B
:104CF000000F63D0280761D5206858453BD0206855
:104D00003149884237D020683049884233D0206802
:104D10002F4988422FD020682E4988422BD0206806
:104D20002D49884227D020682C49884223D020680A
:104D30002B4988421FD020682A4988421BD020680E
:104D40002949884217D020682849884213D0206812
:104D5000274988420FD02068264988420BD0206816
:104D60002549884207D020682449884203D020681A
:104D70002349884206D12068006830F01C00216871
:104D8000086005E02068006830F00E0021680860C7
:104D9000012094F85C1011F01F018840C8F804004D
:104DA00001206065002084F83400012084F835007B
:104DB000E06C002802D02000E16C8847BDE8F18F4C
:104DC000140200241000024028000240400002406B
:104DD000580002407000024088000240A0000240DB
:104DE000B80002401004024028040240400402407F
:104DF000580402407004024088040240A0040240AB
:104E0000B8040240F0B4856D866DDFF82C75046837
:104E1000BC4272D00468DFF824C564456DD00468D4
:104E2000DFF81CC5644568D00468DFF818C5644520
:104E300063D00468DFF810C564455ED00468DFF80D
:104E40000CC5644559D00468DFF804C5644554D0E6
:104E50000468DFF800C564454FD00468DFF8F8C483
:104E600064454AD00468DFF8F4C4644545D004685A
:104E7000DFF8ECC4644540D00468DFF8E8C464455A
:104E80003BD00468DFF8E0C4644536D00468DFF83E
:104E9000DCC4644531D00468DFF8D4C464452CD048
:104EA0000468DFF8D0C4644527D00468DFF8A0C2E6
:104EB000644522D00468DFF89CC264451DD00468B4
:104EC000DFF894C2644518D00468DFF890C26445E6
:104ED00013D00468DFF888C264450ED00468DFF898
:104EE00084C2644509D00468DFF87CC2644504D0FC
:104EF0000468DFF884C4644501D1012400E0002483
:104F0000E4B2002C0CD0846ED0F864C0CCF804401D
:104F1000C46E002C04D0446FD0F870C0CCF80440AC
:104F20000468BC424AD00468DFF81074BC4245D023
:104F30000468DFF80C74BC4240D00468DFF80474E5
:104F4000BC423BD00468DFF80074BC4236D0046831
:104F5000DFF8F873BC4231D00468DFF8F473BC4268
:104F60002CD00468DFF8EC73BC4227D00468DFF86B
:104F7000E873BC4222D00468DFF8E073BC421DD065
:104F80000468DFF8DC73BC4218D00468DFF8D4731F
:104F9000BC4213D00468DFF8D073BC420ED0046862
:104FA000DFF8C873BC4209D00468DFF8C473BC42A0
:104FB00004D00468DFF8BC73BC4201D1012400E0D6
:104FC0000024E4B2002C1BD03F2490F85C7017F052
:104FD0001F07BC40AC600468246834F48024076870
:104FE0003C60046863608468402C04D10468A2605B
:104FF0000468E16040E00468A1600468E2603BE0AE
:105000000468534FBC421CD00468524FBC4218D0B5
:105010000468514FBC4214D00468504FBC4210D0B9
:1050200004684F4FBC420CD004684E4FBC4208D0BD
:1050300004684D4FBC4204D00468DFF83C73BC42A6
:1050400001D1012400E00024E4B2002C14D001249A
:1050500090F85C7017F01F07BC40746004686360D0
:105060008468402C04D10468A2600468E16003E015
:105070000468A1600468E260F0BC70470168DFF872
:10508000B82291423ED00168DFF8B022914239D077
:105090000168DFF8AC22914234D00168DFF8A42225
:1050A00091422FD00168A84A91422BD00168A74AAB
:1050B000914227D00168A64A914223D00168A54AAF
:1050C00091421FD00168A44A91421BD00168A34AB3
:1050D000914217D00168A24A914213D00168A14AB7
:1050E00091420FD00168A04A91420BD001689F4ABB
:1050F000914207D001689E4A914203D001689D4ABF
:10510000914201D1012100E00021C9B2002918D04B
:10511000017801F0FF0110391822B1FBF2F1974A32
:1051200011F00703D25CC265042905D30268920A14
:105130009202121D826508E00268920A920282655C
:1051400003E00168090A09028165806D704700006B
:10515000085402581C5402583054025844540258FF
:10516000585402586C5402588054025894540258AF
:10517000020000209169002917D1916A002905D009
:10518000022903D008D303290DD00DE0D16AC9014B
:1051900001D50121080036E0D16AB1F1C07F01D10B
:1051A000012108002FE02EE02DE09169B1F5005FAC
:1051B00019D1916A002905D0022903D005D303290A
:1051C00009D00FE0012108001DE0D16AC90101D515
:1051D0000121080017E0D16AB1F1C07F01D101219E
:1051E000080010E00FE0916A0029022902D9C91EC7
:1051F00003D008E00121080005E0D16AC90101D50A
:1052000001210800FFE7C0B2704710B402680168CE
:105210005B4B99421BD001685A4B994217D00168E9
:10522000594B994213D00168584B99420FD00168ED
:10523000574B99420BD00168564B994207D00168F1
:10524000554B994203D001684B4B994201D1012142
:1052500000E00021C9B2002912D0017801F0FF015D
:1052600008391423B1FBF3F34C4911EB83010166B8
:105270004B494166012413F01F018C40846618E0FD
:10528000017801F0FF0110391823B1FBF3F3454910
:105290008A4203D230498A4200D30833424911EB93
:1052A0008301016641494166012413F01F018C40CE
:1052B000846610BC7047017901F0FF01002939D0E4
:1052C000092937D202682E4B9A421BD002682D4B17
:1052D0009A4217D002682C4B9A4213D002682B4B8B
:1052E0009A420FD002682A4B9A420BD00268294B8F
:1052F0009A4207D00268284B9A4203D002681E4B9C
:105300009A4201D1012200E00022D2B2002A06D046
:10531000274A12EB8102C266264A026705E0264A46
:1053200012EB8102C266254A0267012311F1FF02D6
:10533000934043677047000010000240280002407D
:1053400040000240580002407000024088000240C5
:10535000A0000240B80002401004024028040240AD
:105360004004024058040240700402408804024095
:10537000A0040240B8040240945402589C1F010843
:10538000085402581C5402583054025844540258CD
:10539000585402586C54025880540258005802580D
:1053A00080580258B90402400008024080080240B8
:1053B000FC58025840590258FC080240400902407B
:1053C00001480068704700BF301B00242DE9F843F6
:1053D000040000275FF000082068000131D5606EEE
:1053E000002809D0B0F5801F0DD0B0F5001F10D0F7
:1053F000B0F5401F14D014E0DFF8380A016851F40A
:10540000003101600FE00221201D01F0A3FB070025
:1054100009E0022114F1240001F02AFC070002E057
:1054200001E0012007003800C0B2002808D1DFF8F1
:10543000081A0A6832F44012606E02430A6000E003
:10544000B8462068C0052FD5606D002806D0022818
:1054500011D00AD3042816D014D315E0DFF8D409EC
:10546000016851F40031016010E00021201D01F0BD
:1054700071FB07000AE0002114F1240001F0F8FBA1
:10548000070003E002E001E0012007003800C0B29D
:10549000002808D1DFF8A0190A68D208D200606D90
:1054A00002430A6000E0B8462068800532D5A06D4E
:1054B000002809D040280ED0802812D0C02817D04C
:1054C000B0F5807F15D015E0DFF86809016851F468
:1054D0000031016010E00021201D01F03BFB0700BE
:1054E0000AE0002114F1240001F0C2FB070003E0F0
:1054F00002E001E0012007003800C0B2002808D116
:10550000DFF834190A6832F4E072A06D02430A60D1
:1055100000E0B8462068400537D5D4F8A40000283C
:105520000CD0B0F5001F10D0B0F5800F13D0B0F53F
:10553000C00F17D0B0F5000F15D015E0DFF8F40854
:10554000016851F40031016010E00021201D01F0DC
:1055500001FB07000AE0002114F1240001F088FBA0
:10556000070003E002E001E0012007003800C0B2BC
:10557000002809D1DFF8C4180A6832F46002D4F8B0
:10558000A40002430A6000E0B8462068000537D551
:10559000D4F8A80000280CD0B0F1807F10D0B0F172
:1055A000007F13D0B0F1407F17D0B0F1806F15D0DD
:1055B00015E0DFF88008016851F40031016010E067
:1055C0000021201D01F0C6FA07000AE0002114F1B5
:1055D000240001F04DFB070003E002E001E00120A0
:1055E00007003800C0B2002809D1DFF850180A6857
:1055F00032F0E062D4F8A80002430A6000E0B84646
:105600002068800128D5A06C002814D0102804D070
:10561000202809D030280DD00EE0DFF818080168E6
:1056200051F40031016009E00221201D01F092FADD
:10563000070003E002E001E0012007003800C0B2EB
:10564000002808D1DFF8F8170A6832F03002A06CA1
:1056500002430A6000E0B8462068C00435D5E06D1A
:1056600000280CD0B0F5805F10D0B0F5005F13D0EB
:10567000B0F5405F17D0B0F5804F15D015E0DFF8DA
:10568000B407016851F40031016010E00021201DD1
:1056900001F060FA07000AE0002114F1240001F093
:1056A000E7FA070003E002E001E00120070038000C
:1056B000C0B2002808D1DFF880170A6832F4E0424F
:1056C000E06D02430A6000E0B8462068800433D5EC
:1056D000206E00280FD0B0F5803F0DD0B0F5003F10
:1056E00010D0B0F5403F14D0B0F5802F12D0B0F5F7
:1056F000A02F10D010E011E00121201D01F02AFAA6
:1057000007000BE0012114F1240001F0B1FA0700B9
:1057100004E003E002E001E0012007003800C0B22D
:10572000002808D1DFF810170A6832F4E022206E52
:1057300002430A6000E0B8462068400435D5D4F83A
:10574000AC0000280FD0B0F1805F0DD0B0F1005F49
:1057500010D0B0F1405F14D0B0F1804F12D0B0F152
:10576000A04F10D010E011E00121201D01F0F2F94E
:1057700007000BE0012114F1240001F079FA070081
:1057800004E003E002E001E0012007003800C0B2BD
:10579000002809D1DFF8A4160A6832F0E042D4F8F4
:1057A000AC0002430A6000E0B8462068000427D538
:1057B000E06E002813D0B0F1805F03D0B0F1005F3D
:1057C00007D00DE0DFF86C06016851F4003101608C
:1057D00008E00121201D01F0BDF9070002E001E011
:1057E000012007003800C0B2002808D1DFF84816B1
:1057F0000A6832F04052E06E02430A6000E0B846A8
:105800002068C00127D5606C002813D002280AD078
:1058100002D303280DD00EE0DFF81806016851F41A
:105820000031016009E00221201D01F093F9070019
:1058300003E002E001E0012007003800C0B20028C8
:1058400008D1DFF8FC150A6892089200606C0243E8
:105850000A6000E0B8462068400279D5DFF8E49598
:10586000D9F8000050F48070C9F80000FFF7A8FDD7
:105870000600D9F80000C00506D4FFF7A1FD801B83
:105880006528F6D3032007003800C0B200285ED197
:10589000DFF8B495D9F8000010F44070D4F8B010D7
:1058A00011F44071884212D0D9F8000030F44070F1
:1058B0000500D9F8000050F48030C9F80000D9F88C
:1058C000000030F48030C9F80000C9F80050D4F866
:1058D000B000B0F5807F0FD1FFF772FD0600D9F858
:1058E0000000800708D4FFF76BFD801B41F289316F
:1058F0008842F4D3032007003800C0B2002824D126
:10590000D4F8B00010F44070B0F5407F0DD1DFF84E
:105910003C05016831F47C51D4F8B020DFF8303513
:1059200013EA12131943016005E0DFF8200501684E
:1059300031F47C510160D9F80000D4F8B0100905A9
:10594000090D0843C9F8000002E0B84600E0B84677
:105950002078C0072ED5A06F00280AD0082809D0CB
:1059600010280DD0182812D0202811D0282810D0A7
:1059700010E011E00121201D01F0ECF807000BE020
:10598000012114F1240001F073F9070004E003E0A1
:1059900002E001E0012007003800C0B2002808D171
:1059A000DFF8B0140A6832F03802A06F02430A60D0
:1059B00000E0B846207880072CD5606F002808D01A
:1059C00002280DD006D3042812D010D3052810D0F9
:1059D00010E011E00121201D01F0BCF807000BE0F0
:1059E000012114F1240001F043F9070004E003E071
:1059F00002E001E0012007003800C0B2002808D111
:105A0000DFF850140A68D208D200606F02430A60BF
:105A100000E0B846207840072ED5D4F89000002842
:105A200008D002280DD006D3042812D010D30528A0
:105A300010D010E011E00121201D01F08BF80700CB
:105A40000BE0012114F1240001F012F9070004E039
:105A500003E002E001E0012007003800C0B20028A6
:105A600009D1DFF8D8130A68D208D200D4F8900020
:105A700002430A6000E0B8462078800635D5D4F8A5
:105A80008C0000280FD0B0F1805F0DD0B0F1005F26
:105A900010D0B0F1405F14D0B0F1804F12D0B0F10F
:105AA000A04F10D010E011E00021201D01F052F8AD
:105AB00007000BE0022114F1240001F0D9F80700DF
:105AC00004E003E002E001E0012007003800C0B27A
:105AD000002809D1DFF87C130A6832F0E042D4F8DC
