:020000040800F2
:10000000C0570024C5DB000839DA00083BDA0008D5
:100010003DDA00083FDA000841DA0008000000007D
:1000200000000000000000000000000043DA0008AB
:1000300045DA00080000000047DA000849DA000845
:10004000D5DB0008D9DB0008DDDB0008E1DB0008B8
:10005000E5DB0008E9DB0008EDDB0008F1DB000868
:10006000F5DB0008F9DB0008FDDB000801DC000817
:100070004DDA000805DC000853DA000809DC000846
:100080000DDC000811DC000859DA000815DC000856
:1000900019DC00081DDC000821DC000825DC000854
:1000A00029DC00082DDC000831DC000835DC000804
:1000B0005FDA000839DC00083DDC000841DC00089C
:1000C00045DC000849DC00084DDC000851DC000874
:1000D00055DC000859DC00085DDC000861DC000824
:1000E00065DC000869DC0008000000006DDC000829
:1000F00071DC000875DC000879DC00087DDC000894
:1001000081DC000885DC000889DC00088DDC000843
:1001100091DC000895DC000899DC00089DDC0008F3
:10012000A1DC0008A5DC0008A9DC0008ADDC0008A3
:10013000B1DC0008B5DC0008B9DC0008BDDC000853
:1001400000000000000000000000000000000000AF
:10015000C1DC0008C5DC0008C9DC0008CDDC0008F3
:10016000D1DC0008D5DC0008D9DC0008DDDC0008A3
:10017000E1DC0008E5DC0008E9DC00080000000024
:10018000EDDC0008F1DC0008F5DC0008F9DC000813
:10019000FDDC000801DD000805DD000809DD0008C0
:1001A0000DDD000811DD000815DD000819DD00086F
:1001B0001DDD000821DD000825DD000829DD00081F
:1001C0002DDD000831DD000835DD000839DD0008CF
:1001D0003DDD000841DD000845DD000849DD00087F
:1001E0004DDD000851DD000855DD000859DD00082F
:1001F0005DDD000861DD000865DD000869DD0008DF
:100200006DDD000871DD000875DD000879DD00088E
:100210007DDD000881DD000885DD000889DD00083E
:100220008DDD000891DD000895DD0008000000006C
:1002300099DD00089DDD0008000000008BDA000851
:10024000A1DD0008A5DD0008A9DD0008ADDD00087E
:10025000B1DD0008B5DD0008B9DD0008BDDD00082E
:10026000C1DD0008C5DD0008C9DD0008CDDD0008DE
:10027000D1DD0008D5DD0008D9DD00080000000050
:10028000DDDD0008E1DD0008E5DD0008000000001C
:1002900000000000E9DD00082020203120C3D0D379
:1002A000CFCFC02020202020C8CDC4C8CAC0D6C807
:1002B000DF20202020202020000000002800000057
:1002C0002020203220C3D0D3CFCFC0202020202018
:1002D000CDC0D1D2D0CEC9CAC820CFCECBDCC720AA
:1002E00028000000320000002020203320C3D0D39B
:1002F000CFCFC02020202020CDC0D1D2D0CEC9CA9F
:10030000C820C7C0C2CEC4205A0000000C000000A4
:100310002020203420C3D0D3CFCFC02020202020C5
:10032000CACECCC0CDC4DB2020202020202020201D
:10033000660000001300000041302ED1D2C0D2D39D
:10034000D12020202020202020202020000000007C
:10035000FAFF0000000000008A00000041312EC0BA
:10036000C2C0D020CFD0CED6C5D1D1C02020202031
:1003700000000000FAFF0000000000000A09000071
:1003800041322EC0C2C0D020D1C5D2C820202020EA
:100390002020202000000000FAFF000000000000E4
:1003A0008A11000041332EC0C2C0D020CDC0C3D0BE
:1003B000D3C7CAC82020202000000000FAFF000098
:1003C000000000000A1A000041342EC0C2C0D02034
:1003D000D3D1D2D0CEC9D1D220202020000000001D
:1003E000FAFF0000000000008A22000041352EC202
:1003F000D5CEC4C02020D2D32020202020202020F1
:1004000000000000FAFF0000000000000A2B0000BE
:1004100041362EC2DBD5CEC4C020D2D12020202030
:100420002020202000000000FAFF00000000000053
:100430008A33000041372ECFCECBCEC620DDCDCAC9
:10044000CEC420202020202000000000FFFF00005C
:10045000000000000840000041382ECCCECCC5CDB5
:10046000D22020202020202020202020000000005A
:10047000FFFF0000000000000840000041392ED1BD
:10048000CACED0CED1D2DC20202020202020202097
:10049000F0F1FFFF100E00000000000088300000A7
:1004A0004131302ECDC0CFD0204C31202020202013
:1004B000C220202000000000F40100000000000025
:1004C000082000004131312ECDC0CFD0204C322049
:1004D00020202020C220202000000000F401000085
:1004E00000000000082000004131322ECDC0CFD0E6
:1004F000204C332020202020C2202020000000009B
:10050000F401000000000000082000004131332EFB
:10051000D2CECA204C312020202020204120202073
:1005200000000000401F0000000000000832000032
:100530004131342ED2CECA204C322020202020201F
:100540004120202000000000401F000000000000AB
:10055000083200004131352ED2CECA204C33202043
:10056000202020204120202000000000401F00000B
:1005700000000000083200004131362ED3C3CECB3C
:1005800020CDC0C3D0202020202020204CFFFFFF02
:10059000B400000000000000882000004131372E28
:1005A00043414C49422053544154452020202020AF
:1005B000000000000300000000000000093C0000F3
:1005C0004131382ECFCECBCEC6C5CDC8C5202020D8
:1005D0002520202018FCFFFFD007000000000000AD
:1005E000883200004131392ECFCECBCDDBC920CFB0
:1005F000D3D2DC20CEC1202000000000B80B0000C8
:1006000000000000083200004132302ED2C5CAD3AB
:10061000D9C8C920CFD3D2DCCEC1202048F4FFFFF7
:10062000B80B000000000000883200004132312E7B
:10063000D1D7C5D220D6C8CACBCEC22020202020F8
:1006400000000000FAFF0000000000000840000069
:100650004132322ED2C5CCCFC5D0C0D2D3D0C020EB
:10066000202020209CFFFFFF64000000000000000D
:10067000882000004132332EC2C5D0D1C8DF20CF40
:10068000CE2020202020202000000000FAFF0000C3
:1006900000000000083600004132342E5245534518
:1006A0005256202020202020202020200000000062
:1006B000FFFF000000000000084000004132352E1E
:1006C0005245534552562020202020202020202013
:1006D00000000000FFFF00000000000008400000D4
:1006E0004132362E5245534552562020202020209C
:1006F0002020202000000000FFFF0000000000007C
:10070000084000004132372E5245534552562020B2
:10071000202020202020202000000000FFFF0000DB
:1007200000000000084000004132382E5245534579
:1007300052562020202020202020202000000000D1
:10074000FFFF000000000000084000004132392E89
:100750005245534552562020202020202020202082
:1007600000000000FFFF0000000000000840000043
:100770004133302E52455345525620202020202010
:100780002020202000000000FFFF000000000000EB
:10079000084000004133312E524553455256202027
:1007A000202020202020202000000000FFFF00004B
:1007B00000000000084000004133322E52455345EE
:1007C0005256202020202020202020200000000041
:1007D000FFFF000000000000084000004133332EFE
:1007E00052455345525620202020202020202020F2
:1007F00000000000FFFF00000000000008400000B3
:100800004133342E5245534552562020202020207B
:100810002020202000000000FFFF0000000000005A
:10082000084000004133352E524553455256202092
:10083000202020202020202000000000FFFF0000BA
:1008400000000000084000004133362E5245534559
:1008500052562020202020202020202000000000B0
:10086000FFFF000000000000084000004133372E69
:100870005245534552562020202020202020202061
:1008800000000000FFFF0000000000000840000022
:100890004133382E524553455256202020202020E7
:1008A0002020202000000000FFFF000000000000CA
:1008B000084000004133392E5245534552562020FE
:1008C000202020202020202000000000FFFF00002A
:1008D000000000000840000042302E434C4F5345BA
:1008E00020544F52512020202020202000000000C2
:1008F0003C000000020000005041000042312E4F39
:1009000050454E20544F5251452020202020202079
:10091000000000003C000000020000005041000008
:1009200042322E434C205345414C205452512020FA
:1009300020202020000000003C00000002000000F9
:100940005041000042332E434C2053544152542016
:100950005452512020202020000000003C000000C4
:10096000040000005041000042342E4F50205345F7
:10097000414C205452512020202020200000000013
:100980003C000000020000005041000042352E4FA4
:1009900050205354415254205452512020202020A2
:1009A000000000003C000000040000005041000076
:1009B0002020204232392E524553455256202020C5
:1009C0002020202000000000FFFF000000000000A9
:1009D0000840000042372E5345414C2054595045A1
:1009E0002020202020202020010000000400000002
:1009F00001000000513F000042382E524F44205465
:100A000059504520202020202020202000000000D8
:100A10000100000000000000D141000042392E5AC0
:100A20004F4E4520434C4F5345202020202020206E
:100A300000000000B80B00000A0000005032000067
:100A40004231302E5A4F4E45204F50454E202020E7
:100A50002020202000000000B80B00000A00000049
:100A6000503200004231312E4F4646534554205AF1
:100A70004F4E452020202020000000006400000090
:100A800000000000502200004231322E50415353EA
:100A9000574F5257442020202020202000000000E3
:100AA000FAFF00000000000000400000202020426B
:100AB00031332E54494D4520202020202020202055
:100AC00000000000FAFF000000000000131000000A
:100AD0002020204231342E44415445202020202023
:100AE0002020202000000000FAFF0000000000008D
:100AF000142000002020204231352E52455345520B
:100B0000562020202020202000000000FFFF0000B1
:100B100000000000084000002020204231362E5204
:100B20004553455256202020202020200000000060
:100B3000FFFF000000000000084000004231372E97
:100B40004D552F44552020202020202020202020DB
:100B50000000000003000000010000005040000001
:100B60004231382E445520534F55525345202020B2
:100B700020202020000000000200000000000000F3
:100B8000504000004231392E424C4F4B205A414CCC
:100B900049502020202020200000000001000000FB
:100BA00000000000504000004232302E434F4D4DB7
:100BB000414E442054494D4553202020010000005F
:100BC0006400000001000000502200004232312E7B
:100BD000494E20545950205349472020202020209E
:100BE0000000000001000000000000005040000074
:100BF0004232322E494E204D41534B20202020209E
:100C000020202020000000001F0000000000000045
:100C1000553000004232332E4F5554204D41534B36
:100C2000202020202020202000000000FAFF0000CB
:100C300000000000557000004232342E42415544FD
:100C40002052415445202020202020200000000078
:100C50000600000003000000514900004232352E1A
:100C60004144524553532020202020202020202082
:100C700001000000200000000100000050100000F2
:100C80004232362E434F4D4D20545950452020209E
:100C900020202020000000000200000000000000D2
:100CA000517000004232372E4D5546462054494D72
:100CB0004520202053202020030000006400000075
:100CC00014000000502200002020204232382E5212
:100CD00045534552562020202020202000000000AF
:100CE000FFFF00000000000008400000202020421C
:100CF00032392E52455345525620202020202020A4
:100D000000000000FFFF000000000000084000009D
:100D10002020204233302E52455345525620202069
:100D20002020202000000000FFFF00000000000045
:100D3000084000002020204233312E5245534552B6
:100D4000562020202020202000000000FFFF00006F
:100D500000000000084000004233322E4E4F204D6C
:100D60004F56452054494D45532020200300000094
:100D70006400000014000000502200004233332EB3
:100D80005345414C20574159202020204F422020DC
:100D900001000000E8030000640000005032000081
:100DA0002020204233342E524553455256202020D5
:100DB0002020202000000000FFFF000000000000B5
:100DC000084000002020204233352E524553455222
:100DD000562020202020202000000000FFFF0000DF
:100DE00000000000084000002020204233362E5230
:100DF000455345525620202020202020000000008E
:100E0000FFFF0000000000000840000020202042FA
:100E100033372E5245534552562020202020202083
:100E200000000000FFFF000000000000084000007C
:100E30002020204233382E52455345525620202040
:100E40002020202000000000FFFF00000000000024
:100E5000084000002020204233392E52455345528D
:100E6000562020202020202000000000FFFF00004E
:100E700000000000084000002020204234302E52A4
:100E800045534552562020202020202000000000FD
:100E9000FFFF00000000000008400000202020426A
:100EA00034312E52455345525620202020202020F8
:100EB00000000000FFFF00000000000008400000EC
:100EC0002020204234322E524553455256202020B5
:100ED0002020202000000000FFFF00000000000094
:100EE000084000002020204234332E524553455202
:100EF000562020202020202000000000FFFF0000BE
:100F000000000000084000002020204234342E520F
:100F1000455345525620202020202020000000006C
:100F2000FFFF0000000000000840000020202042D9
:100F300034352E5245534552562020202020202063
:100F400000000000FFFF000000000000084000005B
:100F50002020204234362E52455345525620202020
:100F60002020202000000000FFFF00000000000003
:100F7000084000002020204234372E52455345526D
:100F8000562020202020202000000000FFFF00002D
:100F900000000000084000002020204234382E527B
:100FA00045534552562020202020202000000000DC
:100FB000FFFF000000000000084000002020204249
:100FC00034392E52455345525620202020202020CF
:100FD00000000000FFFF00000000000008400000CB
:100FE0002043302E50415353574F5244202020204D
:100FF0002020202000000000FAFF00000000000078
:101000000040000043312E455020545950452020C7
:1010100020202020202020200000000019000000B7
:10102000000000006010000043322E59454152205C
:101030004F462050524F4420202020200000000026
:1010400063000000100000006010000043332E46D3
:101050004143544F5259204E554D202020202020EE
:10106000000000000F2700000000000060300000BA
:1010700043342E4D415820544F52512020202020DF
:10108000202020200A000000701700000A00000045
:101090006034000043352E4E4F4D2043555252458B
:1010A0004E5420204120202001000000B004000008
:1010B0000A0000006022000043362E4B50205245AB
:1010C000442020202020202020202020010000007B
:1010D000FAFF0000204E00006044000043372E4914
:1010E0004E44594320545950452020202020202090
:1010F000000000000100000000000000604000004F
:1011000043382E494E445943205245532054202001
:1011100053202020000000001E0000000A000000F4
:101120006010000043392E534554204445464F5526
:101130004C5420202020202000000000010000004E
:1011400000000000A14D00004331302E535542569F
:10115000455253494F4E20202020202000000000FF
:10116000FFFF000000000000084000004331312E66
:1011700048414C4C205354415445202020202020ED
:1011800000000000FFFF0000000000000840000019
:1011900044302E53455420434C4F534520202020AB
:1011A00020202020000000000200000000000000BD
:1011B000914D000044312E534554204F50454E2050
:1011C000202020202020202000000000020000001D
:1011D00000000000914D000044322E544F204F502B
:1011E000454E20202020202020202020000000002C
:1011F000E8030000000000001032000044332E54C9
:101200004F20434C4F5345202020202020202020D9
:1012100000000000E80300000000000010320000A1
:10122000202044342E524553455256202020202061
:101230002020202000000000FFFF00000000000030
:101240000840000044352E43414C4942205245534A
:101250004554202020202020000000000100000034
:1012600000000000114F000044362E434F4D414E08
:101270004453202020202020202020200000000097
:101280001300000000000000115000002044372E21
:1012900045525220524553455420202020202020E2
:1012A00000000000010000000000000011500000DC
:1012B0002044382E534554204445464F554C542025
:1012C000202020200000000001000000000000009D
:1012D000914D000020202044392E5245534552564E
:1012E000202020202020202000000000FFFF000000
:1012F00000000000080200004431302E4359434CE6
:101300004520524553455420202020200000000055
:101310000100000000000000115000004431312E97
:10132000434F4D4D2052455345542020202020202E
:10133000000000000100000000000000115000004B
:101340002020204431322E52455345525620202031
:101350002020202000000000FFFF0000000000000F
:10136000084000002020204431332E52455345527E
:10137000562020202020202000000000FFFF000039
:1013800000000000084000002020204431342E528C
:1013900045534552562020202020202000000000E8
:1013A000FFFF000000000000084000002020204453
:1013B00031352E52455345525620202020202020E2
:1013C00000000000FFFF00000000000008400000D7
:1013D0002020204431362E5245534552562020209D
:1013E0002020202000000000FFFF0000000000007F
:1013F000084000002020204431372E5245534552EA
:10140000562020202020202000000000FFFF0000A8
:1014100000000000084000002020204431382E52F7
:101420004553455256202020202020200000000057
:10143000FFFF0000000000000840000020202044C2
:1014400031392E524553455256202020202020204D
:1014500000000000FFFF0000000000000840000046
:1014600047302E54455354204D4F444520202020D2
:1014700020202020000000000100000000000000EB
:101480006010000047312E4C4544205445535420F1
:10149000202020202020202000000000FAFF000053
:1014A000000000002540000047322E444953204FE1
:1014B0005554205445535420202020200000000083
:1014C000FAFF0000000000002540000047332E44D2
:1014D00041432056414C55452020202025202020E6
:1014E00000000000E80300000000000020320000BF
:1014F00047342E444953504C2053544152542020D9
:10150000202020200000000001000000000000005A
:101510002000000020202047352E524553455256CA
:10152000202020202020202000000000FFFF0000BD
:10153000000000000840000020202047362E5245C1
:10154000534552562020202020202020000000005B
:10155000FFFF00000000000008400000202020479E
:10156000372E52455345525620202020202020203F
:1015700000000000FFFF0000000000000840000025
:1015800020202047382E52455345525620202020F7
:101590002020202000000000FFFF000000000000CD
:1015A0000840000020202047392E5245534552560E
:1015B000202020202020202000000000FFFF00002D
:1015C00000000000084000002020204731302E524B
:1015D00045534552562020202020202000000000A6
:1015E000FFFF00000000000008400000202020470E
:1015F00031312E52455345525620202020202020A4
:1016000000000000FFFF0000000000000840000094
:101610002020204731322E5245534552562020205B
:101620002020202000000000FFFF0000000000003C
:10163000084000002020204731332E5245534552A8
:10164000562020202020202000000000FFFF000066
:1016500000000000084000002020204731342E52B6
:101660004553455256202020202020200000000015
:10167000FFFF00000000000008400000202020477D
:1016800031352E524553455256202020202020200F
:1016900000000000FFFF0000000000000840000004
:1016A0002020204731362E524553455256202020C7
:1016B0002020202000000000FFFF000000000000AC
:1016C000084000002020204731372E524553455214
:1016D000562020202020202000000000FFFF0000D6
:1016E00000000000084000002020204731382E5222
:1016F0004553455256202020202020200000000085
:10170000FFFF0000000000000840000020202047EC
:1017100032302E5245534552562020202020202082
:1017200000000000FFFF0000000000000840000073
:101730002020204732312E5245534552562020203A
:101740002020202000000000FFFF0000000000001B
:10175000084000002020204732322E524553455287
:10176000562020202020202000000000FFFF000045
:1017700000000000084000002020204732332E5295
:1017800045534552562020202020202000000000F4
:10179000FFFF00000000000008400000202020475C
:1017A00032342E52455345525620202020202020EE
:1017B00000000000FFFF00000000000008400000E3
:1017C0002020204732352E524553455256202020A6
:1017D0002020202000000000FFFF0000000000008B
:1017E000084000002020204732362E5245534552F3
:1017F000562020202020202000000000FFFF0000B5
:1018000000000000084000002020204732372E5200
:101810004553455256202020202020200000000063
:10182000FFFF0000000000000840000020202047CB
:1018300032382E5245534552562020202020202059
:1018400000000000FFFF0000000000000840000052
:101850002020204732392E52455345525620202011
:101860002020202000000000FFFF000000000000FA
:101870000840000043414C494220535441555320F5
:101880002020202020202020000000000300000055
:10189000000000004000000020202020205245537E
:1018A000455256202020202020202020000000002B
:1018B000FAFF00000000000040400000434C4F537E
:1018C0004520504F53203120202020202020202050
:1018D00000000000FFFF000000000000404000008A
:1018E000434C4F534520504F53203220202020207E
:1018F0002020202000000000FFFF0000000000006A
:10190000404000004F50454E20504F532031202082
:10191000202020202020202000000000FFFF0000C9
:1019200000000000404000004F50454E20504F53F3
:101930002032202020202020202020200000000015
:10194000FFFF0000000000004040000050415353E2
:10195000574F5244203120202020202020202020BA
:1019600000000000FAFF00000000000040400000FE
:1019700050415353574F52442032202020202020E2
:101980002020202000000000FAFF000000000000DE
:1019900040400000534843202020202020202020C9
:1019A000202020202020202000000000FAFF00003E
:1019B00000000000404000004D55464620202020F9
:1019C0002020202020202020202020200000000097
:1019D000FAFF000000000000404000004359434C63
:1019E0004520434E5420202020202020202020204D
:1019F00000000000FAFF000000000000404000006E
:101A000052455345525620202020202020202020BF
:101A10002020202000000000FFFF00000000000048
:101A2000404000005245534552562020202020209F
:101A3000202020202020202000000000FFFF0000A8
:101A400000000000404000005245534552562020FF
:101A50002020202020202020202020200000000006
:101A6000FFFF000000000000404000002020204850
:101A700031342E4441544520202020202020202095
:101A800000000000FAFF00000000000040400000DD
:101A9000524553455256202020202020202020202F
:101AA0002020202000000000FFFF000000000000B8
:101AB0004040000053574954434820435552522058
:101AC000202020202520202000000000B80B00004E
:101AD00000000000403200002054525120202020FD
:101AE00043555220305F3020252020200000000088
:101AF000FAFF000000000000404000002054525156
:101B00002020202043555220305F312025202020E6
:101B100000000000FAFF000000000000404000004C
:101B2000205452512020202043555220305F322033
:101B30002520202000000000FAFF00000000000027
:101B40004040000020545251202020204355522074
:101B5000305F33202520202000000000FAFF000025
:101B6000000000004040000020545251202020205E
:101B700043555220305F34202520202000000000F3
:101B8000FAFF0000000000004040000020545251C5
:101B90002020202043555220305F35202520202052
:101BA00000000000FAFF00000000000040400000BC
:101BB000205452512020202043555220315F3020A4
:101BC0002520202000000000FAFF00000000000097
:101BD00040400000205452512020202043555220E4
:101BE000315F31202520202000000000FAFF000096
:101BF00000000000404000002054525120202020CE
:101C000043555220315F3220252020200000000063
:101C1000FAFF000000000000404000002054525134
:101C20002020202043555220315F332025202020C2
:101C300000000000FAFF000000000000404000002B
:101C4000205452512020202043555220315F34200F
:101C50002520202000000000FAFF00000000000006
:101C60004040000020545251202020204355522053
:101C7000315F35202520202000000000FAFF000001
:101C8000000000004040000020545251202020203D
:101C900043555220325F30202520202000000000D4
:101CA000FAFF0000000000004040000020545251A4
:101CB0002020202043555220325F31202520202033
:101CC00000000000FAFF000000000000404000009B
:101CD000205452512020202043555220325F322080
:101CE0002520202000000000FAFF00000000000076
:101CF00040400000205452512020202043555220C3
:101D0000325F33202520202000000000FAFF000071
:101D100000000000404000002054525120202020AC
:101D200043555220325F342025202020000000003F
:101D3000FAFF000000000000404000002054525113
:101D40002020202043555220325F3520252020209E
:101D500000000000FAFF000000000000404000000A
:101D6000205452512020202043555220335F3020F0
:101D70002520202000000000FAFF000000000000E5
:101D80004040000020545251202020204355522032
:101D9000335F31202520202000000000FAFF0000E2
:101DA000000000004040000020545251202020201C
:101DB00043555220335F32202520202000000000B0
:101DC000FAFF000000000000404000002054525183
:101DD0002020202043555220335F3320252020200F
:101DE00000000000FAFF000000000000404000007A
:101DF000205452512020202043555220335F34205C
:101E00002520202000000000FAFF00000000000054
:101E100040400000205452512020202043555220A1
:101E2000335F35202520202000000000FAFF00004D
:101E3000000000004040000020545251202020416A
:101E40004E474C20305F302025202020000000002D
:101E5000FAFF0000000000004040000020545251F2
:101E6000202020414E474C20305F3120252020206B
:101E700000000000FAFF00000000000040400000E9
:101E800020545251202020414E474C20305F3220B8
:101E90002520202000000000FAFF000000000000C4
:101EA0004040000020545251202020414E474C20F9
:101EB000305F33202520202000000000FAFF0000C2
:101EC00000000000404000002054525120202041DA
:101ED0004E474C20305F3420252020200000000099
:101EE000FAFF000000000000404000002054525162
:101EF000202020414E474C20305F352025202020D7
:101F000000000000FAFF0000000000004040000058
:101F100020545251202020414E474C20315F302028
:101F20002520202000000000FAFF00000000000033
:101F30004040000020545251202020414E474C2068
:101F4000315F31202520202000000000FAFF000032
:101F50000000000040400000205452512020204149
:101F60004E474C20315F3220252020200000000009
:101F7000FAFF0000000000004040000020545251D1
:101F8000202020414E474C20315F33202520202047
:101F900000000000FAFF00000000000040400000C8
:101FA00020545251202020414E474C20315F342094
:101FB0002520202000000000FAFF000000000000A3
:101FC0004040000020545251202020414E474C20D8
:101FD000315F35202520202000000000FAFF00009E
:101FE00000000000404000002054525120202041B9
:101FF0004E474C20325F302025202020000000007A
:10200000FAFF000000000000404000002054525140
:10201000202020414E474C20325F312025202020B7
:1020200000000000FAFF0000000000004040000037
:1020300020545251202020414E474C20325F322004
:102040002520202000000000FAFF00000000000012
:102050004040000020545251202020414E474C2047
:10206000325F33202520202000000000FAFF00000E
:102070000000000040400000205452512020204128
:102080004E474C20325F34202520202000000000E5
:10209000FAFF0000000000004040000020545251B0
:1020A000202020414E474C20325F35202520202023
:1020B00000000000FAFF00000000000040400000A7
:1020C00020545251202020414E474C20335F302075
:1020D0002520202000000000FAFF00000000000082
:1020E0004040000020545251202020414E474C20B7
:1020F000335F31202520202000000000FAFF00007F
:102100000000000040400000205452512020204197
:102110004E474C20335F3220252020200000000055
:10212000FAFF00000000000040400000205452511F
:10213000202020414E474C20335F33202520202093
:1021400000000000FAFF0000000000004040000016
:1021500020545251202020414E474C20335F3420E0
:102160002520202000000000FAFF000000000000F1
:102170004040000020545251202020414E474C2026
:10218000335F35202520202000000000FAFF0000EA
:10219000000000004040000020414E474C2020201D
:1021A000534620305F302020414E474C0000000055
:1021B000B4000000000000004020000020414E4715
:1021C0004C202020534620305F312020414E474C88
:1021D00000000000B40000000000000040200000EB
:1021E00020414E474C202020534620305F32202093
:1021F000414E474C00000000B40000000000000009
:102200004020000020414E474C20202053462030E3
:102210005F332020414E474C00000000B400000016
:10222000000000004020000020414E474C202020AC
:10223000534620305F342020414E474C00000000C0
:10224000B4000000000000004020000020414E4784
:102250004C202020534620305F352020414E474CF3
:1022600000000000B400000000000000402000005A
:1022700020414E474C202020534620315F30202003
:10228000414E474C00000000B40000000000000078
:102290004020000020414E474C2020205346203152
:1022A0005F312020414E474C00000000B400000088
:1022B000000000004020000020414E474C2020201C
:1022C000534620315F322020414E474C0000000031
:1022D000B4000000000000004020000020414E47F4
:1022E0004C202020534620315F332020414E474C64
:1022F00000000000B40000000000000040200000CA
:1023000020414E474C202020534620315F3420206E
:10231000414E474C00000000B400000000000000E7
:102320004020000020414E474C20202053462031C1
:102330005F352020414E474C00000000B4000000F3
:10234000000000004020000020414E474C2020208B
:10235000534620325F302020414E474C00000000A1
:10236000B4000000000000004020000020414E4763
:102370004C202020534620325F312020414E474CD4
:1023800000000000B4000000000000004020000039
:1023900020414E474C202020534620325F322020DF
:1023A000414E474C00000000B40000000000000057
:1023B0004020000020414E474C2020205346203230
:1023C0005F332020414E474C00000000B400000065
:1023D000000000004020000020414E474C202020FB
:1023E000534620325F342020414E474C000000000D
:1023F000B4000000000000004020000020414E47D3
:102400004C202020534620325F352020414E474C3F
:1024100000000000B40000000000000040200000A8
:1024200020414E474C202020534620335F3020204F
:10243000414E474C00000000B400000000000000C6
:102440004020000020414E474C202020534620339E
:102450005F312020414E474C00000000B4000000D6
:10246000000000004020000020414E474C2020206A
:10247000534620335F322020414E474C000000007D
:10248000B4000000000000004020000020414E4742
:102490004C202020534620335F332020414E474CB0
:1024A00000000000B4000000000000004020000018
:1024B00020414E474C202020534620335F342020BB
:1024C000414E474C00000000B40000000000000036
:1024D0004020000020414E474C202020534620330E
:1024E0005F352020414E474C00000000B400000042
:1024F0000000000040200000434F4D414E44532057
:1025000054552020202020202020202000000000E2
:10251000FAFF000000000000404000004156455214
:1025200020564F4C542020202020202056202020B0
:1025300000000000F4010000000000004020000046
:1025400054454D50455220544D50202020202020ED
:10255000414E47209CFFFFFF640000000000000088
:10256000402000004156455220435552522025201C
:10257000202020202020202000000000FAFF000062
:102580000000000040400000202043555252454EBC
:102590005420205520252020202025200000000048
:1025A000401F000000000000403200002020435582
:1025B0005252454E542020562025202020202520F0
:1025C00000000000401F000000000000403200003A
:1025D000202043555252454E54202057202520207C
:1025E0002020252000000000401F00000000000007
:1025F000403200002041564552204355525220207F
:10260000202020204120202000000000401F00004A
:1026100000000000403200002020504F5349544930
:102620004F4E2020202020202020202000000000CD
:10263000FAFF000000000000404000002020504F42
:10264000534954494F4E2020202020202020202074
:1026500000000000FAFF0000000000004040000001
:102660002046554C4C205741592020202020202026
:102670002020202000000000FAFF000000000000E1
:1026800040400000202046554C4C20574159202006
:10269000202020202020202000000000FAFF000041
:1026A000000000004040000052455645525320545F
:1026B000595045202020202020202020000000000C
:1026C00002000000020000004020000042414420BF
:1026D00020205441534B2032204B485A20202020A8
:1026E00000000000FAFF0000000000004040000071
:1026F0004241442020205441534B20323030485A2C
:102700002020202000000000FAFF00000000000050
:10271000404000004241442020205441534B20358A
:1027200030485A312020202000000000FAFF00002D
:10273000000000004040000042414420202054415D
:10274000534B203530485A32202020200000000012
:10275000FAFF000000000000404000004241442019
:1027600020205441534B203530485A33202020201C
:1027700000000000FAFF00000000000040400000E0
:102780004241442020205441534B20313020485AAC
:102790002020202000000000FAFF000000000000C0
:1027A00040400000424144205441534B2052455385
:1027B000455420202020202000000000FAFF0000C7
:1027C00000000000404000004350552054494D4552
:1027D0002020202020202020202020200000000079
:1027E000FAFF000000000000404000005441534B3D
:1027F000204C49535420202020202020202020201D
:1028000000000000FAFF000000000000404000004F
:102810005441534B204E554D4245522020202020FC
:102820002020202000000000FAFF0000000000002F
:102830004040000020202020205245534552562081
:10284000202020202020202000000000FAFF00008F
:10285000000000004040000020202020205245536E
:10286000455256202020202020202020000000005B
:10287000FAFF00000000000040400000202020205F
:102880002052455345525620202020202020202031
:1028900000000000FAFF00000000000040400000BF
:1028A0002020202020524553455256202020202011
:1028B0002020202000000000FAFF0000000000009F
:1028C00040400000483131342E5354415254204985
:1028D0004E44494320202020000000001D0000003D
:1028E00008000000404000004C6F6745764164647A
:1028F0007220202020202020202020200000000006
:10290000FAFF000000000000404000004C6F6743E9
:102910006D6441646472202020202020202020202B
:1029200000000000FAFF000000000000404000002E
:102930004C6F67506172616D416464722020202089
:102940002020202000000000FAFF0000000000000E
:10295000404000004C6F6753696D416464722020F1
:10296000202020202020202000000000FAFF00006E
:1029700000000000404000004C6F674576436F75D3
:102980006E74202020202020202020200000000025
:10299000FAFF000000000000404000004C6F674359
:1029A0006D64436F756E742020202020202020202D
:1029B00000000000FAFF000000000000404000009E
:1029C0004C6F67506172616D436F756E742020208B
:1029D0002020202000000000FAFF0000000000007E
:1029E000404000004C6F6753696D436F756E7420F3
:1029F000202020202020202000000000FAFF0000DE
:102A00000000000040400000202020205365636F3C
:102A10006E64732020202020202020200000000051
:102A20003C0000000000000040100000436F6E7486
:102A300047726F7570202020202020202020202029
:102A400000000000FAFF000000000000404000000D
:102A50004C6F67436F6E74726F6C576F7264202097
:102A60002020202000000000FAFF000000000000ED
:102A7000404000004C6F6752657365742020202031
:102A80002020202020202020000000000100000045
:102A90000000000000400000545320496E64696348
:102AA0006174696F6E20202020202020000000002B
:102AB000FFFF000000000000404000003120202007
:102AC00020524553455256202020202020202020EF
:102AD00000000000FAFF000000000000404000007D
:102AE00032202020205245534552562020202020BD
:102AF0002020202000000000FAFF0000000000005D
:102B0000404000003320202020524553455256209B
:102B1000202020202020202000000000FAFF0000BC
:102B20000000000040400000342020202052455387
:102B30004552562020202020202020200000000088
:102B4000FAFF000000000000404000003520202077
:102B5000205245534552562020202020202020205E
:102B600000000000FAFF00000000000040400000EC
:102B70003620202020524553455256202020202028
:102B80002020202000000000FAFF000000000000CC
:102B90004040000037202020205245534552562007
:102BA000202020202020202000000000FAFF00002C
:102BB00000000000404000003820202020524553F3
:102BC00045525620202020202020202000000000F8
:102BD000FAFF0000000000004040000039202020E3
:102BE00020524553455256202020202020202020CE
:102BF00000000000FAFF000000000000404000005C
:102C0000313020202052455345525620202020208C
:102C10002020202000000000FAFF0000000000003B
:102C2000404000003131202020524553455256206B
:102C3000202020202020202000000000FAFF00009B
:102C40000000000040400000313220202052455357
:102C50004552562020202020202020200000000067
:102C6000FAFF000000000000404000003133202047
:102C7000205245534552562020202020202020203D
:102C800000000000FAFF00000000000040400000CB
:102C900031342020205245534552562020202020F8
:102CA0002020202000000000FAFF000000000000AB
:102CB00040400000313520202052455345525620D7
:102CC000202020202020202000000000FAFF00000B
:102CD00000000000404000003136202020524553C3
:102CE00045525620202020202020202000000000D7
:102CF000FAFF0000000000004040000031372020B3
:102D000020524553455256202020202020202020AC
:102D100000000000FAFF000000000000404000003A
:102D20003138202020524553455256202020202063
:102D30002020202000000000FAFF0000000000001A
:102D40004040000031392020205245534552562042
:102D5000202020202020202000000000FAFF00007A
:102D60000000000040400000323020202052455337
:102D70004552562020202020202020200000000046
:102D8000FAFF000000000000404000003231202027
:102D9000205245534552562020202020202020201C
:102DA00000000000FAFF00000000000040400000AA
:102DB00032322020205245534552562020202020D8
:102DC0002020202000000000FAFF0000000000008A
:102DD00040400000323320202052455345525620B7
:102DE000202020202020202000000000FAFF0000EA
:102DF00000000000404000003234202020524553A3
:102E000045525620202020202020202000000000B5
:102E1000FAFF000000000000404000003235202092
:102E2000205245534552562020202020202020208B
:102E300000000000FAFF0000000000004040000019
:102E40003236202020524553455256202020202043
:102E50002020202000000000FAFF000000000000F9
:102E60004040000032372020205245534552562022
:102E7000202020202020202000000000FAFF000059
:102E8000000000004040000032382020205245530E
:102E90004552562020202020202020200000000025
:102EA000FAFF0000000000004040000032392020FE
:102EB00020524553455256202020202020202020FB
:102EC00000000000FAFF0000000000004040000089
:102ED00033302020205245534552562020202020B8
:102EE0002020202000000000FAFF00000000000069
:102EF0004040000033312020205245534552562097
:102F0000202020202020202000000000FAFF0000C8
:102F10000000000040400000333220202052455382
:102F20004552562020202020202020200000000094
:102F3000FAFF000000000000404000003333202072
:102F4000205245534552562020202020202020206A
:102F500000000000FAFF00000000000040400000F8
:102F60003334202020524553455256202020202023
:102F70002020202000000000FAFF000000000000D8
:102F80004040000033352020205245534552562002
:102F9000202020202020202000000000FAFF000038
:102FA00000000000404000003336202020524553EE
:102FB0004552562020202020202020200000000004
:102FC000FAFF0000000000004040000033372020DE
:102FD00020524553455256202020202020202020DA
:102FE00000000000FAFF0000000000004040000068
:102FF000333820202052455345525620202020208F
:103000002020202000000000FAFF00000000000047
:10301000404000003339202020524553455256206D
:10302000202020202020202000000000FAFF0000A7
:103030000000000040400000343020202052455362
:103040004552562020202020202020200000000073
:10305000FAFF000000000000404000003431202052
:103060002052455345525620202020202020202049
:1030700000000000FAFF00000000000040400000D7
:103080003432202020524553455256202020202003
:103090002020202000000000FAFF000000000000B7
:1030A00040400000343320202052455345525620E2
:1030B000202020202020202000000000FAFF000017
:1030C00000000000404000003434202020524553CE
:1030D00045525620202020202020202000000000E3
:1030E000FAFF0000000000004040000034352020BE
:1030F00020524553455256202020202020202020B9
:1031000000000000FAFF0000000000004040000046
:10311000343620202052455345525620202020206E
:103120002020202000000000FAFF00000000000026
:10313000404000003437202020524553455256204D
:10314000202020202020202000000000FAFF000086
:103150000000000040400000343820202052455339
:103160004552562020202020202020200000000052
:10317000FAFF000000000000404000003439202029
:103180002052455345525620202020202020202028
:1031900000000000FAFF00000000000040400000B6
:1031A00035302020205245534552562020202020E3
:1031B0002020202000000000FAFF00000000000096
:1031C00040400000353120202052455345525620C2
:1031D000202020202020202000000000FAFF0000F6
:1031E00000000000404000003532202020524553AE
:1031F00045525620202020202020202000000000C2
:10320000FAFF00000000000040400000353320209D
:103210002052455345525620202020202020202097
:1032200000000000FAFF0000000000004040000025
:10323000353420202052455345525620202020204E
:103240002020202000000000FAFF00000000000005
:10325000404000003535202020524553455256202D
:10326000202020202020202000000000FAFF000065
:103270000000000040400000353620202052455319
:103280004552562020202020202020200000000031
:10329000FAFF000000000000404000003537202009
:1032A0002052455345525620202020202020202007
:1032B00000000000FAFF0000000000004040000095
:1032C00035382020205245534552562020202020BA
:1032D0002020202000000000FAFF00000000000075
:1032E0004040000035392020205245534552562099
:1032F000202020202020202000000000FAFF0000D5
:10330000000000004040000036302020205245538D
:1033100045525620202020202020202000000000A0
:10332000FAFF00000000000040400000363020207E
:103330002052455345525620202020202020202076
:1033400000000000FAFF0000000000004040000004
:1033500020202020202054494D45202020202020BE
:103360002020202000000000FFFF000000000000DF
:103370000B10000020202020202044415445202014
:10338000202020202020202000000000FFFF00003F
:10339000210000000C20000045302E5354415455AC
:1033A000532020202020202020202020000000006A
:1033B000FFFF0000000000008A00000045312E5091
:1033C000524F434553532045525220202020202065
:1033D00000000000FFFF0000000000000A090000DC
:1033E00045322E564F4C54204552524F52202020E9
:1033F0002020202000000000FFFF0000000000004F
:103400008A11000045332E43555252454E542045F3
:10341000525220202020202000000000FFFF00004A
:10342000000000000A1A000045342E444556494366
:10343000452045525220202020202020000000005E
:10344000FAFF0000000000008A22000045352E50DF
:103450004F534954494F4E20202020202520202022
:1034600018FCFFFFD00700000000000088320000B9
:103470002020202045362E544F5251452020202018
:10348000202020200A000000F82A00000A00000086
:103490000840000045372E564F4C54204C31202018
:1034A000202020205620202000000000F4010000F1
:1034B000000000000820000045382E564F4C5420D4
:1034C0004C32202020202020562020200000000008
:1034D000F4010000000000000820000045392E56CD
:1034E0004F4C54204C3320202020202056202020D8
:1034F00000000000F40100000000000008200000AF
:103500004531302E43555252454E542020552020EF
:103510004120202000000000401F000000000000AB
:10352000083200004531312E43555252454E542049
:10353000205620204120202000000000401F0000D5
:1035400000000000083200004531322E435552522F
:10355000454E54202057202041202020000000000C
:10356000401F000000000000083200004531332EEB
:1035700054454D504552202020202020202020203E
:103580009CFFFFFF64000000000000008820000096
:103590004531342E494E205354415445202020209B
:1035A0002020202000000000FFFF0000000000009D
:1035B0000A2B00004531352E4F55542053544154A9
:1035C000452020202020202000000000FFFF0000D8
:1035D000000000008A3300002020204531362E52A2
:1035E0004553455256202020202020200000000076
:1035F000FFFF0000000000000840000020202045E0
:1036000031372E524553455256202020202020206D
:1036100000000000FFFF0000000000000840000064
:103620002020204531382E52455345525620202027
:103630002020202000000000FFFF0000000000000C
:10364000084000002020204532302E52455345527C
:10365000562020202020202000000000FFFF000036
:1036600000000000084000002020204532312E528A
:1036700045534552562020202020202000000000E5
:10368000FFFF00000000000008400000202020454F
:1036900032322E52455345525620202020202020E1
:1036A00000000000FFFF00000000000008400000D4
:1036B0002020204532332E5245534552562020209B
:1036C0002020202000000000FFFF0000000000007C
:1036D000084000002020204532342E5245534552E8
:1036E000562020202020202000000000FFFF0000A6
:1036F00000000000084000002020204532352E52F6
:103700004553455256202020202020200000000054
:10371000FFFF0000000000000840000020202045BE
:1037200032362E524553455256202020202020204C
:1037300000000000FFFF0000000000000840000043
:103740002020204532372E52455345525620202006
:103750002020202000000000FFFF000000000000EB
:10376000084000002020204532382E524553455253
:10377000562020202020202000000000FFFF000015
:1037800000000000084000002020204532392E5261
:1037900045534552562020202020202000000000C4
:1037A000FFFF000000000000084000002020202053
:1037B000C7C0CFC8D1DC2020202020202020CDC5AC
:1037C00020CECFD0C5C4C5CBC5CD20202020CED1A2
:1037D000D2C0CDCEC2CBC5CD20202020202020209D
:1037E00020C0C2C0D0C8DF202020202020C8C4C5EF
:1037F000D220C7C0CAD0DBD2C8C5202020C8C4C5CB
:10380000D220CED2CAD0DBD2C8C52020202020C8EA
:10381000C4C5D220D2C5D1D22020202020202020F3
:10382000C7C0CAD0DBD2CE202020202020202020DC
:10383000CED2CAD0DBD2CE202020202020202020B3
:1038400020CCD3D4D2C020202020202020CCC5D111
:10385000D2CDCEC520D3CFD0C0C2CB202020C2CA6B
:10386000CBDED7C5CD20D2C5CD202020424C55453A
:10387000544F4F544820C2CACB202020C0C2C0D0D1
:10388000C8DF20CDC020C1CBCECAC5202020C0C2F9
:10389000C0D0C8DF20CDC020D2D12020CFD0CEC311
:1038A000D0C0CCCCC8D0CEC2C0CDC8C5CDC5C8D183
:1038B000CFD0C0C2CD20CDC020C1CBCACDC5C8D1CC
:1038C000CFD0C0C2CD20CDC020D2D120202020CD4D
:1038D000C5D220C0C2C0D0C8C9202020C5303120E8
:1038E000CDC5D220C4C2C8C6C5CDC8DFC5303220C0
:1038F000D7C5D020D4C0C720C4C2C8C3C530332068
:10390000CDC520C7C0C420C7C0CAD020C530332011
:10391000CDC520C7C0C420CED2CAD020C5303320E8
:10392000CDC5D220CAC0CBC8C1D02020C5303420DC
:10393000D3CFCB20CDC520C4CED1D220C5303520A9
:10394000CCD3D4D2C020202020202020C530362047
:10395000CDC5C8D1CFD020CCD32FC4D3C5303720CC
:10396000CED8C8C1CAC020D3CFCF2020C530382080
:10397000D0C5C620CFCEC620CACED220202020203F
:1039800020D0C5C7C5D0C220202020202020202044
:1039900020D0C5C7C5D0C220202020202020202034
:1039A00020D0C5C7C5D0C220202020202020202024
:1039B00020D0C5C7C5D0C220202020202020202014
:1039C00020D0C5C7C5D0C220202020202020202004
:1039D00020D0C5C7C5D0C22020202020202020CD47
:1039E000C5D220C0C2C0D0C8C9202020C5313120D6
:1039F000CCC8CD20CDC0CFD020D42052C53131206D
:103A0000CCC8CD20CDC0CFD020D42053C53131205B
:103A1000CCC8CD20CDC0CFD020D42054C531322049
:103A2000CCC0CAD120CDC0CF20D42052C531322045
:103A3000CCC0CAD120CDC0CF20D42053C531322034
:103A4000CCC0CAD120CDC0CF20D42054CDC5CECF3C
:103A5000D020D7C5D0C5C420D4C0C720C53133209D
:103A6000CDC5C1C0CB2FCEC1D0205520C53134200B
:103A7000D3CCC5CD20CDC0CF20D42052C5313420E9
:103A8000D3CCC5CD20CDC0CF20D42053C5313420D8
:103A9000D3CCC5CD20CDC0CF20D42054C5313520C6
:103AA000CDC0CFD020D4205220343725C531352089
:103AB000CDC0CFD020D4205320343725C531352078
:103AC000CDC0CFD020D42054203437252020D7C5D6
:103AD000D020D4C0C720D1C5D2C82020202020208B
:103AE00020D0C5C7C5D0C22020202020202020CD36
:103AF000C5D220C0C2C0D0C8C9202020C5323120C4
:103B0000CEC1D0DBC220D4C0C7DB2055C5323120A6
:103B1000CEC1D0DBC220D4C0C7DB2056C532312095
:103B2000CEC1D0DBC220D4C0C7DB2057C532322083
:103B3000C2D02DD2CECA20C7C0D9C8D220202020C2
:103B400020D0C5C7C5D0C22020202020C5323320B8
:103B5000CAC720D4C0C7DB2055202020C53233205F
:103B6000CAC720D4C0C7DB2056202020C53233204E
:103B7000CAC720D4C0C7DB20572020202020202007
:103B800020D0C5C7C5D0C220202020202020202042
:103B900020D0C5C7C5D0C2202020202020CCC8CD31
:103BA000C8CCC0CBDCCD20D2CECA202020CDC5C110
:103BB000C0CBC0CDD120D2CECAC020202020202012
:103BC00020D0C5C7C5D0C220202020202020202002
:103BD00020D0C5C7C5D0C2202020202020202020F2
:103BE00020D0C5C7C5D0C2202020202020202020E2
:103BF00020D0C5C7C5D0C22020202020202020CD25
:103C0000C5D220C0C2C0D0C8C9202020C5333120B1
:103C1000D1C1CEC920C420CFCECBCEC6C533322031
:103C2000D1C1CEC920CFC0CC20312020C533322015
:103C3000D1C1CEC920CFC0CC20322020C533332003
:103C4000D1C1CEC920D7C0D1CEC22020C5333420A7
:103C5000D1C1CEC920C420D2C5CCCF20C533352098
:103C6000CFC5D0C5C3D020C1CACF2020C533362090
:103C7000CFC5D0C5CED5CB20C1CACF20C5333720C4
:103C8000CFC5D0C5C3D020C1CADDCF20C5333820B1
:103C9000CFC5D0C5CED5CB20C1CADDCFD1C1CEC90D
:103CA00020D6C0CF2020202020202020C2DBCACB5D
:103CB000DED720C1CADDCF2020202020C53331200F
:103CC000CDC5D220D1C220D120C1CACFC534312028
:103CD000C1C0D2C0D0C5C9CAC0202020C53432203E
:103CE000CDC520C7C0CFD3D120C1CBDEC534302055
:103CF000D2C8CF20C1CACF202020202020202020C1
:103D000020D0C5C7C5D0C220202020202020CDC56E
:103D1000D220D1C8C3CDC0CBCEC220202020C2D556
:103D2000CEC420CED2CAD0DBD2DC20202020C2D507
:103D3000CEC420C7C0CAD0DBD2DC20202020C2D510
:103D4000CEC420D1D2CECF20202020202020C2D50A
:103D5000CEC420C4D3202020202020202020C2D563
:103D6000CEC420C4C5C1CBCECA2020202020202014
:103D700020D0C5C7C5D0C220202020202020202050
:103D800020D0C5C7C5D0C220202020202020202040
:103D900020D0C5C7C5D0C220202020202020202030
:103DA00020D0C5C7C5D0C220202020202020202020
:103DB00020D0C5C7C5D0C220202020202020202010
:103DC00020D0C5C7C5D0C220202020202020202000
:103DD00020D0C5C7C5D0C2202020202020202020F0
:103DE00020D0C5C7C5D0C2202020202020202020E0
:103DF00020D0C5C7C5D0C2202020202020202020D0
:103E000020D0C5C7C5D0C2202020202020202020BF
:103E100020D0C5C7C5D0C220202020202020CDC55D
:103E2000D220D1C8C3CDC0CBCEC22020202020209C
:103E3000CED2CAD0DBD2CE202020202020202020AD
:103E4000C7C0CAD0DBD2CE20202020202020CED256
:103E5000CAD0DBC2C0C5D2D1DF2020202020C7C0FD
:103E6000CAD0DBC2C0C5D2D1DF2020202020CDC5E2
:103E7000C8D1CFD0C0C2CDCED1D2DC2020202020CE
:103E800020CCD3D4D2C020202020202020202020CD
:103E9000C0C2C0D0C8DF2020202020202020202029
:103EA0002020C4D3202020202020202020202020BB
:103EB00020D0C5C7C5D0C22020202020202020200F
:103EC00020D0C5C7C5D0C2202020202020202020FF
:103ED00020D0C5C7C5D0C2202020202020202020EF
:103EE00020D0C5C7C5D0C2202020202020202020DF
:103EF00020D0C5C7C5D0C2202020202020202020CF
:103F000020D0C5C7C5D0C2202020202020202020BE
:103F100020D0C5C7C5D0C2202020202020202020AE
:103F200020D0C5C7C5D0C2202020202020CDC5D29A
:103F300020CAC0CBC8C1D0CEC2CAC82020C7C0C406
:103F4000C0CDCE20C7C0CAD0DBD2CE2020C7C0C4CF
:103F5000C0CDCE20CED2CAD0DBD2CE20CAC0CBC8F4
:103F6000C1D020C2DBCFCECBCDC5CDC020202020FC
:103F7000CACBC8CDCEC2C0DF2020202020202020E8
:103F8000D8C8C1C5D0CDC0DF202020202020CDC57D
:103F900020CECFD0C5C4C5CBC5CD202020C1C5C73C
:103FA00020D3CFCBCED2CDC5CDC8DF20D3CFCBCE83
:103FB000D2CDC5CDC8C520C7C0CAD020D3CFCBCEA7
:103FC000D2CDC5CDC8C520CED2CAD020D3CFCB202C
:103FD000C7C0CAD020C820CED2CAD020202020CD31
:103FE000CED0CCC0CBDCCDDBC920202020202020AF
:103FF000CEC1D0C0D2CDDBC920202020C4C5C9D1BC
:10400000D2C220C7CDC0D7C5CDC8DF20CFD0CED635
:10401000C5CDD2DB20CED220CDCECC20202020207A
:10402000C2DBCACBDED7C5CD202020202020C2DBBA
:10403000C1CED020D0C5C6C8CCC020202020202092
:10404000D0C5C6C8CC20CCD32020202020202020C2
:10405000D0C5C6C8CC20C4D32020202020C2D1C5C2
:1040600020C8CDD2C5D0D4C5C9D1DB20D2CECBDCBF
:10407000CACE20C4C8D1CAD0C5D2CD20D2CECBDCC6
:10408000CACE20CFCED1CBC5C4CEC220202020C2E4
:10409000DBCACBDED7C5CDC02020202020202020A9
:1040A000C2CACBDED7C5CDC02020202020202020B2
:1040B00020203234C2202020202020202020202038
:1040C0002020323230C2202020202020202020201A
:1040D0003234303020C1CEC42020202020202020A7
:1040E0003438303020C1CEC4202020202020202091
:1040F0003936303020C1CEC420202020202020316D
:104100003932303020C1CEC420202020202020335E
:104110003834303020C1CEC420202020202020354B
:104120003736303020C1CEC420202020202020313E
:10413000313532303020C1CEC4202020202020C292
:10414000DBCACBDED7C5CDC020202020C8CDC4C857
:10415000CA20C820CED1D2C0CDCEC2202020CDC50D
:10416000D220CACECCC0CDC4DB20202020202020ED
:1041700020C7C0C4C0D2DC20202020202020202046
:10418000D1C1D0CED1C8D2DC202020202020CDC566
:10419000D220CACECCC0CDC4DB20202020202020BD
:1041A000D1C1D0CED1C8D2DC202020202020CDC546
:1041B000D220CACECCC0CDC4DB202020202020209D
:1041C0002020D1D2CECF202020202020202020202F
:1041D000C7C0CAD0DBD2DC20202020202020202015
:1041E000CED2CAD0DBD2DC20202020202020C7C0A5
:1041F000CAD0DBD2DC20D2C5D1D220202020CED222
:10420000CAD0DBD2DC20D2C5D1D220202020202071
:1042100020D0C5C7C5D0C2202020202020202020AB
:1042200020D0C5C7C5D0C22020202020202020209B
:1042300020D0C5C7C5D0C22020202020202020208B
:1042400020D0C5C7C5D0C22020202020202020207B
:1042500020D0C5C7C5D0C22020202020202020206B
:1042600020D0C5C7C5D0C22020202020202020205B
:1042700020D0C5C7C5D0C22020202020202020204B
:1042800020D0C5C7C5D0C22020202020202020203B
:1042900020D0C5C7C5D0C22020202020202020202B
:1042A00020D0C5C7C5D0C22020202020202020201B
:1042B00020D0C5C7C5D0C22020202020202020200B
:1042C00020D0C5C7C5D0C2202020202020202020FB
:1042D00020D0C5C7C5D0C2202020202020202020EB
:1042E00020D0C5C7C5D0C2202020202020CDC52089
:1042F000CECFD0C5C4C5CBC5CDCE2020CEC1D0C079
:10430000D2CD20CFCED1CBC5C4CEC220CFD0DFCC32
:10431000C0DF20CFCED1CBC5C4CEC22020202020EC
:10432000CED1D2C0CDCEC2202020202020C0C2D2EB
:10433000CECCC0D2C8D7C5D1CAC8C9202020C8C3D6
:10434000CDCED0C8D0CEC2C0CDC8C5202020202020
:10435000C2DBCACBDED7C5CD2020202020202020E4
:10436000C2CACBDED7C5CD2020202020CDCED0CCD8
:1043700020D0C0C7CECCCACDD3D2DBC920CDCED0C1
:10438000CC20C7C0CCCACDD3D2DBC92020D1D2C06B
:10439000D2D3D120D0C0C1CED2DB202020C4C8C00F
:1043A000C3CD20CFD0CED6C5D1D1C02020C4C8C067
:1043B000C3CDCED1D220D1C5D2C8202020C4C8C000
:1043C000C3CD20CDC0C3D0D3C7CAC82020C4C8C065
:1043D000C3CD20D3D1D2D02DC2C020202020D1CE19
:1043E000D1D220C2D5CEC4CEC22020202020D1CE12
:1043F000D1D220C2DBD5CEC4CEC2202020202020A6
:1044000020D0C5C7C5D0C2202020202020202020B9
:1044100020CCCECCC5CDD220202020202020202092
:10442000D1CACED0CED1D2DC202020202020D1D0A5
:10443000C5C4CDC5C520CDC0CFD020202020D1D02F
:10444000C5C4CDC8C920D2CECA20202020D3C3CE17
:10445000CB20CDC0C3D0D3C7CAC820202020202065
:1044600020D0C5C7C5D0C220202020202020202059
:1044700020D0C5C7C5D0C220202020202020202049
:1044800020D0C5C7C5D0C220202020202020202039
:1044900020D0C5C7C5D0C220202020202020202029
:1044A00020D0C5C7C5D0C220202020202020202019
:1044B00020D0C5C7C5D0C220202020202020202009
:1044C00020D0C5C7C5D0C2202020202020202020F9
:1044D00020D0C5C7C5D0C2202020202020202020E9
:1044E00020D0C5C7C5D0C2202020202020202020D9
:1044F00020D0C5C7C5D0C2202020202020202020C9
:1045000020D0C5C7C5D0C2202020202020202020B8
:1045100020D0C5C7C5D0C2202020202020202020A8
:1045200020D0C5C7C5D0C220202020202020202098
:1045300020D0C5C7C5D0C220202020202020202088
:1045400020D0C5C7C5D0C220202020202020202078
:1045500020D0C5C7C5D0C220202020202020202068
:1045600020D0C5C7C5D0C220202020202020CFCEFB
:1045700020D3D1D2C0C2CAC0CC202020CFCE20D3DD
:10458000D1D220D120C7C0C4C5D0C6CA20C2D1C58F
:10459000C3C4C020C2CACB202020202020D0D3D723
:1045A000CDCEC520D3CFD020202020202020C1C5B3
:1045B000C720CFD0CEC2C5D0CAC8202020CDC020B1
:1045C000CDC5D7C5D2CDCED1D2DC20202020CDC0C4
:1045D00020D7C5D2CDCED1D2DC202020CDC520CE53
:1045E000CFD0C5C4C5CBC5CD20202020DDCFC7D0BE
:1045F0002D31303020C02E3235202020DDCFC7D0E5
:104600002D31303020C02E3530202020DDCFC7D0D6
:104610002D34303020C12E3230202020DDCFC7D0C5
:104620002D34303020C12E3430202020DDCFC7D0B3
:104630002D38303020C22E3430202020DDCFC7D09E
:104640002D3130303020C22E32302020DDCFC7D087
:104650002D3430303020C32E39202020DDCFC7D07C
:104660002D3430303020C32E31382020DDCFC7D05C
:104670002D313030303020C42E362020DDCFC7D051
:104680002D313030303020C42E313220DDCFC7D034
:104690002D313030303020C42E313020DDCFC7D026
:1046A0002D313530303020C42E313020DDCFC7D011
:1046B0002D323030303020462E343020DDCFC7D080
:1046C0002D333530303020462E343820DDCFC7D062
:1046D0002D353030303020462E343820DDCFC7D055
:1046E0002D31303020C02E323520D120DDCFC7D043
:1046F0002D31303020C02E353020D120DDCFC7D035
:104700002D34303020C12E323020D120DDCFC7D023
:104710002D34303020C12E343020D120DDCFC7D011
:104720002D38303020C22E343020D120DDCFC7D0FC
:104730002D3130303020C22E323020D1DDCFC7D0E5
:104740002D3430303020C32E392020D1DDCFC7D0DA
:104750002D3430303020C32E313820D1DDCFC7D0BA
:104760002D313030303020C42E3620D1DDCFC7D0AF
:104770002D313030303020C42E3132D12DE9F84F78
:10478000044601F047F9002C00F030812168DFF881
:1047900070B604F13405DFF86C66DFF86C76DFF88C
:1047A0006C86DFF86C96DFF86CA6594518BF51454A
:1047B0002AD0494518BF414526D0B94218BFB14259
:1047C00022D000F040FF1CBFDFF84C3699421BD0CE
:1047D00000F035FF1CBFDFF84426914214D000F0F2
:1047E00061FB1CBFDFF8382691420DD000F01FFF9F
:1047F0001CBFDFF83036994206D000F014FF1CBF12
:10480000DFF82426914247D100234FF0020E2B708F
:10481000594585F801E018BF51452AD0494518BFD0
:10482000414526D0B94218BFB14222D000F00BFF5B
:104830001CBFDFF8E43599421BD000F000FF1CBF1D
:10484000DFF8D825914214D000F02CFB1CBFDFF814
:10485000D02591420DD000F0EAFE1CBFDFF8C43530
:10486000994206D000F0DFFE1CBFDFF8BC25914264
:1048700042D10B688E465B085B00CEF8003000909A
:1048800022681068C1073DD501F0C4F8009A801A6B
:104890000628F5D32020A6E0DFF8900581421CBF52
:1048A000DFF88C25914218D0DFF8883599421CBF7B
:1048B000DFF88405814210D0DFF8802591421CBFCB
:1048C000DFF87C35994208D0DFF8780581421CBFBB
:1048D000DFF8A825914240F085800021022329704D
:1048E0006B7020680368A06840286FF3101340F0D5
:1048F0007F8043F010037FE00A680B4652085200A5
:104900001A60BCE71368DFF84015A0680B40216906
:104910000343E068034360690B43E1690343A06913
:104920000343206A0B430343606A042803D1E16A0E
:10493000206B0B430343DFF814C5DCF800E04FEABB
:104940001E400004B0F1005F11D36068A0F129019E
:10495000062924BFA0F13F01042906D3A0F1470195
:10496000022924BF4F38042801D243F48013136076
:1049700022685369606ADB0840EAC30304280ED149
:10498000D4F828E0E06A4EEA030340B1A16969B9AE
:10499000BEF1000F18BFBEF1020F1CD011D353613E
:1049A000204600F029FF00F0CBF845E0B1F5005FAC
:1049B0000BD1BEF1030FF2D8DFE80EF00F0D0F039D
:1049C000EDE7B0F1C07FEAD107E0BEF1020F04D9F4
:1049D000BEF10301E3D1C001E1D5402101222962EA
:1049E00001209BE04020286203216970012096E0AD
:1049F000802808BF43F48043E168206962694FF072
:104A0000140C0843A1691043226A0143E06908437A
:104A1000216843EAD003DFF8380443EA12130B603D
:104A20002368C318B3FBFCFC4FEA8C00A862204645
:104A300000F0E2FE00F07CF82068584518BF5045B1
:104A40004CD0484518BF404548D0B84218BFB04286
:104A500044D0DFF8001488421CBFDFF8BC2390422A
:104A60003CD0DFF8F43398421CBFDFF8B013884223
:104A700034D000F005FA1CBFDFF8A43398422DD0E3
:104A800000F0B8F91CBFDFF89C23904226D000F05C
:104A9000ADF91CBFDFF8901388421FD0DFF88C23DC
:104AA00090421CBFDFF88833984217D0DFF8841398
:104AB00088421CBFDFF8802390420FD0DFF87C33A0
:104AC00098421CBFDFF87813884207D0DFF87423C0
:104AD00090421CBFDFF8A43398421BD1204600F05F
:104AE000E3FEA068802804BF00216160E96A2079A4
:104AF0000860286B6A6B4260606838B1092805D28B
:104B0000204600F01FFF00F00CF803E00021A9632D
:104B1000E963296400210122296200206A70BDE84E
:104B2000F28FA96B00200860E86B2A6C4260704726
:104B300095F82820012102F01F0291404160704742
:104B400095F828203F2102F01F02914081607047B4
:104B50002DE9F84F04004FF0000B08BF012005D0ED
:104B600004F134063078012808BF022000F02F81BC
:104B7000012737707078012840F022814FF0020C35
:104B8000002786F801C0DFF878A2376220689F4FBF
:104B900000F06CF918BF48452AD0404518BFB8420C
:104BA00026D0994DA8421CBF964DA84220D0A94DB1
:104BB000A8421CBF984DA8421AD0A74DA8421CBFBE
:104BC000964DA84214D0DFF8D052A8421CBF944D95
:104BD000A8420DD0DFF8C452A8421CBF914DA84294
:104BE00006D0DFF8BC52A8421CBF8F4DA8420AD1A4
:104BF0002068D0F800C04FEA5C054FEA450C8646B5
:104C0000CEF800C006E02568286840084000AC46A1
:104C1000CCF80000204600F01DFD2068504518BF6C
:104C2000484528D0404518BFB84224D0764988422C
:104C30001CBF744A90421ED000F014F91CBF764984
:104C4000884218D000F023F91CBF744B984212D050
:104C5000DFF8441288421CBF714A90420BD000F02A
:104C6000FDF81CBF6F49884205D000F00CF91CBF4D
:104C70006D4B98420DD121680B200A6860F3440205
:104C80000B461A60F06890B12068016841F0080195
:104C90000CE0216805200A6860F343020B461A60A5
:104CA000F06820B12068016841F0040101602068CB
:104CB0006949594A674BDFF84CC1DFF84CE1504570
:104CC00018BF48453ED0404518BFB8423AD070455D
:104CD00018BF604536D0984218BF904232D0884203
:104CE0001CBF4E4DA8422DD0DFF8AC51A8421CBFCE
:104CF0004B4DA84226D0DFF8A451A8421CBF494D15
:104D0000A8421FD0DFF89851A8421CBF464DA842C8
:104D100018D0464DA8421CBF454DA84212D0454D63
:104D2000A8421CBF444DA8420CD0444DA8421CBF11
:104D3000434DA84206D0434DA8421CBFDFF83C516A
:104D4000A8420FD1F06A0568ED0303D5056845F464
:104D500080750560B06B28B105462E46286840F482
:104D6000807030602068504518BF484522D04045CB
:104D700018BFB8421ED0704518BF60451AD098427F
:104D800018BF904216D088421CBF2449884211D0D7
:104D900000F076F81CBF224B98420BD000F02AF8A6
:104DA0001CBF204A904205D000F020F81CBF1E49CD
:104DB000884202D100F00DF808E000F010F805E09C
:104DC00086F800B04FF400613162BB465846BDE83A
:104DD000F28F0268034642F001021A6070470146F2
:104DE0000A46086840F0010010607047DFF8B030F4
:104DF00098427047DFF8A410884270470000000016
:104E0000100002408800024070000240580002403A
:104E10004000024028000240B8000240280402403E
:104E20005804024088040240B80402400854025862
:104E30001C540258305402584454025858540258D2
:104E40006C540258805402583F8010FE0010005CE1
:104E5000F8ABFDA7A000024010040240DFF8543078
:104E600098427047DFF8483098427047DFF84C802E
:104E7000DFF84C90504570470000000094540258F1
:104E8000054A90427047DFF8302090427047DFF8C3
:104E90001C20904270470000400402407004024011
:104EA000A0040240074B99427047000010040240E2
:104EB000A000024070040240A004024040000240F2
:104EC00028000240400402402DE9FE4F0021DFF897
:104ED0001829019113684FF4165504460822DFF88B
:104EE0000CB9B3FBF5F5029504F13405686A0123AA
:104EF0000090DFF8FC78DFF8FC88DFF89099014635
:104F0000DFF88CA90E680168D4F800C0DC4518BF32
:104F1000D44531D0CC4518BFC4452DD0BC451CBFAD
:104F2000DFF870E9F44527D0DFF878EAF4451CBFD4
:104F3000DFF864E9F4451FD0DFF86CEAF4451CBFE4
:104F4000DFF858E9F44517D0DFF860EAF4451CBFF4
:104F5000DFF84CE9F4450FD0DFF854EAF4451CBF04
:104F6000DFF840E9F44507D0DFF848EAF4451CBF14
:104F7000DFF844EAF44541D100F048FB02FA00F0C2
:104F8000064200F09580DC4518BFD44531D0CC45B1
:104F900018BFC4452DD0BC451CBFDFF8F8188C45A0
:104FA00027D0DFF8000A84451CBFDFF8EC088445F1
:104FB0001FD0DFF8F4198C451CBFDFF8E0088445EA
:104FC00017D0DFF8E80984451CBFDFF8D4188C45FA
:104FD0000FD0DFF8DC0984451CBFDFF8C808844522
:104FE00007D0DFF8D0198C451CBFDFF8CC09844509
:104FF0004AD1DCF8000000F0040049E0DFF828693D
:10500000B4451CBFDFF82469B44518D0DFF8206927
:10501000B4451CBFDFF81C69B44510D0DFF818692F
:10502000B4451CBFDFF81469B44508D0DFF8106937
:10503000B4451CBFDFF81866B44540F0E582DCF8E3
:10504000006095F828C04FF0040E0CF01F0C0EFA0B
:105050000CFE11EA0E0FCDF800E000F04F825FEA7F
:10506000467E40F14B8200994160300440F1FC8162
:10507000F10300F13B826969002900F0C5822046F6
:1050800003B0BDE8F04F08476046006800F0080034
:1050900070B16046016821F00401CCF8001000F006
:1050A000B5FA824000988260296A41F001012962C4
:1050B00000F0ACFA26FA00F1CA073DD5216859453F
:1050C00018BF51452ED0494518BF41452AD0B94295
:1050D0001CBFDFF8C027914224D000F0B4FA1CBFF7
:1050E000DFF8B42791421DD000F0A9FA1CBFDFF809
:1050F000AC27914216D0DFF8B42891421CBFDFF8EC
:10510000A02791420ED000F092FA1CBFDFF894273E
:10511000914207D000F087FA1CBFDFF89C2891422B
:1051200040F092804969090606D583400098836063
:10513000296A41F00201296295F82800042200F052
:105140001F0002FA00F006423FD02168594518BFFF
:1051500051452FD0494518BF41452BD0B9421CBFFE
:10516000DFF83027914225D0DFF8383899421CBF4C
:10517000DFF8242791421DD000F061FA1CBFDFF850
:105180001C37994216D0DFF8242891421CBFDFF863
:10519000102791420ED0DFF8183899421CBFDFF873
:1051A0000427914206D000F03EFA1CBFDFF8083811
:1051B00099424BD1D1F800C05FEA8C7205D50099B5
:1051C0008860286A40F00400286295F828101022B0
:1051D00001F01F0102FA01F10E4259D02068584532
:1051E00018BF50452CD0484518BF404528D0B8427C
:1051F0001CBFDFF8A026904222D0FFF733FE1CBF71
:10520000DFF8942690421BD0FFF741FE1CBFDFF869
:105210008C36984214D0FFF733FE1CBFDFF880268F
:1052200090420DD0FFF71AFE1CBFDFF8782690429F
:1052300006D0FFF728FE1CBFDFF87C37984208D164
:10524000006800F0080009E00A6875E7084603688E
:10525000BBE78446DCF8000000F00400C0B1009811
:105260008160206801684A0307D5006801030BD5F7
:10527000696969B1204688470AE00168CA0503D414
:10528000036823F008030360E96809B120468847F2
:1052900095F82810202001F01F0100FA01F10E42BC
:1052A0003BD02068584518BF50452DD0484518BF01
:1052B000404529D0B8421CBFDFF8D825904223D002
:1052C000FFF7D0FD1CBFDFF8D065B0421CD0FFF760
:1052D000DEFD1CBFDFF8C435984215D0DFF8CC6680
:1052E000B0421CBFDFF8B82590420DD0FFF7B6FDE5
:1052F0001CBFDFF8B065B04206D0FFF7C4FD1CBF8D
:10530000DFF8B436984203D1006800F0100003E0E3
:105310000246106800F00200002847D00098816023
:1053200020686978042927D1026822F016020260F9
:105330002068436923F080034361E968002904BFC2
:105340006869002804D02068016821F00801016024
:1053500095F8282000993F2002F01F0290408860B5
:105360000020287001226A70E969002920D02046B7
:1053700003B0BDE8F04F084701684A0307D500684D
:1053800001030FD4296989B1204688470EE00168DE
:10539000CA0507D40368012123F01003036000202D
:1053A00028706970A96809B120468847286A0028D2
:1053B00000F02A81296AC80755D504226A7020683E
:1053C000584518BF50452ED0484518BF40452AD0F3
:1053D000B8421CBFDFF8BC14884224D0DFF8C425D3
:1053E00090421CBFDFF8B03498421CD000F017F98F
:1053F0001CBFDFF8A824904215D000F01CF91CBF98
:10540000DFF89C1488420ED0DFF8A42590421CBF20
:10541000DFF89034984206D000F0FDF81CBFDFF8AA
:105420009825904217D1206803685B085B0001460D
:105430000B600298019A521C90420192216802D39B
:105440000A68D307F6D4002028700968CA074CBF41
:105450000323012306E02068016849084900024649
:105460001160E6E76B70C8E0B0063FD4206858458D
:1054700018BF50452ED0484518BF40452AD0B842E5
:105480001CBFDFF81014884224D0DFF818259042A2
:105490001CBFDFF8043498421CD000F0C0F81CBFD9
:1054A000DFF8F823904215D000F0C5F81CBFDFF8F4
:1054B000F01388420ED0DFF8F82490421CBFDFF8CA
:1054C000E433984206D000F0A6F81CBFDFF8E824C9
:1054D000904205D10368014623F008030B6005E004
:1054E00002461346106820F004001860E96800299D
:1054F00018D0204603B0BDE8F04F08474FF0020E29
:105500000EFA0CFE11EA0E0FCDF800E05DD05FEA56
:10551000867E5AD500994160300409D5F1034DD4F7
:105520002969002970D0204603B0BDE8F04F084734
:10553000B00643D42068584518BF50452ED0484582
:1055400018BF40452AD0B8421CBFDFF84813884234
:1055500024D0DFF8502490421CBFDFF83C3398423F
:105560001CD000F05CF81CBFDFF83023904215D04F
:1055700000F061F81CBFDFF8281388420ED0DFF876
:10558000302490421CBFDFF81C33984206D000F054
:1055900042F81CBFDFF82024904205D10368014681
:1055A00023F014030B6005E002461346106820F058
:1055B0000A0018600021012229706A70A96819B3D5
:1055C000204603B0BDE8F04F084702FA0CF2114242
:1055D0001AD0310718D52268166826F00E0617462D
:1055E00000223E6095F8281001F01F018B404360B7
:1055F0000120286201212A706970A96921B1204621
:1056000003B0BDE8F04F0847BDE8F78F95F82800D4
:1056100000F01F007047DFF89C1388427047DFF8E6
:10562000881388427047DFF88C2391427047DFF877
:10563000802391427047DFF8743398427047DFF857
:10564000682391427047DFF85C2391427047000065
:10565000945402582DE9F84F0446DFF890A1A56D47
:10566000DFF830B200952668DFF884C1DFF884E106
:10567000DFF81882DFF81892564518BF4E4543D020
:10568000464518BF76453FD0664518BF5E453BD0BE
:10569000DFF8100386421CBF7F4FBE4234D0DFF8D4
:1056A000080386421CBF7D4886422DD0DFF8FC727D
:1056B000BE421CBF7A48864226D0DFF8F4028642FA
:1056C0001CBF784FBE421FD0DFF8E80286421CBFE5
:1056D000DFF8E402864217D0934FBE421CBF9348C6
:1056E000864211D0924886421CBF924FBE420BD0D8
:1056F000914886421CBF9148864205D0904FBE42D9
:105700001CBFAE4886425BD1676EA06E7860E06ECB
:1057100010B1206F676F4760564518BF4E4525D0C2
:10572000464518BF764521D0664518BF5E451DD059
:105730009C4886421CBF5848864217D09A488642E9
:105740001CBF5648864211D0984886421CBF544818
:1057500086420BD0964886421CBF5248864205D0EE
:10576000944886421CBF9448864215D194F85C0048
:10577000DDF800B03F2500F01F008540CBF8085051
:10578000356825F4802535607360A068402827D0EF
:10579000B160F260BDE8F18F634886421CBF634888
:1057A000864210D0624886421CBF624886420AD0B8
:1057B000614886421FBF614886426148864202D0E6
:1057C0007E488642E6D194F85C00012700F01F0075
:1057D00007FA00FCC5F804C07360A368402BD7D15A
:1057E000B260F160D6E70000D80700241000024044
:1057F0007000024058000240F0B50168704A9142C2
:105800001CBF234B994229D0204CA1421CBF6D4A9A
:10581000914223D06C4B99421CBF1E4CA1421DD01B
:10582000FFF711FF1CBF1C4B994217D05E4CA142E1
:105830001CBF1A4A914211D0FFF734FB1CBF184C11
:10584000A1420BD0FFF7F3FE1CBF164B994205D0C7
:10585000584CA1421CBF584A914211D101F0FF039C
:10586000890A103B1824B3FBF4F20FF2A01502F0E2
:1058700007068902AF5D042AC76503D3091D01E04D
:10588000090A090281650846F0BD00004000024097
:105890002800024088000240B8000240280402406C
:1058A0005804024088040240F0B5046801221E4DED
:1058B0002346AC421CBF1D4EB44211D01C4FBC420B
:1058C0001CBF1C4DAC420BD01B4EB4421CBF1B4F27
:1058D000BC4205D01A4DAC421CBF384EB4420DD16B
:1058E00004F0FF0108391423384DB1FBF3F1384BB4
:1058F00003EB810301F01F018A4011E004F0FF0176
:1059000010391824B1FBF4F43249CB18A92B38BF55
:105910000834314B314D03EB840304F01F04A240E3
:10592000036645668266F0BD085402581C5402584E
:105930003054025844540258585402586C54025877
:10594000805402580179002900D170470929F0B527
:1059500027D20268224B9A421CBF224DAA4211D084
:10596000214EB2421CBF214B9A420BD0204DAA427D
:105970001CBF204EB24205D01F4FBA421CBF0F4D74
:10598000AA4204D11D4B1E4A03EB810403E01D4AC9
:1059900002EB81041C4A0123491E8B40C466026746
:1059A0004367F0BDA00002401004024040040240E2
:1059B00070040240A0040240B8040240945402580B
:1059C0001000024058000240700002408058025807
:1059D00000580258F0FBFDBF00080240800802405A
:1059E000085402581C540258305402584454025867
:1059F000585402586C54025880540258FC580258AB
:105A000040590258FC0802404009024000061016A6
:105A10000006101601484068704700BFB407002414
:105A2000F8B5044600202070CA4D607005F5BC71C1
:105A3000A07001202071032260710023A071FF205B
:105A4000A1600521E2610A2284F8200004F12C0003
:105A5000E3704FF48476E371E36023746374A3749A
:105A60006361A161BC496362A26240F207120370E4
:105A70004360836001F20313036101F58A7100231F
:105A8000C56041614FF4A871826140F25112C36157
:105A900004F163000370437004F168000423816023
:105AA000036005F5866303610523C36100214FF49C
:105AB000FA734660C260002641610422816101627E
:105AC00041628162C1620163436336238163C163C2
:105AD000016441648164C164016504F1BC0001702A
