:020000040800F2
:10000000686F0024E9A8010831A5010833A501089B
:1000100035A5010837A5010839A501080000000031
:100020000000000000000000000000003BA50108E7
:100030003DA50108000000003FA5010841A50108F9
:1000400025A9010829A901082DA9010831A901083C
:1000500035A9010839A901083DA9010841A90108EC
:1000600045A9010849A901084DA9010851A901089C
:1000700049A5010855A9010853A5010859A9010876
:100080005DA9010861A901085DA5010865A901082C
:1000900069A901086DA9010871A9010875A90108DC
:1000A00079A901087DA9010881A9010885A901088C
:1000B00067A5010889A901088DA9010891A901086E
:1000C00095A9010899A901089DA9010895A501080C
:1000D000A1A90108A5A90108A9A90108ADA90108BC
:1000E000B1A90108B5A9010800000000B9A90108DB
:1000F000BDA90108C1A90108C5A90108C9A901082C
:10010000CDA90108D1A90108D5A90108D9A90108DB
:100110009FA50108DDA90108E1A90108E5A90108D9
:10012000E9A90108EDA90108F1A90108F5A901084B
:10013000F9A90108FDA9010801AA010805AA0108F9
:1001400000000000000000000000000000000000AF
:1001500009AA01080DAA010811AA010815AA010897
:1001600019AA01081DAA010821AA010825AA010847
:1001700029AA01082DAA010831AA010800000000DF
:1001800035AA010839AA01083DAA0108DDA5010820
:1001900041AA010845AA0108E7A5010849AA0108E2
:1001A0004DAA010851AA010855AA010859AA010837
:1001B0005DAA010861AA010865AA010869AA0108E7
:1001C0006DAA010871AA010875AA010879AA010897
:1001D0007DAA010881AA010885AA010889AA010847
:1001E0008DAA010891AA010895AA010899AA0108F7
:1001F0009DAA0108A1AA0108A5AA0108A9AA0108A7
:10020000ADAA0108B1AA0108B5AA0108B9AA010856
:10021000BDAA0108C1AA0108C5AA0108C9AA010806
:10022000CDAA0108D1AA0108D5AA01080000000042
:10023000D9AA0108DDAA010800000000F1A5010803
:10024000E1AA0108E5AA0108E9AA0108EDAA010846
:10025000F1AA0108F5AA0108F9AA0108FDAA0108F6
:1002600001AB010805AB010809AB01080DAB0108A2
:1002700011AB010815AB010819AB01080000000023
:100280001DAB010821AB010825AB010800000000EF
:100290000000000029AB010841302ED1D2C0D2D3DA
:1002A000D12020202020202020202020000000001D
:1002B000FAFF0000000000008A00000041312EC05B
:1002C000C2C0D020CFD0CED6C5D1D1C020202020D2
:1002D00000000000FAFF0000000000000A09000012
:1002E00041322EC0C2C0D020D1C5D2C8202020208B
:1002F0002020202000000000FAFF00000000000085
:100300008A11000041332EC0C2C0D020CDC0C3D05E
:10031000D3C7CAC82020202000000000FAFF000038
:10032000000000000A1A000041342EC0C2C0D020D4
:10033000D3D1D2D0CEC9D1D22020202000000000BD
:10034000FAFF0000000000008A22000041352EC2A2
:10035000D5CEC4C02020D2D3202020202020202091
:1003600000000000FAFF0000000000000A2B00005F
:1003700041362EC2DBD5CEC4C020D2D120202020D1
:100380002020202000000000FAFF000000000000F4
:100390008A33000041372ECFCECBCEC620DDCDCA6A
:1003A000CEC420202020202000000000FFFF0000FD
:1003B000000000000840000041382ECCCECCC5CD56
:1003C000D2202020202020202020202000000000FB
:1003D000FFFF0000000000000840000041392ED15E
:1003E000CACED0CED1D2DC20202020202020202038
:1003F000F0F1FFFF100E0000000000008830000048
:100400004131302ECDC0CFD0204C312020202020B3
:10041000C220202000000000F401000000000000C5
:10042000082000004131312ECDC0CFD0204C3220E9
:1004300020202020C220202000000000F401000025
:1004400000000000082000004131322ECDC0CFD086
:10045000204C332020202020C2202020000000003B
:10046000F401000000000000082000004131332E9C
:10047000D2CECA205520202020202020412020201C
:1004800000000000401F00000000000008320000D3
:100490004131342ED2CECA205620202020202020C8
:1004A0004120202000000000401F0000000000004C
:1004B000083200004131352ED2CECA2057202020EC
:1004C000202020204120202000000000401F0000AC
:1004D00000000000083200004131362ED3C3CECBDD
:1004E00020CDC0C3D0202020202020204CFFFFFFA3
:1004F000B400000000000000882000004131372EC9
:1005000043414C494220535441544520202020204F
:10051000000000000300000000000000093C000093
:100520004131382ECFCECBCEC6C5CDC8C520202078
:100530002520202018FCFFFFD0070000000000004D
:10054000883200004131392ECFCECBCDDBC920CF50
:10055000D3D2DC20CEC1202000000000B80B000068
:1005600000000000083200004132302ED2C5CAD34C
:10057000D9C8C920CFD3D2DCCEC1202048F4FFFF98
:10058000B80B000000000000883200004132312E1C
:10059000D1D7C5D220D6C8CACBCEC2202020202099
:1005A00000000000FAFF000000000000084000000A
:1005B0004132322ED2C5CCCFC5D0C0D2D3D0C0208C
:1005C000202020209CFFFFFF6400000000000000AE
:1005D000882000004132332EC2C5D0D1C8DF20CFE1
:1005E000CE2020202020202000000000FAFF000064
:1005F00000000000083600004132342ECDC0CFD0BC
:1006000020564443202020202020202000000000ED
:10061000FFFF000000000000084000004132352EBE
:10062000D2C5CCCFC5D020C4C2C8C3202020202032
:1006300019FCFFFFE7030000000000008820000015
:100640004132362E5245534552562020202020203C
:100650002020202000000000FFFF0000000000001C
:10066000084000004132372E524553455256202053
:10067000202020202020202000000000FFFF00007C
:1006800000000000084000004132382E524553451A
:100690005256202020202020202020200000000072
:1006A000FFFF000000000000084000004132392E2A
:1006B0005245534552562020202020202020202023
:1006C00000000000FFFF00000000000008400000E4
:1006D0004133302E524553455256202020202020B1
:1006E0002020202000000000FFFF0000000000008C
:1006F000084000004133312E5245534552562020C8
:10070000202020202020202000000000FFFF0000EB
:1007100000000000084000004133322E524553458E
:1007200052562020202020202020202000000000E1
:10073000FFFF000000000000084000004133332E9E
:100740005245534552562020202020202020202092
:1007500000000000FFFF0000000000000840000053
:100760004133342E5245534552562020202020201C
:100770002020202000000000FFFF000000000000FB
:10078000084000004133352E524553455256202033
:10079000202020202020202000000000FFFF00005B
:1007A00000000000084000004133362E52455345FA
:1007B0005256202020202020202020200000000051
:1007C000FFFF000000000000084000004133372E0A
:1007D0005245534552562020202020202020202002
:1007E00000000000FFFF00000000000008400000C3
:1007F0004133382E52455345525620202020202088
:100800002020202000000000FFFF0000000000006A
:10081000084000004133392E52455345525620209E
:10082000202020202020202000000000FFFF0000CA
:10083000000000000840000042302ECCCECCC5CDD8
:10084000D2204F544B5020202020202000000000B8
:100850003C000000020000005041000042312ECC5C
:10086000CECCC5CDD22033414B502020202020209B
:10087000000000003C0000000200000050410000A9
:1008800042322ECCCECC20D3CFCB20C7C0CAD02072
:1008900020202020000000003C000000020000009A
:1008A0005041000042332E434C20535441525420B7
:1008B0005452512020202020000000003C00000065
:1008C000040000005041000042342E4F5020534598
:1008D000414C2054525120202020202000000000B4
:1008E0003C000000020000005041000042352E4F45
:1008F0005020535441525420545251202020202043
:10090000000000003C000000040000005041000016
:100910002020204232392E52455345525620202065
:100920002020202000000000FFFF00000000000049
:100930000840000042372E5345414C205459504541
:1009400020202020202020200100000004000000A2
:1009500001000000513F000042382E524F44205405
:100960005950452020202020202020200000000079
:100970000100000000000000D141000042392E5A61
:100980004F4E4520434C4F5345202020202020200F
:1009900000000000B80B00000A0000005032000008
:1009A0004231302E5A4F4E45204F50454E20202088
:1009B0002020202000000000B80B00000A000000EA
:1009C000503200004231312E4F4646534554205A92
:1009D0004F4E452020202020000000006400000031
:1009E00000000000502200004231322E504153538B
:1009F000574F525744202020202020200000000084
:100A0000FAFF00000000000000400000202020420B
:100A100031332E54494D45202020202020202020F5
:100A200000000000FAFF00000000000013100000AA
:100A30002020204231342E444154452020202020C3
:100A40002020202000000000FAFF0000000000002D
:100A5000142000002020204231352E5245534552AB
:100A6000562020202020202000000000FFFF000052
:100A700000000000084000002020204231362E52A5
:100A80004553455256202020202020200000000001
:100A9000FFFF000000000000084000004231372E38
:100AA0004D552F445520202020202020202020207C
:100AB000000000000300000001000000D14300001E
:100AC0004231382E445520534F5552534520202053
:100AD0002020202000000000030000000000000093
:100AE000D04500004231392E424C4F4B205A414CE8
:100AF000495020202020202000000000010000009C
:100B000000000000504000004232302E434F4D4D57
:100B1000414E442054494D455320202001000000FF
:100B20006400000001000000502200004232312E1B
:100B3000494E20545950205349472020202020203E
:100B40000000000001000000000000005040000014
:100B50004232322E494E204D41534B20202020203E
:100B600020202020000000001F00000000000000E6
:100B7000554000004232332E4F5554204D41534BC7
:100B8000202020202020202000000000FAFF00006C
:100B900000000000557000004232342E424155449E
:100BA0002052415445202020202020200000000019
:100BB0000600000003000000D14900004232352E3B
:100BC0004144524553532020202020202020202023
:100BD0000100000020000000010000005010000093
:100BE0004232362E434F4D4D20545950452020203F
:100BF0002020202000000000020000000000000073
:100C0000D17000004232372E4D5546462054494D92
:100C10004520202053202020030000006400000015
:100C200014000000502200004232382EC2D0C5CC41
:100C300020D0C0C7C3CECDC020202020000000009F
:100C40006400000064000000502200004232392E8F
:100C5000D1CACED020CCC0CAD1202020C3D62020DB
:100C600000000000F4010000F40100005022000028
:100C70004233302EC2D0C5CC20D2CED0CCCEC6206E
:100C8000202020200000000064000000640000001C
:100C9000502200002020204233312E52455345522D
:100CA000562020202020202000000000FFFF000010
:100CB00000000000084000004233322E4E4F204D0D
:100CC0004F56452054494D45532020200300000035
:100CD0006400000014000000502200004233332E54
:100CE0005345414C20574159202020204F4220207D
:100CF00001000000E8030000640000005032000022
:100D00004233342ED2C8CF20D2CED0CCCEC6C5CD21
:100D10002020202000000000020000000000000051
:100D2000084000004233352EC2D0C5CCDF20D2CEE1
:100D3000D0CC2020202020200000000064000000F3
:100D400000000000084200004233362EC7C0C4C075
:100D5000CD20CFCECBCEC620252020200000000005
:100D6000E80300000000000050320000204233374A
:100D70002ECACF20D0C5C320202020202020202014
:100D800000000000FFFF00001E00000050460000B1
:100D90002020204233382E524553455256202020E1
:100DA0002020202000000000FFFF000000000000C5
:100DB000084000002020204233392E52455345522E
:100DC000562020202020202000000000FFFF0000EF
:100DD00000000000084000002020204234302E5245
:100DE000455345525620202020202020000000009E
:100DF000FFFF00000000000008400000202020420B
:100E000034312E5245534552562020202020202098
:100E100000000000FFFF000000000000084000008C
:100E20002020204234322E52455345525620202055
:100E30002020202000000000FFFF00000000000034
:100E4000084000002020204234332E5245534552A2
:100E5000562020202020202000000000FFFF00005E
:100E600000000000084000002020204234342E52B0
:100E7000455345525620202020202020000000000D
:100E8000FFFF00000000000008400000202020427A
:100E900034352E5245534552562020202020202004
:100EA00000000000FFFF00000000000008400000FC
:100EB0002020204234362E524553455256202020C1
:100EC0002020202000000000FFFF000000000000A4
:100ED000084000002020204234372E52455345520E
:100EE000562020202020202000000000FFFF0000CE
:100EF00000000000084000002020204234382E521C
:100F0000455345525620202020202020000000007C
:100F1000FFFF0000000000000840000020202042E9
:100F200034392E524553455256202020202020206F
:100F300000000000FFFF000000000000084000006B
:100F40002043302E50415353574F524420202020ED
:100F50002020202000000000FAFF00000000000018
:100F60000040000043312E45502054595045202068
:100F70002020202020202020000000001900000058
:100F8000000000006010000043322E5945415220FD
:100F90004F462050524F44202020202000000000C7
:100FA00063000000160000006010000043332E466E
:100FB0004143544F5259204E554D2020202020208F
:100FC000000000000F27000000000000603000005B
:100FD00043342E4D415820544F5251202020202080
:100FE000202020200A000000701700000A000000E6
:100FF0006034000043352E4E4F4D2043555252452C
:101000004E5420204120202001000000B0040000A8
:101010000A0000006022000043362E4B502052454B
:10102000442020202020202020202020010000001B
:10103000FAFF0000204E00006044000043372E49B4
:101040004E44594320545950452020202020202030
:1010500000000000010000000000000060400000EF
:1010600043382E494E4459432052455320542020A2
:1010700053202020000000001E0000000A00000095
:101080006010000043392E534554204445464F55C7
:101090004C542020202020200000000001000000EF
:1010A00000000000214E00004331302E53554256BF
:1010B000455253494F4E20202020202000000000A0
:1010C000FFFF000000000000084000004331312E07
:1010D00048414C4C2053544154452020202020208E
:1010E00000000000FFFF00000000000008400000BA
:1010F00020D131322ECACED020D2CECAC020552027
:101100002020202000000000FAFF0000A00F0000B7
:101110006040000020D131332ECACED020D2CECABA
:10112000C02056202020202000000000FAFF0000F0
:10113000A00F00006040000020D131342ECACED074
:1011400020D2CECAC020572020202020000000003E
:10115000FAFF0000A00F000060400000D131352EE2
:10116000D1CCC5D920D2CECAC020552020202020E5
:1011700000000000FAFF0000B27F000060400000A5
:10118000D131362ED1CCC5D920D2CECAC0205620DE
:101190002020202000000000FAFF0000B27F0000A5
:1011A00060400000D131372ED1CCC5D920D2CECA73
:1011B000C02057202020202000000000FAFF00005F
:1011C000B27F00006040000020D131382ECACED05E
:1011D00020CDC0CFD02052202020202000000000B1
:1011E000FAFF0000D00700006040000020D1313934
:1011F0002ECACED020CDC0CFD020532020202020FA
:1012000000000000FAFF0000D0070000604000006E
:1012100020D132302ECACED020CDC0CFD020542005
:101220002020202000000000FAFF0000D00700006E
:1012300060400000D132312ED1CCC5D920CDC0CFF5
:10124000D02052202020202000000000FAFF0000C3
:10125000F87F000060400000D132322ED1CCC5D9D9
:1012600020CDC0CFD020532020202020000000001F
:10127000FAFF0000F87F000060400000D132332EFA
:10128000D1CCC5D920CDC0CFD020542020202020C3
:1012900000000000FAFF0000F87F0000604000003E
:1012A00020D132342ECACED020CDC0CF20564443D8
:1012B0002020202000000000FAFF0000D8040000D9
:1012C00060400000D132352ED1CCC5D920CDC0CF61
:1012D000205644432020202000000000FAFF000098
:1012E000000000006040000020D132362ECACED06F
:1012F00020D2CECAC0204252202020200000000070
:10130000FAFF0000D804000060400000D132372E00
:10131000D1CCC5D920D2CECAC02042522020202014
:1013200000000000FAFF0000000000006040000024
:10133000D132382ECFCED1D22EC2D02ED1C8CD2090
:101340004DCA4320000000006400000015000000AA
:1013500060220000D132392ECFCED1D22EC2D02E73
:10136000524D53204DCA432000000000640000008D
:101370000100000060220000D133302ECED2CACB53
:1013800020D2DDCD20202020202020200A000000B7
:101390003C0000002900000060200000D133312E05
:1013A000C2DBC1CED020CCCED9CD20202020202021
:1013B000000000000100000001000000603E00008D
:1013C000D133322ECCCEC420CFC8D2C0CDC8DF207E
:1013D000202020200000000001000000010000008B
:1013E000608100004333332ED2C8CF20C4C0D2D78F
:1013F00020CFCECB202020200000000010000000D5
:101400000000000060100000202020D133342E5254
:101410004553455256202020202020200000000067
:10142000FFFF00000000000008400000202020D145
:1014300033352E524553455256202020202020205F
:1014400000000000FFFF0000000000000840000056
:10145000202020D133362E5245534552562020208D
:101460002020202000000000FFFF000000000000FE
:1014700008400000202020D133372E5245534552DA
:10148000562020202020202000000000FFFF000028
:101490000000000008400000202020D133382E52E8
:1014A00045534552562020202020202000000000D7
:1014B000FFFF00000000000008400000202020D1B5
:1014C00033392E52455345525620202020202020CB
:1014D00000000000FFFF00000000000008400000C6
:1014E000D134302EC0D6CFD2CED7312034202020D8
:1014F0002020202000000000FFFF0000901A0000C4
:1015000060400000D134312EC0D6CFD2CED73220A9
:10151000342E35202020202000000000FFFF000096
:10152000E81C000060400000D134322EC0D6CFD27B
:10153000CED733203520202020202020000000009E
:10154000FFFF0000401F000060400000D134332E38
:10155000C0D6CFD2CED73420352E35202020202023
:1015600000000000FFFF0000982100006040000024
:10157000D134342EC0D6CFD2CED73520362020203D
:101580002020202000000000FFFF0000F0230000CA
:1015900060400000D134352EC0D6CFD2CED7362011
:1015A000362E35202020202000000000FFFF000004
:1015B0004826000060400000D134362EC0D6CFD27D
:1015C000CED7372037202020202020200000000008
:1015D000FFFF0000A028000060400000D134372E3B
:1015E000C0D6CFD2CED73820372E3520202020208D
:1015F00000000000FFFF0000F82A0000604000002B
:10160000D134382EC0D6CFD2CED7392038202020A2
:101610002020202000000000FFFF0000462D0000D9
:1016200060400000D134392EC0D6CFD2CED7313071
:1016300020382E352020202000000000FFFF000071
:101640009E2F000060400000D135302EC0D6CFD292
:10165000CED731312039202020202020000000006A
:10166000FFFF0000F631000060400000D135312E50
:10167000C0D6CFD2CED7313220392E3520202020EF
:1016800000000000FFFF00004E340000604000003A
:10169000D135322EC0D6CFD2CED731332031302003
:1016A0002020202000000000FFFF00009C360000EA
:1016B00060400000D135332EC0D6CFD2CED73134E2
:1016C000203130352020202000000000FFFF0000E6
:1016D000F438000060400000D135342EC0D6CFD29F
:1016E000CED73135203131202020202000000000CD
:1016F000FFFF0000423B000060400000D135352E66
:10170000C0D6CFD2CED7313620313135202020205F
:1017100000000000FFFF0000A43D0000604000004A
:10172000D135362EC0D6CFD2CED731372031322068
:101730002020202000000000FFFF0000F23F0000FA
:1017400060400000D135372EC0D6CFD2CED7313849
:10175000203132352020202000000000FFFF000053
:101760004A42000060400000D135382EC0D6CFD2AA
:10177000CED7313920313320202020200000000036
:10178000FFFF00009844000060400000D135392E72
:10179000C0D6CFD2CED732302031333520202020D2
:1017A00000000000FFFF0000FA460000604000005B
:1017B000D136302EC0D6CFD2CED7323120313420E0
:1017C0002020202000000000FFFF0000484900000A
:1017D00060400000D136312EC0D6CFD2CED73232C3
:1017E000203134352020202000000000FFFF0000C1
:1017F000A04B000060400000D136322EC0D6CFD2C0
:10180000CED73233203135202020202000000000A8
:10181000FFFF0000F84D000060400000D136332E7D
:10182000C0D6CFD2CED7323420313535202020203B
:1018300000000000FFFF000050500000604000006A
:10184000D136342EC0D6CFD2CED732352031362045
:101850002020202000000000FFFF00009E5200001A
:1018600060400000D136352EC0D6CFD2CED732362A
:10187000203136352020202000000000FFFF00002E
:10188000F654000060400000D136362EC0D6CFD2CC
:10189000CED7323720313720202020200000000012
:1018A000FFFF00004E57000060400000D136372E89
:1018B000C0D6CFD2CED732382031373520202020A5
:1018C00000000000FFFF0000A6590000604000007B
:1018D000D136382EC0D6CFD2CED7323920313820AB
:1018E0002020202000000000FFFF0000FE5B000021
:1018F00060400000D136392EC0D6CFD2CED733309B
:10190000203138352020202000000000FFFF00009B
:10191000515E000060400000D137302EC0D6CFD2DB
:10192000CED7333120313920202020200000000084
:10193000FFFF0000AE60000060400000D137312E94
:10194000C0D6CFD2CED73332203139352020202017
:1019500000000000FFFF0000FC620000604000008B
:10196000D137322EC0D6CFD2CED73333203230202B
:101970002020202000000000FFFF00005465000030
:1019800060400000D137332ED6C0D0D2CED7312020
:10199000342020202020202000000000FFFF000035
:1019A0000A19000060400000D137342ED6C0D0D2D2
:1019B000CED73220342E35202020202000000000F9
:1019C000FFFF0000321C000060400000D137352EC0
:1019D000D6C0D0D2CED733203520202020202020C2
:1019E00000000000FFFF0000541F000060400000E6
:1019F000D137362ED6C0D0D2CED73420352E352092
:101A00002020202000000000FFFF000074220000C2
:101A100060400000D137372ED6C0D0D2CED7352087
:101A2000362020202020202000000000FFFF0000A2
:101A30009425000060400000D137382ED6C0D0D2A7
:101A4000CED73620362E3520202020200000000062
:101A5000FFFF0000B428000060400000D137392E9D
:101A6000D6C0D0D2CED7372037202020202020202B
:101A700000000000FFFF0000D42B000060400000C9
:101A8000D138302ED6C0D0D2CED73820372E352000
:101A90002020202000000000FFFF0000F42E0000A6
:101AA00060400000D138312ED6C0D0D2CED73920F8
:101AB000382020202020202000000000FFFF000010
:101AC0001432000060400000D138322ED6C0D0D28F
:101AD000CED7313020382E352020202000000000C5
:101AE000FFFF00003435000060400000D138332E85
:101AF000D6C0D0D2CED7313120392020202020208E
:101B000000000000FFFF00005438000060400000AB
:101B1000D138342ED6C0D0D2CED7313220392E355E
:101B20002020202000000000FFFF0000743B000088
:101B300060400000D138352ED6C0D0D2CED7313358
:101B4000203130202020202000000000FFFF000076
:101B50009E3E000060400000D138362ED6C0D0D264
:101B6000CED7313420313035202020200000000035
:101B7000FFFF0000BE41000060400000D138372E5A
:101B8000D6C0D0D2CED731352031312020202020F0
:101B900000000000FFFF0000DE4400006040000085
:101BA000D138382ED6C0D0D2CED7313620313135CB
:101BB0002020202000000000FFFF0000FE47000062
:101BC00060400000D138392ED6C0D0D2CED73137C0
:101BD000203132202020202000000000FFFF0000E4
:101BE0001E4B000060400000D139302ED6C0D0D24C
:101BF000CED731382031323520202020000000009F
:101C0000FFFF0000484E000060400000D139312E37
:101C1000D6C0D0D2CED73139203133202020202059
:101C200000000000FFFF000068510000604000005D
:101C3000D139322ED6C0D0D2CED732302031333542
:101C40002020202000000000FFFF0000885400003A
:101C500060400000D139332ED6C0D0D2CED7323139
:101C6000203134202020202000000000FFFF000051
:101C7000A857000060400000D139342ED6C0D0D221
:101C8000CED7323220313435202020200000000011
:101C9000FFFF0000C85A000060400000D139352E17
:101CA000D6C0D0D2CED732332031352020202020CC
:101CB00000000000FFFF0000E85D00006040000041
:101CC000D139362ED6C0D0D2CED7323420313535A8
:101CD0002020202000000000FFFF0000086100001D
:101CE00060400000D139372ED6C0D0D2CED73235A1
:101CF000203136202020202000000000FFFF0000BF
:101D00002864000060400000D139382ED6C0D0D2FF
:101D1000CED732362031363520202020000000007A
:101D2000FFFF00004867000060400000D139392EF5
:101D3000D6C0D0D2CED73237203137202020202035
:101D400000000000FFFF0000726A00006040000019
:101D5000D13130302ED6C0D0D2CED732383137350F
:101D60002020202000000000FFFF0000926D0000F6
:101D700060400000D13130312ED6C0D0D2CED73223
:101D8000393138202020202000000000FFFF000013
:101D9000B270000060400000D13130322ED6C0D089
:101DA000D2CED7333031383520202020000000003B
:101DB000FFFF0000D273000060400000D1313033DB
:101DC0002ED6C0D0D2CED73331313920202020209A
:101DD00000000000FFFF0000F276000060400000FD
:101DE000D13130342ED6C0D0D2CED733323139357E
:101DF0002020202000000000FFFF0000127A0000D9
:101E000060400000D13130352ED6C0D0D2CED7338D
:101E1000332032302020202000000000FFFF00008F
:101E20003C7D000060400000202020D13130362E63
:101E3000524553455256202020202020000000000B
:101E4000FFFF00000000000008400000202020D11B
:101E50003130372E52455345525620202020202025
:101E600000000000FFFF000000000000084000002C
:101E7000202020D13130382E524553455256202053
:101E80002020202000000000FFFF000000000000D4
:101E900008400000202020D13130392E52455345D2
:101EA000525620202020202000000000FFFF0000CC
:101EB0000000000008400000202020D13131302EE9
:101EC000524553455256202020202020000000007B
:101ED000FFFF00000000000008400000202020D18B
:101EE0003131312E5245534552562020202020209A
:101EF00000000000FFFF000000000000084000009C
:101F0000202020D13131322E5245534552562020C7
:101F10002020202000000000FFFF00000000000043
:101F200008400000202020D13131332E5245534546
:101F3000525620202020202000000000FFFF00003B
:101F40000000000008400000202020D13131342E54
:101F500052455345525620202020202000000000EA
:101F6000FFFF00000000000008400000202020D1FA
:101F70003131352E52455345525620202020202005
:101F800000000000FFFF000000000000084000000B
:101F9000202020D13131362E524553455256202033
:101FA0002020202000000000FFFF000000000000B3
:101FB00008400000202020D13131372E52455345B2
:101FC000525620202020202000000000FFFF0000AB
:101FD0000000000008400000202020D13131382EC0
:101FE000524553455256202020202020000000005A
:101FF000FFFF00000000000008400000202020D16A
:102000003131392E52455345525620202020202070
:1020100000000000FFFF000000000000084000007A
:10202000202020D13132302E5245534552562020A7
:102030002020202000000000FFFF00000000000022
:1020400008400000202020D13132312E5245534526
:10205000525620202020202000000000FFFF00001A
:102060000000000008400000202020D13132322E34
:1020700052455345525620202020202000000000C9
:10208000FFFF00000000000008400000202020D1D9
:102090003132332E524553455256202020202020E5
:1020A00000000000FFFF00000000000008400000EA
:1020B000202020D13132342E524553455256202013
:1020C0002020202000000000FFFF00000000000092
:1020D00008400000202020D13132352E5245534592
:1020E000525620202020202000000000FFFF00008A
:1020F0000000000008400000202020D13132362EA0
:102100005245534552562020202020200000000038
:10211000FFFF00000000000008400000202020D148
:102120003132372E52455345525620202020202050
:1021300000000000FFFF0000000000000840000059
:10214000202020D13132382E52455345525620207E
:102150002020202000000000FFFF00000000000001
:1021600008400000202020D13132392E52455345FD
:10217000525620202020202000000000FFFF0000F9
:102180000000000008400000202020D13133302E14
:1021900052455345525620202020202000000000A8
:1021A000FFFF00000000000008400000202020D1B8
:1021B0003133312E524553455256202020202020C5
:1021C00000000000FFFF00000000000008400000C9
:1021D000202020D13133322E5245534552562020F3
:1021E0002020202000000000FFFF00000000000071
:1021F00008400000202020D13133332E5245534572
:10220000525620202020202000000000FFFF000068
:102210000000000008400000202020D13133342E7F
:102220005245534552562020202020200000000017
:10223000FFFF00000000000008400000202020D127
:102240003133352E52455345525620202020202030
:1022500000000000FFFF0000000000000840000038
:10226000202020D13133362E52455345525620205E
:102270002020202000000000FFFF000000000000E0
:1022800008400000202020D13133372E52455345DD
:10229000525620202020202000000000FFFF0000D8
:1022A0000000000008400000202020D13133382EEB
:1022B0005245534552562020202020200000000087
:1022C000FFFF00000000000008400000202020D197
:1022D0003133392E5245534552562020202020209C
:1022E00000000000FFFF00000000000008400000A8
:1022F000202020D13134302E5245534552562020D3
:102300002020202000000000FFFF0000000000004F
:1023100008400000202020D13134312E5245534551
:10232000525620202020202000000000FFFF000047
:102330000000000008400000202020D13134322E5F
:1023400052455345525620202020202000000000F6
:10235000FFFF00000000000008400000202020D106
:102360003134332E52455345525620202020202010
:1023700000000000FFFF0000000000000840000017
:10238000202020D13134342E52455345525620203E
:102390002020202000000000FFFF000000000000BF
:1023A00008400000202020D13134352E52455345BD
:1023B000525620202020202000000000FFFF0000B7
:1023C0000000000008400000202020D13134362ECB
:1023D0005245534552562020202020200000000066
:1023E000FFFF00000000000008400000202020D176
:1023F0003134372E5245534552562020202020207C
:1024000000000000FFFF0000000000000840000086
:10241000202020D13134382E5245534552562020A9
:102420002020202000000000FFFF0000000000002E
:1024300008400000202020D13134392E5245534528
:10244000525620202020202000000000FFFF000026
:102450000000000008400000202020D13135302E3F
:1024600052455345525620202020202000000000D5
:10247000FFFF00000000000008400000202020D1E5
:102480003135312E524553455256202020202020F0
:1024900000000000FFFF00000000000008400000F6
:1024A000202020D13135322E52455345525620201E
:1024B0002020202000000000FFFF0000000000009E
:1024C00008400000202020D13135332E524553459D
:1024D000525620202020202000000000FFFF000096
:1024E0000000000008400000202020D13135342EAB
:1024F0005245534552562020202020200000000045
:10250000FFFF00000000000008400000202020D154
:102510003135352E5245534552562020202020205B
:1025200000000000FFFF0000000000000840000065
:10253000202020D13135362E524553455256202089
:102540002020202000000000FFFF0000000000000D
:1025500008400000202020D13135372E5245534508
:10256000525620202020202000000000FFFF000005
:102570000000000008400000202020D13135382E16
:1025800052455345525620202020202000000000B4
:10259000FFFF00000000000008400000202020D1C4
:1025A0003135392E524553455256202020202020C7
:1025B00000000000FFFF00000000000008400000D5
:1025C000202020D13136302E5245534552562020FE
:1025D0002020202000000000FFFF0000000000007D
:1025E00008400000202020D13136312E524553457D
:1025F000525620202020202000000000FFFF000075
:102600000000000008400000202020D13136322E8A
:102610005245534552562020202020200000000023
:10262000FFFF00000000000008400000202020D133
:102630003136332E5245534552562020202020203B
:1026400000000000FFFF0000000000000840000044
:10265000202020D13136342E524553455256202069
:102660002020202000000000FFFF000000000000EC
:1026700008400000202020D13136352E52455345E8
:10268000525620202020202000000000FFFF0000E4
:102690000000000008400000202020D13136362EF6
:1026A0005245534552562020202020200000000093
:1026B000FFFF00000000000008400000202020D1A3
:1026C0003136372E524553455256202020202020A7
:1026D00000000000FFFF00000000000008400000B4
:1026E000202020D13136382E5245534552562020D5
:1026F0002020202000000000FFFF0000000000005C
:1027000008400000202020D13136392E5245534553
:10271000525620202020202000000000FFFF000053
:102720000000000008400000202020D13137302E6A
:102730005245534552562020202020200000000002
:10274000FFFF00000000000008400000202020D112
:102750003137312E5245534552562020202020201B
:1027600000000000FFFF0000000000000840000023
:10277000202020D13137322E524553455256202049
:102780002020202000000000FFFF000000000000CB
:1027900008400000202020D13137332E52455345C8
:1027A000525620202020202000000000FFFF0000C3
:1027B0000000000008400000202020D13137342ED6
:1027C0005245534552562020202020200000000072
:1027D000FFFF00000000000008400000202020D182
:1027E0003137352E52455345525620202020202087
:1027F00000000000FFFF0000000000000840000093
:10280000202020D13137362E5245534552562020B4
:102810002020202000000000FFFF0000000000003A
:1028200008400000202020D13137372E5245534533
:10283000525620202020202000000000FFFF000032
:102840000000000008400000202020D13137382E41
:1028500052455345525620202020202000000000E1
:10286000FFFF00000000000008400000202020D1F1
:102870003137392E524553455256202020202020F2
:1028800000000000FFFF0000000000000840000002
:10289000202020D13138302E524553455256202029
:1028A0002020202000000000FFFF000000000000AA
:1028B00008400000202020D13138312E52455345A8
:1028C000525620202020202000000000FFFF0000A2
:1028D0000000000008400000202020D13138322EB6
:1028E0005245534552562020202020200000000051
:1028F000FFFF00000000000008400000202020D161
:102900003138332E52455345525620202020202066
:1029100000000000FFFF0000000000000840000071
:10292000202020D13138342E524553455256202094
:102930002020202000000000FFFF00000000000019
:1029400008400000202020D13138352E5245534513
:10295000525620202020202000000000FFFF000011
:102960000000000008400000202020D13138362E21
:1029700052455345525620202020202000000000C0
:10298000FFFF00000000000008400000202020D1D0
:102990003138372E524553455256202020202020D2
:1029A00000000000FFFF00000000000008400000E1
:1029B000202020D13138382E524553455256202000
:1029C0002020202000000000FFFF00000000000089
:1029D00008400000202020D13138392E524553457F
:1029E000525620202020202000000000FFFF000081
:1029F0000000000008400000202020D13139302E96
:102A0000524553455256202020202020000000002F
:102A1000FFFF00000000000008400000202020D13F
:102A20003139312E52455345525620202020202046
:102A300000000000FFFF0000000000000840000050
:102A4000202020D13139322E524553455256202074
:102A50002020202000000000FFFF000000000000F8
:102A600008400000202020D13139332E52455345F3
:102A7000525620202020202000000000FFFF0000F0
:102A80000000000008400000202020D13139342E01
:102A9000524553455256202020202020000000009F
:102AA000FFFF00000000000008400000202020D1AF
:102AB0003139352E524553455256202020202020B2
:102AC00000000000FFFF00000000000008400000C0
:102AD000202020D13139362E5245534552562020E0
:102AE0002020202000000000FFFF00000000000068
:102AF00008400000202020D13139372E524553455F
:102B0000525620202020202000000000FFFF00005F
:102B10000000000008400000202020D13139382E6C
:102B2000524553455256202020202020000000000E
:102B3000FFFF00000000000008400000202020D11E
:102B40003139392E5245534552562020202020201D
:102B500000000000FFFF000000000000084000002F
:102B600044302E53455420434C4F534520202020C1
:102B700020202020000000000200000000000000D3
:102B8000114E000044312E534554204F50454E20E5
:102B90002020202020202020000000000200000033
:102BA00000000000114E000044322E544F204F50C0
:102BB000454E202020202020202020200000000042
:102BC000E8030000000000001032000044332E54DF
:102BD0004F20434C4F5345202020202020202020F0
:102BE00000000000E80300000000000010320000B8
:102BF000202044342E524553455256202020202078
:102C00002020202000000000FFFF00000000000046
:102C10000840000044352E43414C49422052455360
:102C2000455420202020202000000000010000004A
:102C300000000000914F000044362E434F4D414E9E
:102C400044532020202020202020202000000000AD
:102C50001300000000000000915000002044372EB7
:102C600045525220524553455420202020202020F8
:102C70000000000001000000000000009150000072
:102C80002044382E534554204445464F554C54203B
:102C900020202020000000000100000000000000B3
:102CA000114E000020202044392E524553455256E3
:102CB000202020202020202000000000FFFF000016
:102CC00000000000080200004431302E4359434CFC
:102CD000452052455345542020202020000000006C
:102CE0000100000000000000915000004431312E2E
:102CF000434F4D4D20524553455420202020202045
:102D000000000000010000000000000091500000E1
:102D10002020204431322E52455345525620202047
:102D20002020202000000000FFFF00000000000025
:102D3000084000002020204431332E524553455294
:102D4000562020202020202000000000FFFF00004F
:102D500000000000084000002020204431342E52A2
:102D600045534552562020202020202000000000FE
:102D7000FFFF000000000000084000002020204469
:102D800031352E52455345525620202020202020F8
:102D900000000000FFFF00000000000008400000ED
:102DA0002020204431362E524553455256202020B3
:102DB0002020202000000000FFFF00000000000095
:102DC000084000002020204431372E524553455200
:102DD000562020202020202000000000FFFF0000BF
:102DE00000000000084000002020204431382E520E
:102DF000455345525620202020202020000000006E
:102E0000FFFF0000000000000840000020202044D8
:102E100031392E5245534552562020202020202063
:102E200000000000FFFF000000000000084000005C
:102E300047302E54455354204D4F444520202020E8
:102E40002020202000000000010000000000000001
:102E50006010000047312E4C454420544553542007
:102E6000202020202020202000000000FAFF000069
:102E7000000000002540000047322E444953204FF7
:102E80005554205445535420202020200000000099
:102E9000FAFF0000000000002540000047332E44E8
:102EA00041432056414C55452020202025202020FC
:102EB00000000000E80300000000000020320000D5
:102EC00047342E444953504C2053544152542020EF
:102ED0002020202000000000010000000000000071
:102EE0002000000020202047352E524553455256E1
:102EF000202020202020202000000000FFFF0000D4
:102F0000000000000840000020202047362E5245D7
:102F10005345525620202020202020200000000071
:102F2000FFFF0000000000000840000020202047B4
:102F3000372E524553455256202020202020202055
:102F400000000000FFFF000000000000084000003B
:102F500020202047382E524553455256202020200D
:102F60002020202000000000FFFF000000000000E3
:102F70000840000020202047392E52455345525624
:102F8000202020202020202000000000FFFF000043
:102F900000000000084000002020204731302E5261
:102FA00045534552562020202020202000000000BC
:102FB000FFFF000000000000084000002020204724
:102FC00031312E52455345525620202020202020BA
:102FD00000000000FFFF00000000000008400000AB
:102FE0002020204731322E52455345525620202072
:102FF0002020202000000000FFFF00000000000053
:10300000084000002020204731332E5245534552BE
:10301000562020202020202000000000FFFF00007C
:1030200000000000084000002020204731342E52CC
:10303000455345525620202020202020000000002B
:10304000FFFF000000000000084000002020204793
:1030500031352E5245534552562020202020202025
:1030600000000000FFFF000000000000084000001A
:103070002020204731362E524553455256202020DD
:103080002020202000000000FFFF000000000000C2
:10309000084000002020204731372E52455345522A
:1030A000562020202020202000000000FFFF0000EC
:1030B00000000000084000002020204731382E5238
:1030C000455345525620202020202020000000009B
:1030D000FFFF000000000000084000002020204703
:1030E00032302E5245534552562020202020202099
:1030F00000000000FFFF000000000000084000008A
:103100002020204732312E52455345525620202050
:103110002020202000000000FFFF00000000000031
:10312000084000002020204732322E52455345529D
:10313000562020202020202000000000FFFF00005B
:1031400000000000084000002020204732332E52AB
:10315000455345525620202020202020000000000A
:10316000FFFF000000000000084000002020204772
:1031700032342E5245534552562020202020202004
:1031800000000000FFFF00000000000008400000F9
:103190002020204732352E524553455256202020BC
:1031A0002020202000000000FFFF000000000000A1
:1031B000084000002020204732362E524553455209
:1031C000562020202020202000000000FFFF0000CB
:1031D00000000000084000002020204732372E5217
:1031E000455345525620202020202020000000007A
:1031F000FFFF0000000000000840000020202047E2
:1032000032382E524553455256202020202020206F
:1032100000000000FFFF0000000000000840000068
:103220002020204732392E52455345525620202027
:103230002020202000000000FFFF00000000000010
:103240000840000043414C4942205354415553200B
:10325000202020202020202000000000030000006B
:103260000000000040000000202020202052455394
:103270004552562020202020202020200000000041
:10328000FAFF00000000000040400000434C4F5394
:103290004520504F53203120202020202020202066
:1032A00000000000FFFF00000000000040400000A0
:1032B000434C4F534520504F532032202020202094
:1032C0002020202000000000FFFF00000000000080
:1032D000404000004F50454E20504F532031202099
:1032E000202020202020202000000000FFFF0000E0
:1032F00000000000404000004F50454E20504F530A
:10330000203220202020202020202020000000002B
:10331000FFFF0000000000004040000050415353F8
:10332000574F5244203120202020202020202020D0
:1033300000000000FAFF0000000000004040000014
:1033400050415353574F52442032202020202020F8
:103350002020202000000000FAFF000000000000F4
:1033600040400000534843202020202020202020DF
:10337000202020202020202000000000FAFF000054
:1033800000000000404000004D554646202020200F
:1033900020202020202020202020202000000000AD
:1033A000FAFF000000000000404000004359434C79
:1033B0004520434E54202020202020202020202063
:1033C00000000000FAFF0000000000004040000084
:1033D00052455345525620202020202020202020D6
:1033E0002020202000000000FFFF0000000000005F
:1033F00040400000524553455256202020202020B6
:10340000202020202020202000000000FFFF0000BE
:103410000000000040400000524553455256202015
:10342000202020202020202020202020000000001C
:10343000FFFF000000000000404000002020204866
:1034400031342E44415445202020202020202020AB
:1034500000000000FAFF00000000000040400000F3
:103460005245534552562020202020202020202045
:103470002020202000000000FFFF000000000000CE
:10348000404000005357495443482043555252206E
:10349000202020202520202000000000B80B000064
:1034A0000000000040320000205452512020202013
:1034B00043555220305F302025202020000000009E
:1034C000FAFF00000000000040400000205452516C
:1034D0002020202043555220305F312025202020FD
:1034E00000000000FAFF0000000000004040000063
:1034F000205452512020202043555220305F32204A
:103500002520202000000000FAFF0000000000003D
:10351000404000002054525120202020435552208A
:10352000305F33202520202000000000FAFF00003B
:103530000000000040400000205452512020202074
:1035400043555220305F3420252020200000000009
:10355000FAFF0000000000004040000020545251DB
:103560002020202043555220305F35202520202068
:1035700000000000FAFF00000000000040400000D2
:10358000205452512020202043555220315F3020BA
:103590002520202000000000FAFF000000000000AD
:1035A00040400000205452512020202043555220FA
:1035B000315F31202520202000000000FAFF0000AC
:1035C00000000000404000002054525120202020E4
:1035D00043555220315F322025202020000000007A
:1035E000FAFF00000000000040400000205452514B
:1035F0002020202043555220315F332025202020D9
:1036000000000000FAFF0000000000004040000041
:10361000205452512020202043555220315F342025
:103620002520202000000000FAFF0000000000001C
:103630004040000020545251202020204355522069
:10364000315F35202520202000000000FAFF000017
:103650000000000040400000205452512020202053
:1036600043555220325F30202520202000000000EA
:10367000FAFF0000000000004040000020545251BA
:103680002020202043555220325F31202520202049
:1036900000000000FAFF00000000000040400000B1
:1036A000205452512020202043555220325F322096
:1036B0002520202000000000FAFF0000000000008C
:1036C00040400000205452512020202043555220D9
:1036D000325F33202520202000000000FAFF000088
:1036E00000000000404000002054525120202020C3
:1036F00043555220325F3420252020200000000056
:10370000FAFF000000000000404000002054525129
:103710002020202043555220325F352025202020B4
:1037200000000000FAFF0000000000004040000020
:10373000205452512020202043555220335F302006
:103740002520202000000000FAFF000000000000FB
:103750004040000020545251202020204355522048
:10376000335F31202520202000000000FAFF0000F8
:103770000000000040400000205452512020202032
:1037800043555220335F32202520202000000000C6
:10379000FAFF000000000000404000002054525199
:1037A0002020202043555220335F33202520202025
:1037B00000000000FAFF0000000000004040000090
:1037C000205452512020202043555220335F342072
:1037D0002520202000000000FAFF0000000000006B
:1037E00040400000205452512020202043555220B8
:1037F000335F35202520202000000000FAFF000064
:103800000000000040400000205452512020204180
:103810004E474C20305F3020252020200000000043
:10382000FAFF000000000000404000002054525108
:10383000202020414E474C20305F31202520202081
:1038400000000000FAFF00000000000040400000FF
:1038500020545251202020414E474C20305F3220CE
:103860002520202000000000FAFF000000000000DA
:103870004040000020545251202020414E474C200F
:10388000305F33202520202000000000FAFF0000D8
:1038900000000000404000002054525120202041F0
:1038A0004E474C20305F34202520202000000000AF
:1038B000FAFF000000000000404000002054525178
:1038C000202020414E474C20305F352025202020ED
:1038D00000000000FAFF000000000000404000006F
:1038E00020545251202020414E474C20315F30203F
:1038F0002520202000000000FAFF0000000000004A
:103900004040000020545251202020414E474C207E
:10391000315F31202520202000000000FAFF000048
:10392000000000004040000020545251202020415F
:103930004E474C20315F322025202020000000001F
:10394000FAFF0000000000004040000020545251E7
:10395000202020414E474C20315F3320252020205D
:1039600000000000FAFF00000000000040400000DE
:1039700020545251202020414E474C20315F3420AA
:103980002520202000000000FAFF000000000000B9
:103990004040000020545251202020414E474C20EE
:1039A000315F35202520202000000000FAFF0000B4
:1039B00000000000404000002054525120202041CF
:1039C0004E474C20325F3020252020200000000090
:1039D000FAFF000000000000404000002054525157
:1039E000202020414E474C20325F312025202020CE
:1039F00000000000FAFF000000000000404000004E
:103A000020545251202020414E474C20325F32201A
:103A10002520202000000000FAFF00000000000028
:103A20004040000020545251202020414E474C205D
:103A3000325F33202520202000000000FAFF000024
:103A4000000000004040000020545251202020413E
:103A50004E474C20325F34202520202000000000FB
:103A6000FAFF0000000000004040000020545251C6
:103A7000202020414E474C20325F35202520202039
:103A800000000000FAFF00000000000040400000BD
:103A900020545251202020414E474C20335F30208B
:103AA0002520202000000000FAFF00000000000098
:103AB0004040000020545251202020414E474C20CD
:103AC000335F31202520202000000000FAFF000095
:103AD00000000000404000002054525120202041AE
:103AE0004E474C20335F322025202020000000006C
:103AF000FAFF000000000000404000002054525136
:103B0000202020414E474C20335F332025202020A9
:103B100000000000FAFF000000000000404000002C
:103B200020545251202020414E474C20335F3420F6
:103B30002520202000000000FAFF00000000000007
:103B40004040000020545251202020414E474C203C
:103B5000335F35202520202000000000FAFF000000
:103B6000000000004040000020414E474C20202033
:103B7000534620305F302020414E474C000000006B
:103B8000B4000000000000004020000020414E472B
:103B90004C202020534620305F312020414E474C9E
:103BA00000000000B4000000000000004020000001
:103BB00020414E474C202020534620305F322020A9
:103BC000414E474C00000000B4000000000000001F
:103BD0004020000020414E474C20202053462030FA
:103BE0005F332020414E474C00000000B40000002D
:103BF000000000004020000020414E474C202020C3
:103C0000534620305F342020414E474C00000000D6
:103C1000B4000000000000004020000020414E479A
:103C20004C202020534620305F352020414E474C09
:103C300000000000B4000000000000004020000070
:103C400020414E474C202020534620315F30202019
:103C5000414E474C00000000B4000000000000008E
:103C60004020000020414E474C2020205346203168
:103C70005F312020414E474C00000000B40000009E
:103C8000000000004020000020414E474C20202032
:103C9000534620315F322020414E474C0000000047
:103CA000B4000000000000004020000020414E470A
:103CB0004C202020534620315F332020414E474C7A
:103CC00000000000B40000000000000040200000E0
:103CD00020414E474C202020534620315F34202085
:103CE000414E474C00000000B400000000000000FE
:103CF0004020000020414E474C20202053462031D8
:103D00005F352020414E474C00000000B400000009
:103D1000000000004020000020414E474C202020A1
:103D2000534620325F302020414E474C00000000B7
:103D3000B4000000000000004020000020414E4779
:103D40004C202020534620325F312020414E474CEA
:103D500000000000B400000000000000402000004F
:103D600020414E474C202020534620325F322020F5
:103D7000414E474C00000000B4000000000000006D
:103D80004020000020414E474C2020205346203246
:103D90005F332020414E474C00000000B40000007B
:103DA000000000004020000020414E474C20202011
:103DB000534620325F342020414E474C0000000023
:103DC000B4000000000000004020000020414E47E9
:103DD0004C202020534620325F352020414E474C56
:103DE00000000000B40000000000000040200000BF
:103DF00020414E474C202020534620335F30202066
:103E0000414E474C00000000B400000000000000DC
:103E10004020000020414E474C20202053462033B4
:103E20005F312020414E474C00000000B4000000EC
:103E3000000000004020000020414E474C20202080
:103E4000534620335F322020414E474C0000000093
:103E5000B4000000000000004020000020414E4758
:103E60004C202020534620335F332020414E474CC6
:103E700000000000B400000000000000402000002E
:103E800020414E474C202020534620335F342020D1
:103E9000414E474C00000000B4000000000000004C
:103EA0004020000020414E474C2020205346203324
:103EB0005F352020414E474C00000000B400000058
:103EC0000000000040200000434F4D414E4453206D
:103ED00054552020202020202020202000000000F9
:103EE000FAFF00000000000040400000415645522B
:103EF00020564F4C542020202020202056202020C7
:103F000000000000F401000000000000402000005C
:103F10003133312E20C7CECDC020D1CCC5D9C5CDAF
:103F20002020202000000000FAFF00000000000018
:103F30000040000041564552204355525220252052
:103F4000202020202020202000000000FAFF000078
:103F50000000000040400000202043555252454ED2
:103F6000542020552025202020202520000000005E
:103F7000401F000000000000403200002020435598
:103F80005252454E54202056202520202020252006
:103F900000000000401F0000000000004032000050
:103FA000202043555252454E542020572025202092
:103FB0002020252000000000401F0000000000001D
:103FC0004032000020415645522043555252202095
:103FD000202020204120202000000000401F000061
:103FE00000000000403200002020504F5349544947
:103FF0004F4E2020202020202020202000000000E4
:10400000FAFF000000000000404000002020504F58
:10401000534954494F4E202020202020202020208A
:1040200000000000FAFF0000000000004040000017
:104030002046554C4C20574159202020202020203C
:104040002020202000000000FAFF000000000000F7
:1040500040400000202046554C4C2057415920201C
:10406000202020202020202000000000FAFF000057
:104070000000000040400000524556455253205475
:104080005950452020202020202020200000000022
:1040900002000000020000004020000042414420D5
:1040A00020205441534B2032204B485A20202020BE
:1040B00000000000FAFF0000000000004040000087
:1040C0004241442020205441534B20323030485A42
:1040D0002020202000000000FAFF00000000000067
:1040E000404000004241442020205441534B2035A1
:1040F00030485A312020202000000000FAFF000044
:104100000000000040400000424144202020544173
:10411000534B203530485A32202020200000000028
:10412000FAFF00000000000040400000424144202F
:1041300020205441534B203530485A332020202032
:1041400000000000FAFF00000000000040400000F6
:104150004241442020205441534B20313020485AC2
:104160002020202000000000FAFF000000000000D6
:1041700040400000424144205441534B205245539B
:10418000455420202020202000000000FAFF0000DD
:1041900000000000404000004350552054494D4568
:1041A000202020202020202020202020000000008F
:1041B000FAFF000000000000404000005441534B53
:1041C000204C495354202020202020202020202033
:1041D00000000000FAFF0000000000004040000066
:1041E0005441534B204E554D424552202020202013
:1041F0002020202000000000FAFF00000000000046
:104200004040000020202020205245534552562097
:10421000202020202020202000000000FAFF0000A5
:104220000000000040400000202020202052455384
:104230004552562020202020202020200000000071
:10424000FAFF000000000000404000002020202075
:104250002052455345525620202020202020202047
:1042600000000000FAFF00000000000040400000D5
:104270002020202020524553455256202020202027
:104280002020202000000000FAFF000000000000B5
:1042900040400000483131342E535441525420499B
:1042A0004E44494320202020000000001D00000053
:1042B00008000000404000004C6F67457641646490
:1042C000722020202020202020202020000000001C
:1042D000FAFF000000000000404000004C6F674300
:1042E0006D64416464722020202020202020202042
:1042F00000000000FAFF0000000000004040000045
:104300004C6F67506172616D41646472202020209F
:104310002020202000000000FAFF00000000000024
:10432000404000004C6F6753696D41646472202007
:10433000202020202020202000000000FAFF000084
:1043400000000000404000004C6F674576436F75E9
:104350006E7420202020202020202020000000003B
:10436000FAFF000000000000404000004C6F67436F
:104370006D64436F756E7420202020202020202043
:1043800000000000FAFF00000000000040400000B4
:104390004C6F67506172616D436F756E74202020A1
:1043A0002020202000000000FAFF00000000000094
:1043B000404000004C6F6753696D436F756E742009
:1043C000202020202020202000000000FAFF0000F4
:1043D0000000000040400000202020205365636F53
:1043E0006E64732020202020202020200000000068
:1043F0003C0000000000000040100000436F6E749D
:1044000047726F757020202020202020202020203F
:1044100000000000FAFF0000000000004040000023
:104420004C6F67436F6E74726F6C576F72642020AD
:104430002020202000000000FAFF00000000000003
:10444000404000004C6F6752657365742020202047
:10445000202020202020202000000000010000005B
:104460000000000000400000545320496E6469635E
:104470006174696F6E202020202020200000000041
:10448000FFFF00000000000040400000312020201D
:104490002052455345525620202020202020202005
:1044A00000000000FAFF0000000000004040000093
:1044B00032202020205245534552562020202020D3
:1044C0002020202000000000FAFF00000000000073
:1044D00040400000332020202052455345525620B2
:1044E000202020202020202000000000FAFF0000D3
:1044F000000000004040000034202020205245539E
:10450000455256202020202020202020000000009E
:10451000FAFF00000000000040400000352020208D
:104520002052455345525620202020202020202074
:1045300000000000FAFF0000000000004040000002
:10454000362020202052455345525620202020203E
:104550002020202000000000FAFF000000000000E2
:10456000404000003720202020524553455256201D
:10457000202020202020202000000000FAFF000042
:104580000000000040400000382020202052455309
:10459000455256202020202020202020000000000E
:1045A000FAFF0000000000004040000039202020F9
:1045B00020524553455256202020202020202020E4
:1045C00000000000FAFF0000000000004040000072
:1045D00031302020205245534552562020202020A3
:1045E0002020202000000000FAFF00000000000052
:1045F0004040000031312020205245534552562082
:10460000202020202020202000000000FAFF0000B1
:10461000000000004040000031322020205245536D
:10462000455256202020202020202020000000007D
:10463000FAFF00000000000040400000313320205D
:104640002052455345525620202020202020202053
:1046500000000000FAFF00000000000040400000E1
:10466000313420202052455345525620202020200E
:104670002020202000000000FAFF000000000000C1
:1046800040400000313520202052455345525620ED
:10469000202020202020202000000000FAFF000021
:1046A00000000000404000003136202020524553D9
:1046B00045525620202020202020202000000000ED
:1046C000FAFF0000000000004040000031372020C9
:1046D00020524553455256202020202020202020C3
:1046E00000000000FAFF0000000000004040000051
:1046F000313820202052455345525620202020207A
:104700002020202000000000FAFF00000000000030
:104710004040000031392020205245534552562058
:10472000202020202020202000000000FAFF000090
:10473000000000004040000032302020205245534D
:10474000455256202020202020202020000000005C
:10475000FAFF00000000000040400000323120203D
:104760002052455345525620202020202020202032
:1047700000000000FAFF00000000000040400000C0
:1047800032322020205245534552562020202020EE
:104790002020202000000000FAFF000000000000A0
:1047A00040400000323320202052455345525620CD
:1047B000202020202020202000000000FAFF000000
:1047C00000000000404000003234202020524553B9
:1047D00045525620202020202020202000000000CC
:1047E000FAFF0000000000004040000032352020A9
:1047F00020524553455256202020202020202020A2
:1048000000000000FAFF000000000000404000002F
:104810003236202020524553455256202020202059
:104820002020202000000000FAFF0000000000000F
:104830004040000032372020205245534552562038
:10484000202020202020202000000000FAFF00006F
:104850000000000040400000323820202052455324
:10486000455256202020202020202020000000003B
:10487000FAFF000000000000404000003239202014
:104880002052455345525620202020202020202011
:1048900000000000FAFF000000000000404000009F
:1048A00033302020205245534552562020202020CE
:1048B0002020202000000000FAFF0000000000007F
:1048C00040400000333120202052455345525620AD
:1048D000202020202020202000000000FAFF0000DF
:1048E0000000000040400000333220202052455399
:1048F00045525620202020202020202000000000AB
:10490000FAFF000000000000404000003333202088
:104910002052455345525620202020202020202080
:1049200000000000FAFF000000000000404000000E
:104930003334202020524553455256202020202039
:104940002020202000000000FAFF000000000000EE
:104950004040000033352020205245534552562018
:10496000202020202020202000000000FAFF00004E
:104970000000000040400000333620202052455304
:10498000455256202020202020202020000000001A
:10499000FAFF0000000000004040000033372020F4
:1049A00020524553455256202020202020202020F0
:1049B00000000000FAFF000000000000404000007E
:1049C00033382020205245534552562020202020A5
:1049D0002020202000000000FAFF0000000000005E
:1049E0004040000033392020205245534552562084
:1049F000202020202020202000000000FAFF0000BE
:104A00000000000040400000343020202052455378
:104A10004552562020202020202020200000000089
:104A2000FAFF000000000000404000003431202068
:104A3000205245534552562020202020202020205F
:104A400000000000FAFF00000000000040400000ED
:104A50003432202020524553455256202020202019
:104A60002020202000000000FAFF000000000000CD
:104A700040400000343320202052455345525620F8
:104A8000202020202020202000000000FAFF00002D
:104A900000000000404000003434202020524553E4
:104AA00045525620202020202020202000000000F9
:104AB000FAFF0000000000004040000034352020D4
:104AC00020524553455256202020202020202020CF
:104AD00000000000FAFF000000000000404000005D
:104AE0003436202020524553455256202020202085
:104AF0002020202000000000FAFF0000000000003D
:104B00004040000034372020205245534552562063
:104B1000202020202020202000000000FAFF00009C
:104B2000000000004040000034382020205245534F
:104B30004552562020202020202020200000000068
:104B4000FAFF00000000000040400000343920203F
:104B5000205245534552562020202020202020203E
:104B600000000000FAFF00000000000040400000CC
:104B700035302020205245534552562020202020F9
:104B80002020202000000000FAFF000000000000AC
:104B900040400000353120202052455345525620D8
:104BA000202020202020202000000000FAFF00000C
:104BB00000000000404000003532202020524553C4
:104BC00045525620202020202020202000000000D8
:104BD000FAFF0000000000004040000035332020B4
:104BE00020524553455256202020202020202020AE
:104BF00000000000FAFF000000000000404000003C
:104C00003534202020524553455256202020202064
:104C10002020202000000000FAFF0000000000001B
:104C20004040000035352020205245534552562043
:104C3000202020202020202000000000FAFF00007B
:104C4000000000004040000035362020205245532F
:104C50004552562020202020202020200000000047
:104C6000FAFF00000000000040400000353720201F
:104C7000205245534552562020202020202020201D
:104C800000000000FAFF00000000000040400000AB
:104C900035382020205245534552562020202020D0
:104CA0002020202000000000FAFF0000000000008B
:104CB00040400000353920202052455345525620AF
:104CC000202020202020202000000000FAFF0000EB
:104CD00000000000404000003630202020524553A4
:104CE00045525620202020202020202000000000B7
:104CF000FAFF000000000000404000003630202095
:104D0000205245534552562020202020202020208C
:104D100000000000FAFF000000000000404000001A
:104D200020202020202054494D45202020202020D4
:104D30002020202000000000FFFF000000000000F5
:104D40000B1000002020202020204441544520202A
:104D5000202020202020202000000000FFFF000055
:104D6000210000000C20000045302E5354415455C2
:104D70005320202020202020202020200000000080
:104D8000FFFF0000000000008A00000045312E50A7
:104D9000524F43455353204552522020202020207B
:104DA00000000000FFFF0000000000000A090000F2
:104DB00045322E564F4C54204552524F52202020FF
:104DC0002020202000000000FFFF00000000000065
:104DD0008A11000045332E43555252454E5420450A
:104DE000525220202020202000000000FFFF000061
:104DF000000000000A1A000045342E44455649437D
:104E00004520455252202020202020200000000074
:104E1000FAFF0000000000008A22000045352E50F5
:104E20004F534954494F4E20202020202520202038
:104E300018FCFFFFD00700000000000088320000CF
:104E40002020202045362E544F525145202020202E
:104E5000202020200A000000F82A00000A0000009C
:104E60000840000045372E564F4C54204C3120202E
:104E7000202020205620202000000000F401000007
:104E8000000000000820000045382E564F4C5420EA
:104E90004C3220202020202056202020000000001E
:104EA000F4010000000000000820000045392E56E3
:104EB0004F4C54204C3320202020202056202020EE
:104EC00000000000F40100000000000008200000C5
:104ED0004531302E43555252454E54202055202006
:104EE0004120202000000000401F000000000000C2
:104EF000083200004531312E43555252454E542060
:104F0000205620204120202000000000401F0000EB
:104F100000000000083200004531322E4355525245
:104F2000454E542020572020412020200000000022
:104F3000401F000000000000083200004531332E01
:104F400054454D5045522020202020202020202054
:104F50009CFFFFFF640000000000000088200000AC
:104F60004531342E494E20535441544520202020B1
:104F70002020202000000000FFFF000000000000B3
:104F80000A2B00004531352E4F55542053544154BF
:104F9000452020202020202000000000FFFF0000EE
:104FA000000000008A3300002020204531362E52B8
:104FB000455345525620202020202020000000008C
:104FC000FFFF0000000000000840000020202045F6
:104FD00031372E5245534552562020202020202084
:104FE00000000000FFFF000000000000084000007B
:104FF0002020204531382E5245534552562020203E
:105000002020202000000000FFFF00000000000022
:10501000084000002020204532302E524553455292
:10502000562020202020202000000000FFFF00004C
:1050300000000000084000002020204532312E52A0
:1050400045534552562020202020202000000000FB
:10505000FFFF000000000000084000002020204565
:1050600032322E52455345525620202020202020F7
:1050700000000000FFFF00000000000008400000EA
:105080002020204532332E524553455256202020B1
:105090002020202000000000FFFF00000000000092
:1050A000084000002020204532342E5245534552FE
:1050B000562020202020202000000000FFFF0000BC
:1050C00000000000084000002020204532352E520C
:1050D000455345525620202020202020000000006B
:1050E000FFFF0000000000000840000020202045D5
:1050F00032362E5245534552562020202020202063
:1051000000000000FFFF0000000000000840000059
:105110002020204532372E5245534552562020201C
:105120002020202000000000FFFF00000000000001
:10513000084000002020204532382E524553455269
:10514000562020202020202000000000FFFF00002B
:1051500000000000084000002020204532392E5277
:1051600045534552562020202020202000000000DA
:10517000FFFF000000000000084000002DE9F041A2
:10518000040002F065F90700002C01D101208CE237
:105190002068DFF81C1588424AD02068DFF8141513
:1051A000884245D02068DFF81015884240D020683A
:1051B000DFF8081588423BD02068DFF804158842E4
:1051C00036D02068DFF8FC14884231D02068DFF840
:1051D000F81488422CD02068DFF8F014884227D0D9
:1051E0002068DFF8EC14884222D02068DFF8E4144D
:1051F00088421DD02068DFF8E014884218D020686B
:10520000DFF8D814884213D02068DFF8D41488421D
:105210000ED02068DFF8CC14884209D02068DFF86F
:10522000C814884204D02068DFF8C014884201D135
:10523000012000E00020C0B2002800F0E780606A92
:105240000028002084F83400022084F8350020680B
:10525000DFF85C1488424AD02068DFF8581488428E
:1052600045D02068DFF85014884240D02068DFF82D
:105270004C1488423BD02068DFF84414884236D072
:105280002068DFF84014884231D02068DFF83814F5
:1052900088422CD02068DFF83414884227D0206858
:1052A000DFF82C14884222D02068DFF828148842C6
:1052B0001DD02068DFF82014884218D02068DFF85D
:1052C0001C14884213D02068DFF8141488420ED0D2
:1052D0002068DFF81014884209D02068DFF808142D
:1052E000884204D02068DFF80414884206D1206880
:1052F0000068400840002168086005E020680068F8
:10530000400840002168086020680068C0070BD58D
:1053100002F09EF8C01B0628F6D32020606503200B
:1053200084F835000120C0E120680168DFF8C0037F
:105330000140A0680143E0680143206901436069BE
:105340000143A0690143E0690143206A0143606AA7
:10535000042803D1E06A0143206B0143DFF8940382
:105360000068000C0004B0F1005F1FD360682928BA
:1053700002D360682F2811D360683F2802D3606889
:1053800043280BD36068472802D36068492805D3B7
:1053900060684F2804D36068532801D2012000E0E0
:1053A0000020C0B2002801D051F4801120680160B3
:1053B0002068D0F814805FEAD8085FEAC808606AFD
:1053C00050EA0808606A042811D1A06A50EA080867
:1053D000E06A00280BD0200001F012FF002806D060
:1053E00040206065012084F8350001205DE12068DF
:1053F000C0F81480200001F088FE05003F2094F8DA
:105400005C1011F01F018840A860A4E02068DFF85C
:10541000E812884222D02068DFF8E01288421DD0CE
:105420002068DFF8DC12884218D02068DFF8D41238
:10543000884213D02068DFF8D01288420ED020684E
:10544000DFF8C812884209D02068DFF8C412884209
:1054500004D02068DFF8AC16884201D1012000E0BA
:105460000020C0B200286FD02068DFF88C1288427C
:1054700022D02068DFF8841288421DD02068DFF82F
:105480008012884218D02068DFF87812884213D042
:105490002068DFF8741288420ED02068DFF86C12A2
:1054A000884209D02068DFF86812884204D020685A
:1054B000DFF85016884201D1012000E00020C0B280
:1054C0000028002084F83400022084F83500206889
:1054D000D0F800806FF31018A068402801D1102088
:1054E00006E0A068802802D14FF4804000E0002050
:1054F00050EA0808E06858EAD008206958EAD0085D
:10550000606958EAD008A06958EAD008E06958EA0A
:10551000D008206A58EA10182068C0F80080216876
:10552000DFF8F00141181420B1FBF0F08000E065D5
:10553000200001F0EAFD0600012094F85C1011F053
:105540001F018840706006E040206065032084F8F9
:1055500035000120A9E02068DFF85411884272D09C
:105560002068DFF8501188426DD02068DFF84811BC
:10557000884268D02068DFF84411884263D02068F0
:10558000DFF83C1188425ED02068DFF8381188428D
:1055900059D02068DFF83011884254D02068DFF8F5
:1055A0002C1188424FD02068DFF8241188424AD05D
:1055B0002068DFF82011884245D02068DFF81811F4
:1055C000884240D02068DFF8141188423BD0206820
:1055D000DFF80C11884236D02068DFF808118842C5
:1055E00031D02068DFF8001188422CD02068DFF825
:1055F000FC10884227D02068DFF8FC10884222D0B7
:105600002068DFF8F81088421DD02068DFF8F0101D
:10561000884218D02068DFF8EC10884213D0206848
:10562000DFF8E41088420ED02068DFF8E0108842EE
:1056300009D02068DFF8D810884204D02068DFF84D
:10564000C414884201D1012000E00020C0B200282B
:1056500025D0200001F021FEA068802801D1002083
:105660006060207900F0FF00216E0860A06E616E1E
:105670004860606800280CD06068092809D22000C2
:1056800001F061FE0020E16E0860606F216F4860EC
:1056900005E00020E0660020206700206067002011
:1056A0006065012084F835000020BDE8F08100002D
:1056B0001000024028000240400002405800024012
:1056C0007000024088000240A0000240B800024082
:1056D00010040240280402404004024058040240E2
:1056E0007004024088040240A0040240B804024052
:1056F0003F8010FE0010005C085402581C540258F1
:105700003054025844540258585402586C540258A9
:1057100080540258F8ABFDA72DE9F04104000D00BC
:1057200016001F005FF00008002C01D10120E6E107
:1057300094F83400012801D10220E0E1012084F82E
:10574000340094F83500012840F0CF81022084F81D
:105750003500002060652068DFF8281888424AD0AC
:105760002068DFF82418884245D02068DFF81C182C
:10577000884240D02068DFF8181888423BD0206863
:10578000DFF81018884236D02068DFF80C188842FD
:1057900031D02068DFF8041888422CD02068DFF868
:1057A0000018884227D02068DFF8F817884222D0F6
:1057B0002068DFF8F41788421DD02068DFF8EC1766
:1057C000884218D02068DFF8E817884213D0206894
:1057D000DFF8E01788420ED02068DFF8DC17884237
:1057E00009D02068DFF8D417884204D02068DFF899
:1057F000D017884206D12068006840084000216820
:10580000086005E0206800684008400021680860E2
:105810003B0032002900200001F044FB2068DFF843
:10582000641788424AD02068DFF85C17884245D068
:105830002068DFF85817884240D02068DFF85017FA
:1058400088423BD02068DFF84C17884236D0206869
:10585000DFF84417884231D02068DFF840178842CB
:105860002CD02068DFF83817884227D02068DFF86E
:105870003417884222D02068DFF82C1788421DD0C8
:105880002068DFF82817884218D02068DFF8201732
:10589000884213D02068DFF81C1788420ED0206899
:1058A000DFF81417884209D02068DFF81017884203
:1058B00004D02068DFF80817884201D1012000E0F9
:1058C0000020C0B2002811D02068006830F01E000F
:1058D00050F0160021680860206C002817D020685E
:1058E000006850F008002168086010E02068006837
:1058F00030F00E0050F00A0021680860206C00288B
:1059000005D02068006850F0040021680860206815
:10591000DFF87016884271D02068DFF86C16884274
:105920006CD02068DFF86416884267D02068DFF802
:105930006016884262D02068DFF8581688425DD031
:105940002068DFF85416884258D02068DFF84C16DB
:10595000884253D02068DFF8481688424ED020682D
:10596000DFF84016884249D02068DFF83C168842AC
:1059700044D02068DFF8341688423FD02068DFF832
:10598000301688423AD02068DFF82816884235D091
:105990002068DFF82416884230D02068DFF81C1613
:1059A00088422BD02068DFF81816884226D020685D
:1059B000DFF81016884221D02068DFF80C168842E4
:1059C0001CD02068DFF80416884217D02068DFF862
:1059D0000016884212D02068DFF8F81588420DD0F2
:1059E0002068DFF8F415884208D02068DFF8EC154D
:1059F000884203D020684349884201D1012000E059
:105A00000020C0B2002812D0206E0068C00305D567
:105A1000206E006850F48070216E0860E06E0028EF
:105A200005D0E06E006850F48070E16E0860206878
:105A3000DFF8501588424AD02068DFF84C158842BC
:105A400045D02068DFF84415884240D02068DFF850
:105A5000401588423BD02068DFF83815884236D0A0
:105A60002068DFF83415884231D02068DFF82C1523
:105A700088422CD02068DFF82815884227D020687B
:105A8000DFF82015884222D02068DFF81C158842F4
:105A90001DD02068DFF81415884218D02068DFF880
:105AA0001015884213D02068DFF8081588420ED000
:105AB0002068DFF80415884209D02068DFF8FC145C
:105AC000884204D02068DFF8F814884206D12068A4
:105AD000006850F00100216808600EE0206800684E
