:020000040800F2
:10000000C03C0020454A0108B1470108B347010838
:10001000B5470108B7470108B947010800000000CB
:10002000000000000000000000000000BB470108C5
:10003000BD47010800000000BF470108C147010893
:10004000754A0108794A01087D4A0108814A010878
:10005000854A0108894A01088D4A0108914A010828
:10006000954A0108994A01089D4A0108A14A0108D8
:10007000C9470108A54A0108D3470108A94A010850
:10008000AD4A0108B14A0108DD470108B54A010837
:10009000B94A0108BD4A0108C14A0108C54A010818
:1000A000C94A0108CD4A0108D14A0108D54A0108C8
:1000B000E7470108D94A0108DD4A0108E14A010879
:1000C000E54A0108E94A0108ED4A01081548010816
:1000D000F14A0108F54A0108F94A0108FD4A0108F8
:1000E000014B0108054B010800000000094B010805
:1000F0000D4B0108114B0108154B0108194B010864
:100100001D4B0108214B0108254B0108294B010813
:100110002D4B0108314B0108354B0108394B0108C3
:100120003D4B0108414B0108454B0108494B010873
:100130004D4B0108514B0108554B0108594B010823
:1001400000000000000000000000000000000000AF
:100150005D4B0108614B0108654B0108694B0108C3
:100160006D4B0108714B0108754B0108794B010873
:100170007D4B0108814B0108854B01080000000000
:10018000894B01088D4B0108914B0108954B0108E3
:10019000994B01089D4B01081F480108A14B01081C
:1001A000A54B0108A94B0108AD4B0108B14B010853
:1001B000B54B0108B94B0108BD4B0108C14B010803
:1001C000C54B0108C94B0108CD4B0108D14B0108B3
:1001D000D54B0108D94B0108DD4B0108E14B010863
:1001E000E54B0108E94B0108ED4B0108F14B010813
:1001F000F54B0108F94B0108FD4B0108014C0108C2
:10020000054C0108094C01080D4C0108114C01086E
:10021000154C0108194C01081D4C0108214C01081E
:10022000254C0108294C01082D4C01080000000054
:10023000314C0108354C0108000000002948010834
:10024000394C01083D4C0108414C0108454C01085E
:10025000494C01084D4C0108514C0108554C01080E
:10026000594C01085D4C0108614C0108654C0108BE
:10027000694C01086D4C0108714C01080000000038
:10028000754C0108794C01087D4C01080000000004
:1002900000000000814C010841302ED1D2C0D2D3E1
:1002A000D12020202020202020202020000000001D
:1002B000FAFF0000000000008A00000041312EC05B
:1002C000C2C0D020CFD0CED6C5D1D1C020202020D2
:1002D00000000000FAFF0000000000000A09000012
:1002E00041322EC0C2C0D020D1C5D2C8202020208B
:1002F0002020202000000000FAFF00000000000085
:100300008A11000041332EC0C2C0D020CDC0C3D05E
:10031000D3C7CAC82020202000000000FAFF000038
:10032000000000000A1A000041342EC0C2C0D020D4
:10033000D3D1D2D0CEC9D1D22020202000000000BD
:10034000FAFF0000000000008A22000041352EC2A2
:10035000D5CEC4C02020D2D3202020202020202091
:1003600000000000FAFF0000000000000A2B00005F
:1003700041362EC2DBD5CEC4C020D2D120202020D1
:100380002020202000000000FAFF000000000000F4
:100390008A33000041372ECFCECBCEC620DDCDCA6A
:1003A000CEC420202020202000000000FFFF0000FD
:1003B000000000000840000041382ECCCECCC5CD56
:1003C000D2202020202020202020202000000000FB
:1003D000FFFF0000000000000840000041392ED15E
:1003E000CACED0CED1D2DC20202020202020202038
:1003F000F0F1FFFF100E0000000000008830000048
:100400004131302ECDC0CFD0204C312020202020B3
:10041000C220202000000000F401000000000000C5
:10042000082000004131312ECDC0CFD0204C3220E9
:1004300020202020C220202000000000F401000025
:1004400000000000082000004131322ECDC0CFD086
:10045000204C332020202020C2202020000000003B
:10046000F401000000000000082000004131332E9C
:10047000D2CECA205520202020202020412020201C
:1004800000000000401F00000000000008320000D3
:100490004131342ED2CECA205620202020202020C8
:1004A0004120202000000000401F0000000000004C
:1004B000083200004131352ED2CECA2057202020EC
:1004C000202020204120202000000000401F0000AC
:1004D00000000000083200004131362ED3C3CECBDD
:1004E00020CDC0C3D0202020202020204CFFFFFFA3
:1004F000B400000000000000882000004131372EC9
:1005000043414C494220535441544520202020204F
:10051000000000000300000000000000093C000093
:100520004131382ECFCECBCEC6C5CDC8C520202078
:100530002520202018FCFFFFD0070000000000004D
:10054000883200004131392ECFCECBCDDBC920CF50
:10055000D3D2DC20CEC1202000000000B80B000068
:1005600000000000083200004132302ED2C5CAD34C
:10057000D9C8C920CFD3D2DCCEC1202048F4FFFF98
:10058000B80B000000000000883200004132312E1C
:10059000D1D7C5D220D6C8CACBCEC2202020202099
:1005A00000000000FAFF000000000000084000000A
:1005B0004132322ED2C5CCCFC5D0C0D2D3D0C0208C
:1005C000202020209CFFFFFF6400000000000000AE
:1005D000882000004132332EC2C5D0D1C8DF20CFE1
:1005E000CE2020202020202000000000FAFF000064
:1005F00000000000083600004132342ECDC0CFD0BC
:1006000020564443202020202020202000000000ED
:10061000FFFF000000000000084000004132352EBE
:1006200052455345525620202020202020202020B3
:1006300000000000FFFF0000000000000840000074
:100640004132362E5245534552562020202020203C
:100650002020202000000000FFFF0000000000001C
:10066000084000004132372E524553455256202053
:10067000202020202020202000000000FFFF00007C
:1006800000000000084000004132382E524553451A
:100690005256202020202020202020200000000072
:1006A000FFFF000000000000084000004132392E2A
:1006B0005245534552562020202020202020202023
:1006C00000000000FFFF00000000000008400000E4
:1006D0004133302E524553455256202020202020B1
:1006E0002020202000000000FFFF0000000000008C
:1006F000084000004133312E5245534552562020C8
:10070000202020202020202000000000FFFF0000EB
:1007100000000000084000004133322E524553458E
:1007200052562020202020202020202000000000E1
:10073000FFFF000000000000084000004133332E9E
:100740005245534552562020202020202020202092
:1007500000000000FFFF0000000000000840000053
:100760004133342E5245534552562020202020201C
:100770002020202000000000FFFF000000000000FB
:10078000084000004133352E524553455256202033
:10079000202020202020202000000000FFFF00005B
:1007A00000000000084000004133362E52455345FA
:1007B0005256202020202020202020200000000051
:1007C000FFFF000000000000084000004133372E0A
:1007D0005245534552562020202020202020202002
:1007E00000000000FFFF00000000000008400000C3
:1007F0004133382E52455345525620202020202088
:100800002020202000000000FFFF0000000000006A
:10081000084000004133392E52455345525620209E
:10082000202020202020202000000000FFFF0000CA
:10083000000000000840000042302E434C4F53455A
:1008400020544F5251202020202020200000000062
:100850003C000000020000005041000042312E4FD9
:1008600050454E20544F525145202020202020201A
:10087000000000003C0000000200000050410000A9
:1008800042322E434C205345414C2054525120209B
:1008900020202020000000003C000000020000009A
:1008A0005041000042332E434C20535441525420B7
:1008B0005452512020202020000000003C00000065
:1008C000040000005041000042342E4F5020534598
:1008D000414C2054525120202020202000000000B4
:1008E0003C000000020000005041000042352E4F45
:1008F0005020535441525420545251202020202043
:10090000000000003C000000040000005041000016
:100910002020204232392E52455345525620202065
:100920002020202000000000FFFF00000000000049
:100930000840000042372E5345414C205459504541
:1009400020202020202020200100000004000000A2
:1009500001000000513F000042382E524F44205405
:100960005950452020202020202020200000000079
:100970000100000000000000D141000042392E5A61
:100980004F4E4520434C4F5345202020202020200F
:1009900000000000B80B00000A0000005032000008
:1009A0004231302E5A4F4E45204F50454E20202088
:1009B0002020202000000000B80B00000A000000EA
:1009C000503200004231312E4F4646534554205A92
:1009D0004F4E452020202020000000006400000031
:1009E00000000000502200004231322E504153538B
:1009F000574F525744202020202020200000000084
:100A0000FAFF00000000000000400000202020420B
:100A100031332E54494D45202020202020202020F5
:100A200000000000FAFF00000000000013100000AA
:100A30002020204231342E444154452020202020C3
:100A40002020202000000000FAFF0000000000002D
:100A5000142000002020204231352E5245534552AB
:100A6000562020202020202000000000FFFF000052
:100A700000000000084000002020204231362E52A5
:100A80004553455256202020202020200000000001
:100A9000FFFF000000000000084000004231372E38
:100AA0004D552F445520202020202020202020207C
:100AB00000000000030000000100000050400000A2
:100AC0004231382E445520534F5552534520202053
:100AD0002020202000000000020000000000000094
:100AE000504000004231392E424C4F4B205A414C6D
:100AF000495020202020202000000000010000009C
:100B000000000000504000004232302E434F4D4D57
:100B1000414E442054494D455320202001000000FF
:100B20006400000001000000502200004232312E1B
:100B3000494E20545950205349472020202020203E
:100B40000000000001000000000000005040000014
:100B50004232322E494E204D41534B20202020203E
:100B600020202020000000001F00000000000000E6
:100B7000553000004232332E4F5554204D41534BD7
:100B8000202020202020202000000000FAFF00006C
:100B900000000000557000004232342E424155449E
:100BA0002052415445202020202020200000000019
:100BB0000600000003000000514900004232352EBB
:100BC0004144524553532020202020202020202023
:100BD0000100000020000000010000005010000093
:100BE0004232362E434F4D4D20545950452020203F
:100BF0002020202000000000020000000000000073
:100C0000517000004232372E4D5546462054494D12
:100C10004520202053202020030000006400000015
:100C200014000000502200004232382EC2D0C5CC41
:100C300020D0C0C7C3CECDC020202020000000009F
:100C40006400000064000000502200004232392E8F
:100C5000D1CACED020CCC0CAD12020202020202034
:100C6000000000000A0000000A000000501200000E
:100C70004233302EC2D0C5CC20D2CED0CCCEC6206E
:100C8000202020200000000064000000640000001C
:100C9000502200002020204233312E52455345522D
:100CA000562020202020202000000000FFFF000010
:100CB00000000000084000004233322E4E4F204D0D
:100CC0004F56452054494D45532020200300000035
:100CD0006400000014000000502200004233332E54
:100CE0005345414C20574159202020204F4220207D
:100CF00001000000E8030000640000005032000022
:100D00002020204233342E52455345525620202075
:100D10002020202000000000FFFF00000000000055
:100D2000084000002020204233352E5245534552C2
:100D3000562020202020202000000000FFFF00007F
:100D400000000000084000002020204233362E52D0
:100D5000455345525620202020202020000000002E
:100D6000FFFF00000000000008400000202020429B
:100D700033372E5245534552562020202020202024
:100D800000000000FFFF000000000000084000001D
:100D90002020204233382E524553455256202020E1
:100DA0002020202000000000FFFF000000000000C5
:100DB000084000002020204233392E52455345522E
:100DC000562020202020202000000000FFFF0000EF
:100DD00000000000084000002020204234302E5245
:100DE000455345525620202020202020000000009E
:100DF000FFFF00000000000008400000202020420B
:100E000034312E5245534552562020202020202098
:100E100000000000FFFF000000000000084000008C
:100E20002020204234322E52455345525620202055
:100E30002020202000000000FFFF00000000000034
:100E4000084000002020204234332E5245534552A2
:100E5000562020202020202000000000FFFF00005E
:100E600000000000084000002020204234342E52B0
:100E7000455345525620202020202020000000000D
:100E8000FFFF00000000000008400000202020427A
:100E900034352E5245534552562020202020202004
:100EA00000000000FFFF00000000000008400000FC
:100EB0002020204234362E524553455256202020C1
:100EC0002020202000000000FFFF000000000000A4
:100ED000084000002020204234372E52455345520E
:100EE000562020202020202000000000FFFF0000CE
:100EF00000000000084000002020204234382E521C
:100F0000455345525620202020202020000000007C
:100F1000FFFF0000000000000840000020202042E9
:100F200034392E524553455256202020202020206F
:100F300000000000FFFF000000000000084000006B
:100F40002043302E50415353574F524420202020ED
:100F50002020202000000000FAFF00000000000018
:100F60000040000043312E45502054595045202068
:100F70002020202020202020000000001900000058
:100F8000000000006010000043322E5945415220FD
:100F90004F462050524F44202020202000000000C7
:100FA00063000000160000006010000043332E466E
:100FB0004143544F5259204E554D2020202020208F
:100FC000000000000F27000000000000603000005B
:100FD00043342E4D415820544F5251202020202080
:100FE000202020200A000000701700000A000000E6
:100FF0006034000043352E4E4F4D2043555252452C
:101000004E5420204120202001000000B0040000A8
:101010000A0000006022000043362E4B502052454B
:10102000442020202020202020202020010000001B
:10103000FAFF0000204E00006044000043372E49B4
:101040004E44594320545950452020202020202030
:1010500000000000010000000000000060400000EF
:1010600043382E494E4459432052455320542020A2
:1010700053202020000000001E0000000A00000095
:101080006010000043392E534554204445464F55C7
:101090004C542020202020200000000001000000EF
:1010A00000000000A14D00004331302E5355425640
:1010B000455253494F4E20202020202000000000A0
:1010C000FFFF000000000000084000004331312E07
:1010D00048414C4C2053544154452020202020208E
:1010E00000000000FFFF00000000000008400000BA
:1010F00020D133382ECACED020D2CECAC02055201F
:101100002020202000000000FAFF0000A00F0000B7
:101110006040000020D133392ECACED020D2CECAB2
:10112000C02056202020202000000000FAFF0000F0
:10113000A00F00006040000020D134302ECACED075
:1011400020D2CECAC020572020202020000000003E
:10115000FAFF0000A00F000060400000D134312EE3
:10116000D1CCC5D920D2CECAC020552020202020E5
:1011700000000000FAFF0000B27F000060400000A5
:10118000D134322ED1CCC5D920D2CECAC0205620DF
:101190002020202000000000FAFF0000B27F0000A5
:1011A00060400000D134332ED1CCC5D920D2CECA74
:1011B000C02057202020202000000000FAFF00005F
:1011C000B27F00006040000020D134342ECACED05F
:1011D00020CDC0CFD02052202020202000000000B1
:1011E000FAFF0000D00700006040000020D1343535
:1011F0002ECACED020CDC0CFD020532020202020FA
:1012000000000000FAFF0000D0070000604000006E
:1012100020D134362ECACED020CDC0CFD0205420FD
:101220002020202000000000FAFF0000D00700006E
:1012300060400000D134372ED1CCC5D920CDC0CFED
:10124000D02052202020202000000000FAFF0000C3
:10125000F87F000060400000D134382ED1CCC5D9D1
:1012600020CDC0CFD020532020202020000000001F
:10127000FAFF0000F87F000060400000D134392EF2
:10128000D1CCC5D920CDC0CFD020542020202020C3
:1012900000000000FAFF0000F87F0000604000003E
:1012A00020D135302ECACED020CDC0CF20564443D9
:1012B0002020202000000000FAFF0000D8040000D9
:1012C00060400000D135312ED1CCC5D920CDC0CF62
:1012D000205644432020202000000000FAFF000098
:1012E000000000006040000020D135322ECACED070
:1012F00020D2CECAC0204252202020200000000070
:10130000FAFF0000D804000060400000D135332E01
:10131000D1CCC5D920D2CECAC02042522020202014
:1013200000000000FAFF0000000000006040000024
:10133000D135342ECFCED1D22EC2D02ED1C8CD2091
:101340004DCA4320000000006400000015000000AA
:1013500060220000D135352ECFCED1D22EC2D02E74
:10136000524D53204DCA432000000000640000008D
:101370000100000060220000D133342ECED2CACB4F
:1013800020D2DDCD20202020202020200A000000B7
:101390003C0000002800000060200000D133352E02
:1013A000C2DBC1CED020CCCED9CD20202020202021
:1013B000000000000100000001000000603E00008D
:1013C000D133362ECCCEC420CFC8D2C0CDC8DF207A
:1013D000202020200000000001000000010000008B
:1013E000E08000002020204233372E5245534552E2
:1013F000562020202020202000000000FFFF0000B9
:1014000000000000084000002020204233382E5207
:101410004553455256202020202020200000000067
:10142000FFFF0000000000000840000020202042D4
:1014300033392E524553455256202020202020205B
:1014400000000000FFFF0000000000000840000056
:101450002020204234302E52455345525620202021
:101460002020202000000000FFFF000000000000FE
:10147000084000002020204234312E52455345526E
:10148000562020202020202000000000FFFF000028
:1014900000000000084000002020204234322E527C
:1014A00045534552562020202020202000000000D7
:1014B000FFFF000000000000084000002020204244
:1014C00034332E52455345525620202020202020D0
:1014D00000000000FFFF00000000000008400000C6
:1014E0002020204234342E5245534552562020208D
:1014F0002020202000000000FFFF0000000000006E
:10150000084000002020204234352E5245534552D9
:10151000562020202020202000000000FFFF000097
:1015200000000000084000002020204234362E52E7
:101530004553455256202020202020200000000046
:10154000FFFF0000000000000840000020202042B3
:1015500034372E524553455256202020202020203B
:1015600000000000FFFF0000000000000840000035
:101570002020204234382E524553455256202020F8
:101580002020202000000000FFFF000000000000DD
:10159000084000002020204234392E524553455245
:1015A000562020202020202000000000FFFF000007
:1015B00000000000084000002020204233342E525A
:1015C00045534552562020202020202000000000B6
:1015D000FFFF000000000000084000002020204223
:1015E00033352E52455345525620202020202020AE
:1015F00000000000FFFF00000000000008400000A5
:101600002020204233362E5245534552562020206A
:101610002020202000000000FFFF0000000000004C
:10162000084000002020204233372E5245534552B7
:10163000562020202020202000000000FFFF000076
:1016400000000000084000002020204233382E52C5
:101650004553455256202020202020200000000025
:10166000FFFF000000000000084000002020204292
:1016700033392E5245534552562020202020202019
:1016800000000000FFFF0000000000000840000014
:101690002020204234302E524553455256202020DF
:1016A0002020202000000000FFFF000000000000BC
:1016B000084000002020204234312E52455345522C
:1016C000562020202020202000000000FFFF0000E6
:1016D00000000000084000002020204234322E523A
:1016E0004553455256202020202020200000000095
:1016F000FFFF000000000000084000002020204202
:1017000034332E524553455256202020202020208D
:1017100000000000FFFF0000000000000840000083
:101720002020204234342E5245534552562020204A
:101730002020202000000000FFFF0000000000002B
:10174000084000002020204234352E524553455297
:10175000562020202020202000000000FFFF000055
:1017600000000000084000002020204234362E52A5
:101770004553455256202020202020200000000004
:10178000FFFF000000000000084000002020204271
:1017900034372E52455345525620202020202020F9
:1017A00000000000FFFF00000000000008400000F3
:1017B0002020204234382E524553455256202020B6
:1017C0002020202000000000FFFF0000000000009B
:1017D000084000002020204234392E524553455203
:1017E000562020202020202000000000FFFF0000C5
:1017F00000000000084000002020204233342E5218
:101800004553455256202020202020200000000073
:10181000FFFF0000000000000840000020202042E0
:1018200033352E524553455256202020202020206B
:1018300000000000FFFF0000000000000840000062
:101840002020204233362E52455345525620202028
:101850002020202000000000FFFF0000000000000A
:10186000084000002020204233372E524553455275
:10187000562020202020202000000000FFFF000034
:1018800000000000084000002020204233382E5283
:1018900045534552562020202020202000000000E3
:1018A000FFFF000000000000084000002020204250
:1018B00033392E52455345525620202020202020D7
:1018C00000000000FFFF00000000000008400000D2
:1018D0002020204234302E5245534552562020209D
:1018E0002020202000000000FFFF0000000000007A
:1018F000084000002020204234312E5245534552EA
:10190000562020202020202000000000FFFF0000A3
:10191000000000000840000044302E53455420438E
:101920004C4F534520202020202020200000000084
:101930000200000000000000914D000044312E53D1
:101940004554204F50454E2020202020202020208C
:10195000000000000200000000000000914D0000A7
:1019600044322E544F204F50454E2020202020201E
:101970002020202000000000E803000000000000FC
:101980001032000044332E544F20434C4F53452017
:10199000202020202020202000000000E80300005C
:1019A0000000000010320000202044342E52455325
:1019B000455256202020202020202020000000001A
:1019C000FFFF0000000000000840000044352E43E7
:1019D000414C49422052455345542020202020208C
:1019E000000000000100000000000000114F000096
:1019F00044362E434F4D414E44532020202020207A
:101A00002020202000000000130000000000000043
:101A1000115000002044372E455252205245534564
:101A20005420202020202020000000000100000081
:101A300000000000115000002044382E534554206F
:101A40004445464F554C54202020202000000000E3
:101A50000100000000000000914D00002020204403
:101A6000392E524553455256202020202020202038
:101A700000000000FFFF000000000000080200005E
:101A80004431302E4359434C452052455345542050
:101A900020202020000000000100000000000000C5
:101AA000115000004431312E434F4D4D20524553CB
:101AB00045542020202020200000000001000000CC
:101AC00000000000115000002020204431322E522E
:101AD00045534552562020202020202000000000A1
:101AE000FFFF00000000000008400000202020440C
:101AF00031332E524553455256202020202020209D
:101B000000000000FFFF000000000000084000008F
:101B10002020204431342E52455345525620202057
:101B20002020202000000000FFFF00000000000037
:101B3000084000002020204431352E5245534552A4
:101B4000562020202020202000000000FFFF000061
:101B500000000000084000002020204431362E52B2
:101B60004553455256202020202020200000000010
:101B7000FFFF00000000000008400000202020447B
:101B800031372E5245534552562020202020202008
:101B900000000000FFFF00000000000008400000FF
:101BA0002020204431382E524553455256202020C3
:101BB0002020202000000000FFFF000000000000A7
:101BC000084000002020204431392E524553455210
:101BD000562020202020202000000000FFFF0000D1
:101BE000000000000840000047302E5445535420A8
:101BF0004D4F4445202020202020202000000000C0
:101C000001000000000000006010000047312E4C71
:101C100045442054455354202020202020202020BB
:101C200000000000FAFF0000000000002540000056
:101C300047322E444953204F555420544553542085
:101C40002020202000000000FAFF0000000000001B
:101C50002540000047332E4441432056414C554512
:101C6000202020202520202000000000E803000084
:101C7000000000002032000047342E444953504CED
:101C800020535441525420202020202000000000E6
:101C9000010000000000000020000000202020477C
:101CA000352E5245534552562020202020202020FA
:101CB00000000000FFFF00000000000008400000DE
:101CC00020202047362E52455345525620202020B2
:101CD0002020202000000000FFFF00000000000086
:101CE0000840000020202047372E524553455256C9
:101CF000202020202020202000000000FFFF0000E6
:101D0000000000000840000020202047382E5245E7
:101D10005345525620202020202020200000000083
:101D2000FFFF0000000000000840000020202047C6
:101D3000392E524553455256202020202020202065
:101D400000000000FFFF000000000000084000004D
:101D50002020204731302E52455345525620202016
:101D60002020202000000000FFFF000000000000F5
:101D7000084000002020204731312E524553455263
:101D8000562020202020202000000000FFFF00001F
:101D900000000000084000002020204731322E5271
:101DA00045534552562020202020202000000000CE
:101DB000FFFF000000000000084000002020204736
:101DC00031332E52455345525620202020202020CA
:101DD00000000000FFFF00000000000008400000BD
:101DE0002020204731342E52455345525620202082
:101DF0002020202000000000FFFF00000000000065
:101E0000084000002020204731352E5245534552CE
:101E1000562020202020202000000000FFFF00008E
:101E200000000000084000002020204731362E52DC
:101E3000455345525620202020202020000000003D
:101E4000FFFF0000000000000840000020202047A5
:101E500031372E5245534552562020202020202035
:101E600000000000FFFF000000000000084000002C
:101E70002020204731382E524553455256202020ED
:101E80002020202000000000FFFF000000000000D4
:101E9000084000002020204732302E524553455242
:101EA000562020202020202000000000FFFF0000FE
:101EB00000000000084000002020204732312E5250
:101EC00045534552562020202020202000000000AD
:101ED000FFFF000000000000084000002020204715
:101EE00032322E52455345525620202020202020A9
:101EF00000000000FFFF000000000000084000009C
:101F00002020204732332E52455345525620202060
:101F10002020202000000000FFFF00000000000043
:101F2000084000002020204732342E5245534552AD
:101F3000562020202020202000000000FFFF00006D
:101F400000000000084000002020204732352E52BB
:101F5000455345525620202020202020000000001C
:101F6000FFFF000000000000084000002020204784
:101F700032362E5245534552562020202020202014
:101F800000000000FFFF000000000000084000000B
:101F90002020204732372E524553455256202020CC
:101FA0002020202000000000FFFF000000000000B3
:101FB000084000002020204732382E524553455219
:101FC000562020202020202000000000FFFF0000DD
:101FD00000000000084000002020204732392E5227
:101FE000455345525620202020202020000000008C
:101FF000FFFF0000000000000840000043414C4982
:1020000042205354415553202020202020202020BE
:10201000000000000300000000000000400000007D
:102020002020202020524553455256202020202099
:102030002020202000000000FAFF00000000000027
:1020400040400000434C4F534520504F5320312017
:10205000202020202020202000000000FFFF000082
:102060000000000040400000434C4F534520504FBB
:10207000532032202020202020202020000000009B
:10208000FFFF000000000000404000004F50454EA0
:1020900020504F532031202020202020202020209D
:1020A00000000000FFFF00000000000040400000B2
:1020B0004F50454E20504F532032202020202020CA
:1020C0002020202000000000FFFF00000000000092
:1020D0004040000050415353574F5244203120207C
:1020E000202020202020202000000000FAFF0000F7
:1020F000000000004040000050415353574F5244ED
:10210000203220202020202020202020000000003D
:10211000FAFF000000000000404000005348432048
:1021200020202020202020202020202020202020AF
:1021300000000000FAFF0000000000004040000026
:102140004D554646202020202020202020202020E1
:102150002020202000000000FAFF00000000000006
:10216000404000004359434C4520434E542020201A
:10217000202020202020202000000000FAFF000066
:1021800000000000404000005245534552562020B8
:1021900020202020202020202020202000000000BF
:1021A000FFFF000000000000404000005245534582
:1021B00052562020202020202020202020202020B7
:1021C00000000000FFFF0000000000004040000091
:1021D00052455345525620202020202020202020E8
:1021E0002020202000000000FFFF00000000000071
:1021F000404000002020204831342E4441544520E6
:10220000202020202020202000000000FAFF0000D5
:102210000000000040400000524553455256202027
:10222000202020202020202020202020000000002E
:10223000FFFF0000000000004040000053574954D9
:102240004348204355525220202020202520202082
:1022500000000000B80B0000000000004032000049
:10226000205452512020202043555220305F3020EE
:102270002520202000000000FAFF000000000000E0
:10228000404000002054525120202020435552202D
:10229000305F31202520202000000000FAFF0000E0
:1022A0000000000040400000205452512020202017
:1022B00043555220305F32202520202000000000AE
:1022C000FAFF00000000000040400000205452517E
:1022D0002020202043555220305F3320252020200D
:1022E00000000000FAFF0000000000004040000075
:1022F000205452512020202043555220305F34205A
:102300002520202000000000FAFF0000000000004F
:10231000404000002054525120202020435552209C
:10232000305F35202520202000000000FAFF00004B
:102330000000000040400000205452512020202086
:1023400043555220315F302025202020000000001E
:10235000FAFF0000000000004040000020545251ED
:102360002020202043555220315F3120252020207D
:1023700000000000FAFF00000000000040400000E4
:10238000205452512020202043555220315F3220CA
:102390002520202000000000FAFF000000000000BF
:1023A000404000002054525120202020435552200C
:1023B000315F33202520202000000000FAFF0000BC
:1023C00000000000404000002054525120202020F6
:1023D00043555220315F342025202020000000008A
:1023E000FAFF00000000000040400000205452515D
:1023F0002020202043555220315F352025202020E9
:1024000000000000FAFF0000000000004040000053
:10241000205452512020202043555220325F30203A
:102420002520202000000000FAFF0000000000002E
:10243000404000002054525120202020435552207B
:10244000325F31202520202000000000FAFF00002C
:102450000000000040400000205452512020202065
:1024600043555220325F32202520202000000000FA
:10247000FAFF0000000000004040000020545251CC
:102480002020202043555220325F33202520202059
:1024900000000000FAFF00000000000040400000C3
:1024A000205452512020202043555220325F3420A6
:1024B0002520202000000000FAFF0000000000009E
:1024C00040400000205452512020202043555220EB
:1024D000325F35202520202000000000FAFF000098
:1024E00000000000404000002054525120202020D5
:1024F00043555220335F302025202020000000006B
:10250000FAFF00000000000040400000205452513B
:102510002020202043555220335F312025202020C9
:1025200000000000FAFF0000000000004040000032
:10253000205452512020202043555220335F322016
:102540002520202000000000FAFF0000000000000D
:10255000404000002054525120202020435552205A
:10256000335F33202520202000000000FAFF000008
:102570000000000040400000205452512020202044
:1025800043555220335F34202520202000000000D6
:10259000FAFF0000000000004040000020545251AB
:1025A0002020202043555220335F35202520202035
:1025B00000000000FAFF00000000000040400000A2
:1025C00020545251202020414E474C20305F302073
:1025D0002520202000000000FAFF0000000000007D
:1025E0004040000020545251202020414E474C20B2
:1025F000305F31202520202000000000FAFF00007D
:102600000000000040400000205452512020204192
:102610004E474C20305F3220252020200000000053
:10262000FAFF00000000000040400000205452511A
:10263000202020414E474C20305F33202520202091
:1026400000000000FAFF0000000000004040000011
:1026500020545251202020414E474C20305F3420DE
:102660002520202000000000FAFF000000000000EC
:102670004040000020545251202020414E474C2021
:10268000305F35202520202000000000FAFF0000E8
:102690000000000040400000205452512020204102
:1026A0004E474C20315F30202520202000000000C4
:1026B000FAFF00000000000040400000205452518A
:1026C000202020414E474C20315F31202520202002
:1026D00000000000FAFF0000000000004040000081
:1026E00020545251202020414E474C20315F32204F
:1026F0002520202000000000FAFF0000000000005C
:102700004040000020545251202020414E474C2090
:10271000315F33202520202000000000FAFF000058
:102720000000000040400000205452512020204171
:102730004E474C20315F342025202020000000002F
:10274000FAFF0000000000004040000020545251F9
:10275000202020414E474C20315F3520252020206D
:1027600000000000FAFF00000000000040400000F0
:1027700020545251202020414E474C20325F3020BF
:102780002520202000000000FAFF000000000000CB
:102790004040000020545251202020414E474C2000
:1027A000325F31202520202000000000FAFF0000C9
:1027B00000000000404000002054525120202041E1
:1027C0004E474C20325F32202520202000000000A0
:1027D000FAFF000000000000404000002054525169
:1027E000202020414E474C20325F332025202020DE
:1027F00000000000FAFF0000000000004040000060
:1028000020545251202020414E474C20325F34202A
:102810002520202000000000FAFF0000000000003A
:102820004040000020545251202020414E474C206F
:10283000325F35202520202000000000FAFF000034
:102840000000000040400000205452512020204150
:102850004E474C20335F3020252020200000000010
:10286000FAFF0000000000004040000020545251D8
:10287000202020414E474C20335F3120252020204E
:1028800000000000FAFF00000000000040400000CF
:1028900020545251202020414E474C20335F32209B
:1028A0002520202000000000FAFF000000000000AA
:1028B0004040000020545251202020414E474C20DF
:1028C000335F33202520202000000000FAFF0000A5
:1028D00000000000404000002054525120202041C0
:1028E0004E474C20335F342025202020000000007C
:1028F000FAFF000000000000404000002054525148
:10290000202020414E474C20335F352025202020B9
:1029100000000000FAFF000000000000404000003E
:1029200020414E474C202020534620305F3020204D
:10293000414E474C00000000B400000000000000C1
:102940004020000020414E474C202020534620309C
:102950005F312020414E474C00000000B4000000D1
:10296000000000004020000020414E474C20202065
:10297000534620305F322020414E474C000000007B
:10298000B4000000000000004020000020414E473D
:102990004C202020534620305F332020414E474CAE
:1029A00000000000B4000000000000004020000013
:1029B00020414E474C202020534620305F342020B9
:1029C000414E474C00000000B40000000000000031
:1029D0004020000020414E474C202020534620300C
:1029E0005F352020414E474C00000000B40000003D
:1029F000000000004020000020414E474C202020D5
:102A0000534620315F302020414E474C00000000EB
:102A1000B4000000000000004020000020414E47AC
:102A20004C202020534620315F312020414E474C1E
:102A300000000000B4000000000000004020000082
:102A400020414E474C202020534620315F32202029
:102A5000414E474C00000000B400000000000000A0
:102A60004020000020414E474C202020534620317A
:102A70005F332020414E474C00000000B4000000AE
:102A8000000000004020000020414E474C20202044
:102A9000534620315F342020414E474C0000000057
:102AA000B4000000000000004020000020414E471C
:102AB0004C202020534620315F352020414E474C8A
:102AC00000000000B40000000000000040200000F2
:102AD00020414E474C202020534620325F3020209A
:102AE000414E474C00000000B40000000000000010
:102AF0004020000020414E474C20202053462032E9
:102B00005F312020414E474C00000000B40000001F
:102B1000000000004020000020414E474C202020B3
:102B2000534620325F322020414E474C00000000C7
:102B3000B4000000000000004020000020414E478B
:102B40004C202020534620325F332020414E474CFA
:102B500000000000B4000000000000004020000061
:102B600020414E474C202020534620325F34202005
:102B7000414E474C00000000B4000000000000007F
:102B80004020000020414E474C2020205346203258
:102B90005F352020414E474C00000000B40000008B
:102BA000000000004020000020414E474C20202023
:102BB000534620335F302020414E474C0000000038
:102BC000B4000000000000004020000020414E47FB
:102BD0004C202020534620335F312020414E474C6B
:102BE00000000000B40000000000000040200000D1
:102BF00020414E474C202020534620335F32202076
:102C0000414E474C00000000B400000000000000EE
:102C10004020000020414E474C20202053462033C6
:102C20005F332020414E474C00000000B4000000FC
:102C3000000000004020000020414E474C20202092
:102C4000534620335F342020414E474C00000000A3
:102C5000B4000000000000004020000020414E476A
:102C60004C202020534620335F352020414E474CD6
:102C700000000000B4000000000000004020000040
:102C8000434F4D414E4453205455202020202020B6
:102C90002020202000000000FAFF000000000000BB
:102CA000404000004156455220564F4C54202020B1
:102CB000202020205620202000000000F4010000E9
:102CC000000000004020000054454D504552205463
:102CD0004D50202020202020414E47209CFFFFFF08
:102CE00064000000000000004020000041564552F2
:102CF0002043555252202520202020202020202013
:102D000000000000FAFF000000000000404000004A
:102D1000202043555252454E542020552025202036
:102D20002020252000000000401F000000000000BF
:102D300040320000202043555252454E5420205628
:102D4000202520202020252000000000401F00001A
:102D50000000000040320000202043555252454EF2
:102D6000542020572025202020202520000000006E
:102D7000401F000000000000403200002041564586
:102D80005220435552522020202020204120202034
:102D900000000000401F0000000000004032000062
:102DA0002020504F534954494F4E202020202020AE
:102DB0002020202000000000FAFF0000000000009A
:102DC000404000002020504F534954494F4E20208E
:102DD000202020202020202000000000FAFF0000FA
:102DE00000000000404000002046554C4C20574158
:102DF000592020202020202020202020000000001A
:102E0000FAFF00000000000040400000202046556E
:102E10004C4C2057415920202020202020202020C9
:102E200000000000FAFF0000000000004040000029
:102E300052455645525320545950452020202020B9
:102E400020202020000000000200000002000000FE
:102E5000402000004241442020205441534B203266
:102E6000204B485A2020202000000000FAFF0000DC
:102E70000000000040400000424144202020544116
:102E8000534B20323030485A2020202000000000D0
:102E9000FAFF0000000000004040000042414420D2
:102EA00020205441534B203530485A3120202020D7
:102EB00000000000FAFF0000000000004040000099
:102EC0004241442020205441534B203530485A324F
:102ED0002020202000000000FAFF00000000000079
:102EE000404000004241442020205441534B2035B3
:102EF00030485A332020202000000000FAFF000054
:102F00000000000040400000424144202020544185
:102F1000534B20313020485A202020200000000050
:102F2000FAFF000000000000404000004241442041
:102F30005441534B205245534554202020202020FB
:102F400000000000FAFF0000000000004040000008
:102F50004350552054494D4520202020202020203A
:102F60002020202000000000FAFF000000000000E8
:102F7000404000005441534B204C495354202020E2
:102F8000202020202020202000000000FAFF000048
:102F900000000000404000005441534B204E554D6E
:102FA0004245522020202020202020200000000028
:102FB000FAFF000000000000404000002020202018
:102FC00020524553455256202020202020202020EA
:102FD00000000000FAFF0000000000004040000078
:102FE00020202020205245534552562020202020CA
:102FF0002020202000000000FAFF00000000000058
:1030000040400000202020202052455345525620A9
:10301000202020202020202000000000FAFF0000B7
:103020000000000040400000202020202052455396
:103030004552562020202020202020200000000083
:10304000FAFF000000000000404000004831313429
:103050002E535441525420494E44494320202020AD
:10306000000000001D0000000800000040400000BB
:103070004C6F674576416464722020202020202018
:103080002020202000000000FAFF000000000000C7
:10309000404000004C6F67436D64416464722020BF
:1030A000202020202020202000000000FAFF000027
:1030B00000000000404000004C6F67506172616D7D
:1030C0004164647220202020202020200000000085
:1030D000FAFF000000000000404000004C6F675302
:1030E000696D41646472202020202020202020204F
:1030F00000000000FAFF0000000000004040000057
:103100004C6F674576436F756E7420202020202019
:103110002020202000000000FAFF00000000000036
:10312000404000004C6F67436D64436F756E7420C0
:10313000202020202020202000000000FAFF000096
:1031400000000000404000004C6F67506172616DEC
:10315000436F756E74202020202020200000000086
:10316000FAFF000000000000404000004C6F675371
:10317000696D436F756E7420202020202020202050
:1031800000000000FAFF00000000000040400000C6
:10319000202020205365636F6E6473202020202040
:1031A00020202020000000003C0000000000000063
:1031B00040100000436F6E7447726F7570202020BE
:1031C000202020202020202000000000FAFF000006
:1031D00000000000404000004C6F67436F6E747247
:1031E0006F6C576F726420202020202000000000A8
:1031F000FAFF000000000000404000004C6F6752E2
:10320000657365742020202020202020202020208D
:10321000000000000100000000000000004000006D
:10322000545320496E6469636174696F6E20202075
:103230002020202000000000FFFF00000000000010
:103240004040000031202020205245534552562056
:10325000202020202020202000000000FAFF000075
:103260000000000040400000322020202052455342
:103270004552562020202020202020200000000041
:10328000FAFF000000000000404000003320202032
:103290002052455345525620202020202020202017
:1032A00000000000FAFF00000000000040400000A5
:1032B00034202020205245534552562020202020E3
:1032C0002020202000000000FAFF00000000000085
:1032D00040400000352020202052455345525620C2
:1032E000202020202020202000000000FAFF0000E5
:1032F00000000000404000003620202020524553AE
:1033000045525620202020202020202000000000B0
:10331000FAFF00000000000040400000372020209D
:103320002052455345525620202020202020202086
:1033300000000000FAFF0000000000004040000014
:10334000382020202052455345525620202020204E
:103350002020202000000000FAFF000000000000F4
:10336000404000003920202020524553455256202D
:10337000202020202020202000000000FAFF000054
:103380000000000040400000313020202052455312
:103390004552562020202020202020200000000020
:1033A000FAFF000000000000404000003131202002
:1033B00020524553455256202020202020202020F6
:1033C00000000000FAFF0000000000004040000084
:1033D00031322020205245534552562020202020B3
:1033E0002020202000000000FAFF00000000000064
:1033F0004040000031332020205245534552562092
:10340000202020202020202000000000FAFF0000C3
:10341000000000004040000031342020205245537D
:10342000455256202020202020202020000000008F
:10343000FAFF00000000000040400000313520206D
:103440002052455345525620202020202020202065
:1034500000000000FAFF00000000000040400000F3
:10346000313620202052455345525620202020201E
:103470002020202000000000FAFF000000000000D3
:1034800040400000313720202052455345525620FD
:10349000202020202020202000000000FAFF000033
:1034A00000000000404000003138202020524553E9
:1034B00045525620202020202020202000000000FF
:1034C000FAFF0000000000004040000031392020D9
:1034D00020524553455256202020202020202020D5
:1034E00000000000FAFF0000000000004040000063
:1034F0003230202020524553455256202020202093
:103500002020202000000000FAFF00000000000042
:103510004040000032312020205245534552562071
:10352000202020202020202000000000FAFF0000A2
:10353000000000004040000032322020205245535D
:10354000455256202020202020202020000000006E
:10355000FAFF00000000000040400000323320204D
:103560002052455345525620202020202020202044
:1035700000000000FAFF00000000000040400000D2
:1035800032342020205245534552562020202020FE
:103590002020202000000000FAFF000000000000B2
:1035A00040400000323520202052455345525620DD
:1035B000202020202020202000000000FAFF000012
:1035C00000000000404000003236202020524553C9
:1035D00045525620202020202020202000000000DE
:1035E000FAFF0000000000004040000032372020B9
:1035F00020524553455256202020202020202020B4
:1036000000000000FAFF0000000000004040000041
:103610003238202020524553455256202020202069
:103620002020202000000000FAFF00000000000021
:103630004040000032392020205245534552562048
:10364000202020202020202000000000FAFF000081
:10365000000000004040000033302020205245533D
:10366000455256202020202020202020000000004D
:10367000FAFF00000000000040400000333120202D
:103680002052455345525620202020202020202023
:1036900000000000FAFF00000000000040400000B1
:1036A00033322020205245534552562020202020DE
:1036B0002020202000000000FAFF00000000000091
:1036C00040400000333320202052455345525620BD
:1036D000202020202020202000000000FAFF0000F1
:1036E00000000000404000003334202020524553A9
:1036F00045525620202020202020202000000000BD
:10370000FAFF000000000000404000003335202098
:103710002052455345525620202020202020202092
:1037200000000000FAFF0000000000004040000020
:103730003336202020524553455256202020202049
:103740002020202000000000FAFF00000000000000
:103750004040000033372020205245534552562028
:10376000202020202020202000000000FAFF000060
:103770000000000040400000333820202052455314
:10378000455256202020202020202020000000002C
:10379000FAFF000000000000404000003339202004
:1037A0002052455345525620202020202020202002
:1037B00000000000FAFF0000000000004040000090
:1037C00034302020205245534552562020202020BE
:1037D0002020202000000000FAFF00000000000070
:1037E000404000003431202020524553455256209D
:1037F000202020202020202000000000FAFF0000D0
:103800000000000040400000343220202052455388
:10381000455256202020202020202020000000009B
:10382000FAFF000000000000404000003433202078
:103830002052455345525620202020202020202071
:1038400000000000FAFF00000000000040400000FF
:103850003434202020524553455256202020202029
:103860002020202000000000FAFF000000000000DF
:103870004040000034352020205245534552562008
:10388000202020202020202000000000FAFF00003F
:1038900000000000404000003436202020524553F4
:1038A000455256202020202020202020000000000B
:1038B000FAFF0000000000004040000034372020E4
:1038C00020524553455256202020202020202020E1
:1038D00000000000FAFF000000000000404000006F
:1038E0003438202020524553455256202020202095
:1038F0002020202000000000FAFF0000000000004F
:103900004040000034392020205245534552562073
:10391000202020202020202000000000FAFF0000AE
:103920000000000040400000353020202052455368
:10393000455256202020202020202020000000007A
:10394000FAFF000000000000404000003531202058
:103950002052455345525620202020202020202050
:1039600000000000FAFF00000000000040400000DE
:103970003532202020524553455256202020202009
:103980002020202000000000FAFF000000000000BE
:1039900040400000353320202052455345525620E8
:1039A000202020202020202000000000FAFF00001E
:1039B00000000000404000003534202020524553D4
:1039C00045525620202020202020202000000000EA
:1039D000FAFF0000000000004040000035352020C4
:1039E00020524553455256202020202020202020C0
:1039F00000000000FAFF000000000000404000004E
:103A00003536202020524553455256202020202074
:103A10002020202000000000FAFF0000000000002D
:103A20004040000035372020205245534552562053
:103A3000202020202020202000000000FAFF00008D
:103A4000000000004040000035382020205245533F
:103A50004552562020202020202020200000000059
:103A6000FAFF00000000000040400000353920202F
:103A7000205245534552562020202020202020202F
:103A800000000000FAFF00000000000040400000BD
:103A900036302020205245534552562020202020E9
:103AA0002020202000000000FAFF0000000000009D
:103AB00040400000363020202052455345525620C9
:103AC000202020202020202000000000FAFF0000FD
:103AD0000000000040400000202020202020544909
:103AE0004D45202020202020202020200000000004
:103AF000FFFF0000000000000B100000202020202D
:103B00002020444154452020202020202020202017
:103B100000000000FFFF0000210000000C2000005A
:103B200045302E535441545553202020202020202E
:103B30002020202000000000FFFF00000000000007
:103B40008A00000045312E50524F434553532045C3
:103B5000525220202020202000000000FFFF000003
:103B6000000000000A09000045322E564F4C542038
:103B70004552524F522020202020202000000000DB
:103B8000FFFF0000000000008A11000045332E43B3
:103B9000555252454E54204552522020202020207C
:103BA00000000000FFFF0000000000000A1A0000F3
:103BB00045342E4445564943452045525220202045
:103BC0002020202000000000FAFF0000000000007C
:103BD0008A22000045352E504F534954494F4E20FC
:103BE000202020202520202018FCFFFFD0070000E7
:103BF00000000000883200002020202045362E548E
:103C00004F52514520202020202020200A00000073
:103C1000F82A00000A0000000840000045372E5630
:103C20004F4C54204C312020202020205620202092
:103C300000000000F4010000000000000820000067
:103C400045382E564F4C54204C3220202020202026
:103C50005620202000000000F401000000000000B9
:103C60000820000045392E564F4C54204C3320205C
:103C7000202020205620202000000000F401000019
:103C800000000000082000004531302E43555252FC
:103C9000454E5420205520204120202000000000C7
:103CA000401F000000000000083200004531312EA6
:103CB00043555252454E542020562020412020206A
:103CC00000000000401F000000000000083200005B
:103CD0004531322E43555252454E54202057202014
:103CE0004120202000000000401F000000000000D4
:103CF000083200004531332E54454D5045522020A6
:103D000020202020202020209CFFFFFF64000000B6
:103D100000000000882000004531342E494E205319
:103D20005441544520202020202020200000000065
:103D3000FFFF0000000000000A2B00004531352E77
:103D40004F555420535441544520202020202020FA
:103D500000000000FFFF0000000000008A330000A8
:103D60002020204531362E524553455256202020E2
:103D70002020202000000000FFFF000000000000C5
:103D8000084000002020204531372E52455345522F
:103D9000562020202020202000000000FFFF0000EF
:103DA00000000000084000002020204531382E523D
:103DB000455345525620202020202020000000009E
:103DC000FFFF000000000000084000002020204508
:103DD00032302E524553455256202020202020209C
:103DE00000000000FFFF000000000000084000008D
:103DF0002020204532312E52455345525620202056
:103E00002020202000000000FFFF00000000000034
:103E1000084000002020204532322E5245534552A2
:103E2000562020202020202000000000FFFF00005E
:103E300000000000084000002020204532332E52B0
:103E4000455345525620202020202020000000000D
:103E5000FFFF000000000000084000002020204577
:103E600032342E5245534552562020202020202007
:103E700000000000FFFF00000000000008400000FC
:103E80002020204532352E524553455256202020C1
:103E90002020202000000000FFFF000000000000A4
:103EA000084000002020204532362E52455345520E
:103EB000562020202020202000000000FFFF0000CE
:103EC00000000000084000002020204532372E521C
:103ED000455345525620202020202020000000007D
:103EE000FFFF0000000000000840000020202045E7
:103EF00032382E5245534552562020202020202073
:103F000000000000FFFF000000000000084000006B
:103F10002020204532392E5245534552562020202C
:103F20002020202000000000FFFF00000000000013
:103F3000084000002DE9F041040001F025FF0700D2
:103F4000002C01D101208CE22068DFF81C1588428A
:103F50004AD02068DFF81415884245D02068DFF881
:103F60001015884240D02068DFF8081588423BD001
:103F70002068DFF80415884236D02068DFF8FC148A
:103F8000884231D02068DFF8F81488422CD02068AD
:103F9000DFF8F014884227D02068DFF8EC1488425C
:103FA00022D02068DFF8E41488421DD02068DFF8B2
:103FB000E014884218D02068DFF8D814884213D063
:103FC0002068DFF8D41488420ED02068DFF8CC14C3
:103FD000884209D02068DFF8C814884204D02068DD
:103FE000DFF8C014884201D1012000E00020C0B2F7
:103FF000002800F0E780606A0028002084F8340080
:10400000022084F835002068DFF85C1488424AD02A
:104010002068DFF85814884245D02068DFF8501433
:10402000884240D02068DFF84C1488423BD020689A
:10403000DFF84414884236D02068DFF84014884204
:1040400031D02068DFF8381488422CD02068DFF89F
:104050003414884227D02068DFF82C14884222D0FC
:104060002068DFF8281488421DD02068DFF820146B
:10407000884218D02068DFF81C14884213D02068CA
:10408000DFF8141488420ED02068DFF8101488423C
:1040900009D02068DFF80814884204D02068DFF8CF
:1040A0000414884206D12068006840084000216856
:1040B000086005E02068006840084000216808604A
:1040C00020680068C0070BD501F05EFEC01B062803
:1040D000F6D320206065032084F835000120C0E17C
:1040E00020680168DFF8C0030140A0680143E06870
:1040F00001432069014360690143A0690143E0690C
:104100000143206A0143606A042803D1E06A014345
:10411000206B0143DFF894030068000C0004B0F149
:10412000005F1FD36068292802D360682F2811D34D
:1041300060683F2802D3606843280BD36068472833
:1041400002D36068492805D360684F2804D36068AB
:10415000532801D2012000E00020C0B2002801D085
:1041600051F48011206801602068D0F814805FEA63
:10417000D8085FEAC808606A50EA0808606A04283C
:1041800011D1A06A50EA0808E06A00280BD020008C
:1041900001F0D2FC002806D040206065012084F8A0
:1041A000350001205DE12068C0F81480200001F096
:1041B00048FC05003F2094F85C1011F01F01884076
:1041C000A860A4E02068DFF8E812884222D02068C6
:1041D000DFF8E01288421DD02068DFF8DC12884248
:1041E00018D02068DFF8D412884213D02068DFF896
:1041F000D01288420ED02068DFF8C812884209D059
:104200002068DFF8C412884204D02068DFF8AC16BA
:10421000884201D1012000E00020C0B200286FD008
:104220002068DFF88C12884222D02068DFF88412E0
:1042300088421DD02068DFF88012884218D020689C
:10424000DFF87812884213D02068DFF874128842B1
:104250000ED02068DFF86C12884209D02068DFF8A1
:104260006812884204D02068DFF85016884201D1D5
:10427000012000E00020C0B20028002084F83400B3
:10428000022084F835002068D0F800806FF3101801
:10429000A068402801D1102006E0A068802802D143
:1042A0004FF4804000E0002050EA0808E06858EA37
:1042B000D008206958EAD008606958EAD008A06997
:1042C00058EAD008E06958EAD008206A58EA10187D
:1042D0002068C0F800802168DFF8F0014118142040
:1042E000B1FBF0F08000E065200001F0AAFB0600C1
:1042F000012094F85C1011F01F018840706006E006
:1043000040206065032084F835000120A9E0206882
:10431000DFF85411884272D02068DFF850118842CB
:104320006DD02068DFF84811884268D02068DFF837
:104330004411884263D02068DFF83C1188425ED087
:104340002068DFF83811884259D02068DFF8301132
:10435000884254D02068DFF82C1188424FD0206862
:10436000DFF8241188424AD02068DFF82011884203
:1043700045D02068DFF81811884240D02068DFF867
:10438000141188423BD02068DFF80C11884236D0E7
:104390002068DFF80811884231D02068DFF800116A
:1043A00088422CD02068DFF8FC10884227D0206893
:1043B000DFF8FC10884222D02068DFF8F81088422D
:1043C0001DD02068DFF8F010884218D02068DFF890
:1043D000EC10884213D02068DFF8E41088420ED039
:1043E0002068DFF8E010884209D02068DFF8D81094
:1043F000884204D02068DFF8C414884201D101202B
:1044000000E00020C0B2002825D0200001F0E1FB30
:10441000A068802801D100206060207900F0FF00B2
:10442000216E0860A06E616E4860606800280CD044
:104430006068092809D2200001F021FC0020E16E0B
:104440000860606F216F486005E00020E066002092
:1044500020670020606700206065012084F8350037
:104460000020BDE8F081000010000240280002405A
:1044700040000240580002407000024088000240A4
:10448000A0000240B800024010040240280402408C
:104490004004024058040240700402408804024074
:1044A000A0040240B80402403F8010FE0010005CEF
:1044B000085402581C5402583054025844540258AC
:1044C000585402586C54025880540258F8ABFDA757
:1044D0002DE9F04104000D0016001F005FF00008F8
:1044E000002C01D10120E6E194F83400012801D12B
:1044F0000220E0E1012084F8340094F8350001281E
:1045000040F0CF81022084F83500002060652068EB
:10451000DFF8AC1388424AD02068DFF8A81388423D
:1045200045D02068DFF8A013884240D02068DFF82B
:104530009C1388423BD02068DFF89413884236D021
:104540002068DFF89013884231D02068DFF88813A4
:1045500088422CD02068DFF88413884227D0206856
:10456000DFF87C13884222D02068DFF87813884275
:104570001DD02068DFF87013884218D02068DFF85B
:104580006C13884213D02068DFF8641388420ED081
:104590002068DFF86013884209D02068DFF85813DC
:1045A000884204D02068DFF85413884206D120687E
:1045B0000068400840002168086005E02068006845
:1045C00040084000216808603B00320029002000BC
:1045D00001F004F92068DFF8E81288424AD0206828
:1045E000DFF8E012884245D02068DFF8DC1288420C
:1045F00040D02068DFF8D41288423BD02068DFF832
:10460000D012884236D02068DFF8C812884231D0F4
:104610002068DFF8C41288422CD02068DFF8BC1272
:10462000884227D02068DFF8B812884222D020685C
:10463000DFF8B01288421DD02068DFF8AC12884243
:1046400018D02068DFF8A412884213D02068DFF861
:10465000A01288420ED02068DFF89812884209D054
:104660002068DFF89412884204D02068DFF88C12AA
:10467000884201D1012000E00020C0B2002811D002
:104680002068006830F01E0050F0160021680860B5
:10469000206C002817D02068006850F008002168BE
:1046A000086010E02068006830F00E0050F00A004A
:1046B00021680860206C002805D02068006850F050
:1046C0000400216808602068DFF8F411884271D086
:1046D0002068DFF8F01188426CD02068DFF8E8111C
:1046E000884267D02068DFF8E411884262D02068F1
:1046F000DFF8DC1188425DD02068DFF8D8118842ED
:1047000058D02068DFF8D011884253D02068DFF8F5
:10471000CC1188424ED02068DFF8C411884249D0BD
:104720002068DFF8C011884244D02068DFF8B81153
:1047300088423FD02068DFF8B41188423AD0206820
:10474000DFF8AC11884235D02068DFF8A811884224
:1047500030D02068DFF8A01188422BD02068DFF825
:104760009C11884226D02068DFF89411884221D01D
:104770002068DFF8901188421CD02068DFF888118B
:10478000884217D02068DFF88411884212D0206850
:10479000DFF87C1188420DD02068DFF8781188425C
:1047A00008D02068DFF87011884203D020684349A0
:1047B000884201D1012000E00020C0B2002812D0C0
:1047C000206E0068C00305D5206E006850F480702C
:1047D000216E0860E06E002805D0E06E006850F49D
:1047E0008070E16E08602068DFF8D41088424AD0FB
:1047F0002068DFF8D010884245D02068DFF8C81064
:10480000884240D02068DFF8C41088423BD020683E
:10481000DFF8BC10884236D02068DFF8B810884234
:1048200031D02068DFF8B01088422CD02068DFF843
:10483000AC10884227D02068DFF8A410884222D02C
:104840002068DFF8A01088421DD02068DFF898109B
:10485000884218D02068DFF89410884213D020686E
:10486000DFF88C1088420ED02068DFF8881088426C
:1048700009D02068DFF88010884204D02068DFF873
:104880007C10884206D12068006850F00100216841
:1048900008600EE02068006850F0010021680860A0
:1048A00007E0002084F834004FF4006060650120C8
:1048B00080464046C0B2BDE8F081000094540258E2
:1048C0001000024028000240400002405800024010
:1048D0007000024088000240A0000240B800024080
:1048E00010040240280402404004024058040240E0
:1048F0007004024088040240A0040240B804024050
:10490000085402581C540258305402584454025857
:10491000585402586C5402588054025838B5040058
:10492000002C01D10120C7E194F83500022803D002
:10493000802060650120BFE12068DFF88413884291
:104940004AD02068DFF87C13884245D02068DFF821
:104950007813884240D02068DFF8701388423BD03B
:104960002068DFF86C13884236D02068DFF86413C3
:10497000884231D02068DFF8601388422CD020684C
:10498000DFF85813884227D02068DFF85413884294
:1049900022D02068DFF84C1388421DD02068DFF851
:1049A0004813884218D02068DFF84013884213D09B
:1049B0002068DFF83C1388420ED02068DFF83413FB
:1049C000884209D02068DFF83013884204D020687C
:1049D000DFF8E812884201D1012000E00020C0B2D7
:1049E00000285FD0042084F835002068DFF8D0125A
:1049F000884249D02068DFF8CC12884244D0206831
:104A0000DFF8C41288423FD02068DFF8C012884225
:104A10003AD02068DFF8B812884235D02068DFF835
:104A2000B412884230D02068DFF8AC1288422BD014
:104A30002068DFF8A812884226D02068DFF8A0128C
:104A4000884221D02068DFF89C1288421CD0206860
:104A5000DFF89412884217D02068DFF8901288425D
:104A600012D02068DFF8881288420DD02068DFF865
:104A70008412884208D02068DFF87C12884203D074
:104A800020688E49884206D12068006840084000AE
:104A9000216808600FE12068006840084000216834
:104AA000086008E12068006830F00E0021680860A6
:104AB0002068DFF80C12884249D02068DFF8041221
:104AC000884244D02068DFF8001288423FD0206836
:104AD000DFF8F81188423AD02068DFF8F4118842F4
:104AE00035D02068DFF8EC11884230D02068DFF83C
:104AF000E81188422BD02068DFF8E011884226D0E8
:104B00002068DFF8DC11884221D02068DFF8D4115A
:104B100088421CD02068DFF8D011884217D0206866
:104B2000DFF8C811884212D02068DFF8C41188422B
:104B30000DD02068DFF8BC11884208D02068DFF86B
:104B4000B811884203D020685C49884206D12068A9
:104B50000068400840002168086005E0206800689F
:104B600040084000216808602068DFF8541188423E
:104B700071D02068DFF84C1188426CD02068DFF8D3
:104B80004811884267D02068DFF84011884262D01F
:104B90002068DFF83C1188425DD02068DFF83411CE
:104BA000884258D02068DFF83011884253D02068FE
:104BB000DFF8281188424ED02068DFF8241188429F
:104BC00049D02068DFF81C11884244D02068DFF803
:104BD000181188423FD02068DFF8101188423AD07F
:104BE0002068DFF80C11884235D02068DFF8041106
:104BF000884230D02068DFF8001188422BD020682E
:104C00002E49884227D02068DFF8F010884222D051
:104C10002068DFF8EC1088421DD02068DFF8E4102F
:104C2000884218D02068DFF8E010884213D020684E
:104C3000DFF8D81088420ED02068DFF8D410884200
:104C400009D02068DFF8CC10884204D02068DFF853
:104C5000C810884201D1012000E00020C0B2002825
:104C60001DD0206E006830F48070216E0860A06D49
:104C70000500012094F85C1011F01F018840686065
:104C8000A06E616E4860E06E002808D0E06E00689B
:104C900030F48070E16E0860606F216F4860002022
:104CA00084F83400012084F83500206D002802D0FB
:104CB0002000216D8847002032BD0000B80402406A
:104CC000100002402800024040000240580002400C
:104CD0007000024088000240A0000240B80002407C
:104CE00010040240280402404004024058040240DC
:104CF0007004024088040240A00402400854025894
:104D00001C54025830540258445402585854025803
:104D10006C54025880540258945402582DE9FC47B0
:104D2000040000200090DFF8700A00684FF416516C
:104D3000B0FBF1F6A76DD4F85880D7F80090D8F8FA
:104D400000A02068DFF8541A88424AD02068DFF8B3
:104D5000501A884245D02068DFF8481A884240D06F
:104D60002068DFF8441A88423BD02068DFF83C1AFC
:104D7000884236D02068DFF8381A884231D020685F
:104D8000DFF8301A88422CD02068DFF82C1A8842CD
:104D900027D02068DFF8241A884222D02068DFF864
:104DA000201A88421DD02068DFF8181A884218D0CF
:104DB0002068DFF8141A884213D02068DFF80C1A34
:104DC00088420ED02068DFF8081A884209D020688F
:104DD000DFF8001A884204D02068DFF8FC19884206
:104DE00001D1012000E00020C0B2002800F0308393
:104DF000082094F85C1011F01F01884019EA000F98
:104E00006BD02068DFF8941988424AD02068DFF818
:104E10009019884245D02068DFF88819884240D030
:104E20002068DFF8841988423BD02068DFF87C19BD
:104E3000884236D02068DFF87819884231D020685F
:104E4000DFF8701988422CD02068DFF86C1988428E
:104E500027D02068DFF86419884222D02068DFF864
:104E6000601988421DD02068DFF85819884218D090
:104E70002068DFF85419884213D02068DFF84C19F5
:104E800088420ED02068DFF84819884209D020688F
:104E9000DFF84019884204D02068DFF83C198842C6
:104EA00004D12068006810F0040003E02068006866
:104EB00010F00800002810D02068006830F00400CE
:104EC00021680860082094F85C1011F01F018840E8
:104ED000B860606D50F00100606594F85C0010F0FF
:104EE0001F004946C140C80764D52068DFF8AC18E8
:104EF00088424AD02068DFF8A818884245D0206848
:104F0000DFF8A018884240D02068DFF89C1888425B
:104F10003BD02068DFF89418884236D02068DFF84C
:104F20009018884231D02068DFF8881888422CD049
:104F30002068DFF88418884227D02068DFF87C18C2
:104F4000884222D02068DFF8781888421DD0206877
:104F5000DFF87018884218D02068DFF86C18884293
:104F600013D02068DFF8641888420ED02068DFF87C
:104F70006018884209D02068DFF85818884204D0A9
:104F80002068DFF85418884204D12068406910F086
:104F9000800002E020680068002000280AD001207C
:104FA00094F85C1011F01F018840B860606D50F0FB
:104FB00002006065042094F85C1011F01F01884025
:104FC00019EA000F64D02068DFF8D01788424AD071
:104FD0002068DFF8CC17884245D02068DFF8C41776
:104FE000884240D02068DFF8C01788423BD0206854
:104FF000DFF8B817884236D02068DFF8B417884247
:1050000031D02068DFF8AC1788422CD02068DFF858
:10501000A817884227D02068DFF8A017884222D03E
:105020002068DFF89C1788421DD02068DFF89417AD
:10503000884218D02068DFF89017884213D0206883
:10504000DFF8881788420ED02068DFF8841788427E
:1050500009D02068DFF87C17884204D02068DFF888
:105060007817884204D12068006810F0020002E03E
:1050700020680068002000280AD0042094F85C1002
:1050800011F01F018840B860606D50F00400606549
:10509000102094F85C1011F01F01884019EA000FED
:1050A00000F088802068DFF8F41688424AD0206833
:1050B000DFF8EC16884245D02068DFF8E816884211
:1050C00040D02068DFF8E01688423BD02068DFF847
:1050D000DC16884236D02068DFF8D416884231D0FA
:1050E0002068DFF8D01688422CD02068DFF8C81678
:1050F000884227D02068DFF8C416884222D0206872
:10510000DFF8BC1688421DD02068DFF8B816884248
:1051100018D02068DFF8B016884213D02068DFF876
:10512000AC1688420ED02068DFF8A416884209D059
:105130002068DFF8A016884204D02068DFF89816AF
:10514000884204D12068006810F0080003E020685D
:10515000006810F0040000282CD0102094F85C1097
:1051600011F01F018840B86020680068400311D525
:1051700020680068000306D4206C00281AD02000A4
:10518000216C884716E0A06C002813D02000A16C89
:1051900088470FE020680068C00505D420680068D3
:1051A00030F0080021680860206C002802D0200040
:1051B000216C8847202094F85C1011F01F01884072
:1051C00019EA000F00F0BE802068DFF8D015884291
:1051D0004AD02068DFF8C815884245D02068DFF83B
:1051E000C415884240D02068DFF8BC1588423BD007
:1051F0002068DFF8B815884236D02068DFF8B0158F
:10520000884231D02068DFF8AC1588422CD0206865
:10521000DFF8A415884227D02068DFF8A01588425F
:1052200022D02068DFF8981588421DD02068DFF86A
:105230009415884218D02068DFF88C15884213D066
:105240002068DFF8881588420ED02068DFF88015C6
:10525000884209D02068DFF87C15884204D0206895
:10526000DFF87415884204D12068006810F010003F
:1052700003E02068006810F00200002862D02020BF
:1052800094F85C1011F01F018840B86094F8350064
:1052900004282BD12068006830F0160021680860CF
:1052A0002068406930F0800021684861206C002847
:1052B00002D1A06C002805D02068006830F00800FA
:1052C000216808603F2094F85C1011F01F018840AD
:1052D000B860002084F83400012084F83500206D87
:1052E000002802D02000216D884752E22068006823
:1052F000400311D520680068000306D4606C0028C4
:1053000020D02000616C88471CE0E06B002819D099
:105310002000E16B884715E020680068C0050BD4C9
:105320002068006830F0100021680860002084F8D0
:105330003400012084F83500E06B002802D0200002
:10534000E16B8847606D002800F02382606DC00724
:1053500076D5042084F835002068DFF840148842B0
:105360004AD02068DFF83814884245D02068DFF83A
:105370003414884240D02068DFF82C1488423BD097
:105380002068DFF82814884236D02068DFF820141F
:10539000884231D02068DFF81C1488422CD0206865
:1053A000DFF81414884227D02068DFF810148842F0
:1053B00022D02068DFF8081488421DD02068DFF86A
:1053C0000414884218D02068DFF8FC13884213D0F8
:1053D0002068DFF8F81388420ED02068DFF8F01359
:1053E000884209D02068DFF8EC13884204D0206896
:1053F000DFF8E413884206D12068006840084000C6
:105400002168086005E020680068400840002168C5
:1054100008600098401C0090864203D32068006812
:10542000C007F6D4002084F8340020680068C00764
:1054300003D5032084F8350002E0012084F835000C
:10544000E06C002800F0A5812000E16C8847A0E115
:105450002068DFF8C416884222D02068DFF8BC1626
:1054600088421DD02068DFF8B816884218D020681E
:10547000DFF8B016884213D02068DFF8AC168842F7
:105480000ED02068DFF8A416884209D02068DFF823
:10549000A016884204D02068DFF89816884201D10F
:1054A000012000E00020C0B2002800F072812068D6
:1054B00000680500042094F85C1011F01F0188407A
:1054C0001AEA000F74D0680772D5042094F85C10B3
:1054D00011F01F018840C8F80400280411D5E80322
:1054E00007D4A06C002800F054812000A16C8847EC
:1054F0004FE1206C002800F04C812000216C88478F
:1055000047E1A8064CD42068A44988423BD02068D3
:10551000A349884237D02068A249884233D0206806
:10552000A14988422FD02068A04988422BD020680A
:105530009F49884227D020689E49884223D020680E
:105540009D4988421FD020689C4988421BD0206812
:105550009B49884217D020689A49884213D0206816
:10556000994988420FD02068984988420BD020681A
:105570009749884207D020689649884203D020681E
:105580009549884206D12068006830F008002168FB
:10559000086005E02068006830F0040021680860B9
:1055A000206C002800F0F5802000216C8847F0E096
:1055B000022094F85C1011F01F0188401AEA000FD5
:1055C00079D0A80777D5022094F85C1011F01F015C
:1055D0008840C8F80400280411D5E80307D4606C9B
:1055E000002800F0D6802000616C8847D1E0E06B95
:1055F000002800F0CE802000E16B8847C9E0A806B3
:1056000052D42068654988423BD02068644988426A
:1056100037D020686349884233D020686249884285
:105620002FD02068614988422BD020686049884289
:1056300027D020685F49884223D020685E4988428D
:105640001FD020685D4988421BD020685C49884291
:1056500017D020685B49884213D020685A49884295
:105660000FD02068594988420BD020685849884299
:1056700007D020685749884203D02068564988429D
:1056800006D12068006830F014002168086005E049
:105690002068006830F00A0021680860002084F863
:1056A0003400012084F83500E06B002871D0200020
:1056B000E16B88476DE0082094F85C1011F01F0141
:1056C00088401AEA000F64D0280762D52068334961
:1056D00088423BD020683249884237D0206831491F
:1056E000884233D02068304988422FD020682F4923
:1056F00088422BD020682E49884227D020682D4927
:10570000884223D020682C4988421FD020682B492A
:1057100088421BD020682A49884217D0206829492E
:10572000884213D02068284988420FD02068274932
:1057300088420BD020682649884207D02068254936
:10574000884203D020682449884206D12068006836
:1057500030F01C002168086005E02068006830F027
:105760000E0021680860012094F85C1011F01F0100
:105770008840C8F8040001206065002084F83400E7
:10578000012084F83500E06C002802D02000E16C94
:105790008847BDE8F387000068020020100002403F
:1057A00028000240400002405800024070000240C1
:1057B00088000240A0000240B800024010040240ED
:1057C0002804024040040240580402407004024091
:1057D00088040240A0040240B8040240F0B4856D81
:1057E000866D0468DFF81875BC426BD00468DFF87A
:1057F0001475BC4266D00468DFF80C75BC4261D0F9
:105800000468DFF80875BC425CD00468DFF80075F6
:10581000BC4257D00468DFF8FC74BC4252D0046824
:10582000DFF8F474BC424DD00468DFF8F074BC4279
:1058300048D00468DFF8E874BC4243D00468DFF85D
:10584000E474BC423ED00468DFF8DC74BC4239D05A
:105850000468DFF8D874BC4234D00468DFF8D07430
:10586000BC422FD00468DFF8CC74BC422AD0046854
:10587000DFF8C474BC4225D00468DFF8C074BC42B1
:1058800020D00468A44FBC421CD00468A34FBC4283
:1058900018D00468A24FBC4214D00468A14FBC4287
:1058A00010D00468A04FBC420CD004689F4FBC428B
:1058B00008D004689E4FBC4204D00468DFF88074AE
:1058C000BC4201D1012400E00024E4B2002C08D045
:1058D000846E476E7C60C46E002C02D0446F076FEC
:1058E0007C600468DFF81874BC424AD00468DFF8B2
:1058F0001474BC4245D00468DFF80C74BC4240D03C
:105900000468DFF80874BC423BD00468DFF8007418
:10591000BC4236D00468DFF8FC73BC4231D0046866
:10592000DFF8F473BC422CD00468DFF8F073BC429B
:1059300027D00468DFF8E873BC4222D00468DFF89F
:10594000E473BC421DD00468DFF8DC73BC4218D09D
:105950000468DFF8D873BC4213D00468DFF8D07352
:10596000BC420ED00468DFF8CC73BC4209D0046896
:10597000DFF8C473BC4204D00468DFF8C073BC42D3
:1059800001D1012400E00024E4B2002C1BD03F240C
:1059900090F85C7017F01F07BC40AC600468246886
:1059A00034F4802407683C60046863608468402C99
:1059B00004D10468A2600468E16040E00468A1606A
:1059C0000468E2603BE00468534FBC421CD00468AA
:1059D000524FBC4218D00468514FBC4214D00468E6
:1059E000504FBC4210D004684F4FBC420CD00468EA
:1059F0004E4FBC4208D004684D4FBC4204D00468EE
:105A0000DFF83C73BC4201D1012400E00024E4B281
:105A1000002C14D0012490F85C7017F01F07BC40D4
:105A20007460046863608468402C04D10468A260D8
:105A30000468E16003E00468A1600468E260F0BC0F
:105A400070470168DFF8B82291423ED00168DFF864
:105A5000B422914239D00168DFF8AC22914234D0AF
:105A60000168DFF8A82291422FD00168A84A91422C
:105A70002BD00168A74A914227D00168A64A9142DB
:105A800023D00168A54A91421FD00168A44A9142DF
:105A90001BD00168A34A914217D00168A24A9142E3
:105AA00013D00168A14A91420FD00168A04A9142E7
:105AB0000BD001689F4A914207D001689E4A9142EB
:105AC00003D001689D4A914201D1012100E00021EB
:105AD000C9B2002918D0017801F0FF01103918224D
